:020000040800F2
:1000000060040020D50000080D370008611D0008BD
:1000100000000000000000000000000000000000E0
:100020000000000000000000000000006F3A00081F
:100030000000000000000000BD370008713A000811
:10004000E7000008E700000819390008E700000889
:10005000E7000008E7000008E7000008E7000008E4
:1000600000000000E7000008E7000008E7000008C3
:10007000E7000008E7000008793C0008953B00080D
:10008000E7000008E7000008E700000800000000A3
:10009000E7000008E7000008E7000008E7000008A4
:1000A000E70000086D3A0008E70000082D3C000852
:1000B000E7000008E7000008000000000000000062
:1000C0000348854600F03AFB004800477D3C0008A5
:1000D000600400200448804704480047FEE7FEE72C
:1000E000FEE7FEE7FEE7FEE7313B0008C10000083F
:1000F00030B50B46014600202022012409E00D46C0
:10010000D5409D4205D31D469540491B2546954047
:1001100040191546521E002DF1DC30BD70B500248B
:100120002546002801DA01244042002901DA012590
:100130004942FFF7DDFFAC4200D04042002C00D026
:10014000494270BDD2B201E00270401C491EFBD290
:1001500070470022F6E710B513460A4604461946D2
:10016000FFF7F0FF204610BD10B5044605E00B7800
:100170000370401C002B00D0491C521EF7D22046B1
:1001800010BD421C0178401C0029FBD1801A704729
:1001900010B5002200E0521C835C8C5CA34201D1AC
:1001A000002BF8D1D8B2E1B2401A10BD70B5104D95
:1001B000002800D12868002414E00A4602E09E428C
:1001C00003D0521C1378002BF9D1DAB2224307D0A6
:1001D000002B06D0002C04D000210170401C04E04C
:1001E0000446401C0678002EE7D12860204670BDEA
:1001F0000000002070B5064603F0E6FE04680546E0
:100200000A220021304600F059F82C6070BD01220E
:10021000D207002800DB101A002900DB511A8142A6
:1002200001D801207047002070470122D207002822
:1002300000DB101A002900DB511A814201D901208C
:10024000704700207047C217C10F504010B54018CA
:10025000CA079623002100F071F810BDF0B51FB455
:100260000646002082B005464024019100901BE024
:10027000019922460F46304600F082FA049A059B07
:10028000801A994110D310461946224600F068FAA8
:10029000361A8F410197224601200021009F00F06D
:1002A0005FFA38184D4100902046641E0028DFDCBC
:1002B000019B00982946324607B0F0BDF7B5009C77
:1002C0000F4600262578641C002D05D000F07CFA2E
:1002D0000068405DC007F5D12B2D02D02D2D18D020
:1002E000641E39462046029A00F072FA002F04D0AC
:1002F0003968A14201D100993960710502240029B1
:100300000BDA4042002803DD03F05EFE0460A00724
:10031000FEBD012080020643E3E70028F8DA03F07F
:1003200053FE04600048FEBDFFFFFF7F002904DA92
:10033000401C490001D140084000704770B40024BF
:10034000050C05D11024000402D1002921D011246C
:10035000050E01D100020834050F01D10001241D52
:10036000850F01D18000A41C002801DB4000641C23
:10037000002908D020252E1B0D46F540A14000D0B5
:1003800001212943084301061B1B000ADB1D02D57E
:10039000002070BC7047DB05181880180029F8DAB7
:1003A000401C4900F5D170BC400840007047000077
:1003B000F0B507460846584087B0C00F0490480083
:1003C0000E46590040084908BC1A884105D23846F3
:1003D00031461E4617460B46024658004008104359
:1003E0004CD0300D039040055900400D490D05904B
:1003F000401A0290402872DA18030121000B090507
:100400000843019004980092002805D001995242B7
:100410000020884100920190029840210A1A019917
:10042000009800F09DF905460C466B4607CB00F09E
:10043000B8F9C0197141039A0E0D0023D717564021
:100440001A467A40164344D0049A002A2DD0029AC4
:10045000012A039A15DC1205C01A914101263605BE
:10046000001C7141D20F059ED207009301920296A3
:100470002A46234600F00CFA07B0F0BD3846314654
:10048000FAE71605224A0F46B218C01AB7410121F1
:100490000905001C4F4100187F4111461818794189
:1004A000E20F10436D19644113E0E2076D08154334
:1004B0006408C2071443039A01261205C01A914129
:1004C0003605001C7141CE07400830434908C0186A
:1004D00051412A46234600F0CEF9CDE7FFE70498C4
:1004E00001224000C117121A00238B4104983146A3
:1004F000C417381AA141EEE730B40124E407634081
:1005000030BC55E730B40124E407614030BC4FE70C
:100510000000E0FFF0B51FB488B00B9909980024E3
:1005200048400999C00F490049080991C0070B9933
:100530000090490049080B9109990898A64608437C
:100540001CD00B990A98084318D009980124400040
:10055000420D4800410D099824050003000B20437B
:1005600009900B980003000B20430B9050181C4976
:100570004018002201901446104605E00020014674
:100580000DB0F0BD032801DA034600E003239C46CA
:10059000C11A0AAE0AE05F0008ADED5B4F00F75BE1
:1005A0007D430027AA187C41491C5B1E6145F2DD92
:1005B000410004AB5A522104120C0A43240C401C83
:1005C0000828DFDB019802900099704601910090A5
:1005D000059B049A0799069800F05AF9D0E70000A5
:1005E0000DFCFFFFF0B50C465C4085B0E40FE4075E
:1005F00003944C00002664085900944649080246BA
:100600000296224321D062460A431ED06200570D53
:100610004A000E032303550D012402462C492405EC
:10062000781B1B0B360B4018234326436146009072
:100630001C46501AB44103D30098401C009002E0BD
:10064000921800985B41002803DA0020014605B0AB
:10065000F0BD0020012109050746864611E06446E9
:100660001D46141BB54106D36546521BB341744663
:1006700007430C43A646CD07400849082843921873
:100680005B4105460D43EAD11046184313D060463E
:10069000194650407140084306D06046101AB341D5
:1006A00006D20122002306E000220123DB0702E03C
:1006B0000122D2435310009874460105381C614151
:1006C000029C039D0019694100F0D5F8BFE70000C6
:1006D000FD0300004A0009030123090B1B05194310
:1006E0000A4B10B5520D9A4202DA0020014610BDA5
:1006F000064B34339A4203DC9A1A00F041F810BDDD
:10070000034BD21800F02CF810BD0000FF030000CE
:10071000CDFBFFFF10B5002904DB0124E4074042B4
:100720008C412146002B04DB1C460123DB0752428F
:10073000A341994200D1904210BD0000064C012512
:10074000064E05E0E36807CC2B430C3C9847103479
:10075000B442F7D3FFF7B8FC90490008B04900084D
:1007600010B5202A04DB0146203A9140002010BD3C
:10077000914020239C1A0346E3401943904010BD4A
:1007800010B5202A04DB0846203AD040002110BDD5
:100790000B46D340D0402024A21A9140084319466A
:1007A00010BD10B5202A06DBCB170846203A1041B1
:1007B000C1170B4306E00B461341D0402024A21A78
:1007C00091400843194610BD004870472849000869
:1007D000F7B582B0029C00272078641C154601976B
:1007E000302802D0002D15D015E020780127641C98
:1007F000782804D0582802D0002D09D00BE0002D15
:1008000001D0102D07D1002710252078641C02E0AC
:10081000082500E00A250026009610E0009901272F
:1008200069430818020C294680B2714300908E1863
:100830003804864201D3012001902078641C2946A7
:1008400000F078F80028E9DA0398002805D0002F96
:1008500001D0641E00E0029C04600198002806D0CC
:1008600003F0B2FB02210160C81E05B0F0BD009983
:1008700030040843F9E710B5002B08DA0024401CC7
:10088000614192185B411A4301D14008400010BDFC
:10089000F0B51FB482B005460C0003D0084603F043
:1008A0007BFB02E003F078FB2030024600902146FB
:1008B0002846FFF755FF049B059A04460F46184348
:1008C0001143084314D0184610431BD00098402110
:1008D0000A1A18460599FFF753FF05460E46009A77
:1008E00005990498FFF73CFF084305D0012004E078
:1008F0002046394607B0F0BD0020C11705430E431E
:100900002C43374300990E986305401A7905E40A91
:1009100000220C43FD0A0A3002D500200146E9E717
:100920000105101969410C9C0D9D00196941FFF7E3
:10093000A2FFDFE73A2800D23038202302469A434C
:10094000412A01D310463738884201D30020C043E2
:100950007047000080B586B001A800210171E3480E
:1009600000680490FFE70498DF49096888423FD097
:10097000FFE700200390FFE7039802280ADCFFE767
:10098000039801A90A1852780A54FFE70398401CFB
:100990000390F1E70498D649085C039A01AB985498
:1009A0000498085C3F2818D1FFE7144901A8FFF715
:1009B000EFFB00280CD1FFE71048042100F0E2F91A
:1009C0000499491CC94A116001210591009012E067
:1009D0000498401CC5490860FFE7FFE70498401CE5
:1009E000C117890E41183F229143401A0490BAE77B
:1009F00000200590FFE7059806B080BD614900081A
:100A00000120704780B5A2B0FFE719A800F086FC6E
:100A100000287CD1FFE719A802211890179100F057
:100A2000B1F92C2116900846159100F08DF918990E
:100A30008A1C14901046179900F0A4F91599139088
:100A4000084600F081F918990A1D1290104617996E
:100A500000F098F915991190084600F075F9189969
:100A60008A1D10901046179900F08CF915990F9077
:100A7000084600F069F9189908310E900846179950
:100A800000F080F915990D90084600F05DF918996D
:100A90000A310A220C90084611460B9200F072F9B6
:100AA00015990A90084600F04FF91899143101225F
:100AB000099008461146089200F064F915990790CC
:100AC000084600F041F918991531069008460B992F
:100AD00000F058F915990590084600F035F9189975
:100AE0001F3104900846089900F04CF915990390BD
:100AF000084600F029F90B990290084600F024F905
:100B00002121189A01901046FFF723FB7DE73F2033
:100B100000F01AF900210090084622B080BD0000C4
:100B200080B584B0014602900298401E08280191C9
:100B3000009022D80098C04678440079400087444D
:100B4000040C08101C1C1C14180000F01BFA039065
:100B500017E000F037F9039013E000F07FF90390FD
:100B60000FE000F0D9F803900BE000F0B1FB039028
:100B700007E0FFF747FF039003E00020C043039026
:100B8000FFE7039804B080BD80B590B0F7480068D7
:100B90000D90FA4800680E90FFE70E980D99884274
:100BA00016D0FFE70E98F249085C3F2805D1FFE711
:100BB0000E98401CEF4908600AE0FFE70E98401CC1
:100BC000C117890E41183F229143401A0E90E4E765
:100BD0000E980D99884203D1FFE700200F907FE027
:100BE00068463221FFF7B5FA00200E90FFE7E34890
:100BF0000068E0490968884215D0FFE7DF480068CF
:100C0000DB49085C0E994A1C0E926A465054FFE775
:100C1000DA480168491CCA17920E8A183F239A4382
:100C2000891A0160E3E733496846FFF7B1FA002803
:100C300003D1FFE701200F9052E02F496846FFF7EC
:100C4000A7FA002803D1FFE702200F9048E02B49C4
:100C50006846FFF79DFA002803D1FFE703200F90B5
:100C60003EE027496846FFF793FA002803D1FFE7E3
:100C700004200F9034E023496846FFF789FA0028E2
:100C800003D1FFE705200F902AE01F496846FFF7D0
:100C90007FFA002803D1FFE706200F9020E01B49D0
:100CA0006846FFF775FA002803D1FFE707200F9089
:100CB00016E017496846FFF76BFA002803D1FFE7F3
:100CC00008200F900CE013496846FFF761FA0028EE
:100CD00003D1FFE709200F9002E000200F90FFE70B
:100CE0000F9810B080BDC046580000205000002072
:100CF000100000207A490008664900087049000881
:100D00005C49000852490008574900086B4900082F
:100D1000754900084D49000880B592B004A83221F9
:100D2000954A039000F05EFA039902900846FFF797
:100D300028FA039901900846019900F023F8002150
:100D40000090084612B080BD80B584B0014603AA69
:100D500010701078094A02901046029A01911146CB
:100D600002F020FAFFE706480068402108404028CA
:100D700001D0FFE7F7E7002004B080BD0038014054
:100D80001C38014080B586B00A46034605900491A0
:100D90000020039002920193FFE703980499884290
:100DA0000DDAFFE705980078FFF7CEFF0599491C9B
:100DB00005910090FFE70398401C0390EDE70020A9
:100DC00006B080BDF0B595B0DB480C9001F035FE63
:100DD0000EA988710C980B9101F011FE0B994871C6
:100DE0000C9801F0EEFD0B9908710C9801F0ACFB2A
:100DF0000DA988700C980A9101F0C0FB0A994870FF
:100E00000C9801F0EDFB0A99C8700C9801F0D4FB26
:100E10000A9908700B988279437904798D784E7815
:100E2000CF78087869460861CF608E604D600C60AD
:100E3000C24911A8099003F09BF809990890084647
:100E4000FFF79FF90999079008460799FFF79AFF5E
:100E500000210690084615B0F0BDC04610B59AB006
:100E600006A83221FFF775F9FFE7AE480068AE49E2
:100E70000818401E00783F2801D0FFE7F5E7A94891
:100E80000068401EA949086000201990189017902A
:100E900016901590059000F0CDF915A93222364B29
:100EA0000490084611461A4600F05BF9139000F0D2
:100EB00089F9059914910390FFE79D4800689B49C3
:100EC0000968884215D0FFE7994800689649085C90
:100ED00014994A1C149215AA5054FFE794480168CB
:100EE000491CCA17920E8A183F239A43891A016037
:100EF000E3E78F480168491C01608C480168491C80
:100F00000160179806A90870169800011C4A8018FD
:100F100015AB5C79303C204348709879000180180B
:100F2000DA79303A1043887015980A2214464443FF
:100F3000587820187F4C0019C87098784243D878A8
:100F4000101800190871029100F074F932210A4A50
:100F5000029B0190184600F004F9139000F032F95A
:100F60001399009008461AB010BDC04658000020E2
:100F7000100000205400002000000808500000204D
:100F800000FDFFFFF0B59BB0FFE7664800686649CB
:100F90000818401E00783F2801D0FFE7F5E76148B8
:100FA0000068401E6149086000201690FFE7604815
:100FB00000685E490968884215D0FFE75C48006810
:100FC0005949085C16994A1C169217AA5054FFE713
:100FD00057480168491CCA17920E8A183F239A4342
:100FE000891A0160E3E717A8002181731491179A09
:100FF0000A231C4654434278A2184E4C121914ADD1
:10100000AA7182781E465643C278B21812196A71C4
:10101000189A1E4656434279B21812192A71464A46
:1010200012901046119110930F940E950D9201F0AD
:101030008BFA13A9887012988279109B5343C27956
:101040009A180F9BD2188A70199A109C5443427AAE
:10105000A218D2184A70827A109C5443C27AA218FD
:10106000D218CA70027B303A072410460C912146F0
:10107000FFF754F80C9A11700D990B9008461199CE
:101080000E9A01F0F5FC0D990A90084611990C9AF8
:1010900001F0C2FA0D990990084601F0CEFC0E99B4
:1010A00088710D9801F0ABFC0E9948710D9801F014
:1010B00088FC0E9908710D9801F046FA0C99887019
:1010C0000D9801F05BFA0C9948700D9801F088FAC0
:1010D0000C99C8700D9801F06FFA0C9908700E9871
:1010E0008279437904798D784E78CF78087869468B
:1010F0000861CF608E604D600C601049129802F05C
:1011000037FF129908900846FFF73BF812990790AD
:1011100008460799FFF736FE1199069008461BB05E
:10112000F0BDC046580000201000002054000020F0
:1011300050000020F0FDFFFF002800407F4900081C
:1011400010B585B00A46034604AC2070039103989D
:10115000029004980299087000200192009305B053
:1011600010BDB0B588B013460C46054606900591F3
:10117000049200200390029301940095FFE70398E6
:101180000599884217DAFFE7069800780499FFF777
:10119000D7FF002804D0FFE70020C04307900DE0F0
:1011A0000698401C06900498401C0490FFE70398A2
:1011B000401C0390E3E700200790FFE7079808B082
:1011C000B0BD7047FFE741480068C007002801D064
:1011D000FFE7F8E7E74801680122114301600020BA
:1011E0007047C046B0B588B013460C460546079018
:1011F00006910592059803900020049002930194B3
:101200000095FFE70498069988420FDAFFE70398F4
:101210000078079908700798401C07900398401CB5
:101220000390FFE70498401C0490EBE7002008B00F
:10123000B0BD000081B0CF480068C007002808D0CA
:10124000FFE7074807490160074901600020009057
:1012500003E00020C0430090FFE7009801B0704712
:101260000C200240EFCDAB890504030283B0014698
:101270000190C04802684123DB001A4302600198D4
:10128000002202600091FFE7D6480068C0070028EE
:1012900001D0FFE7F8E7D34800688007002804D5AD
:1012A000FFE7D0480221016003E00020C043029024
:1012B00008E0B04801684122D2009143016000205B
:1012C0000290FFE7029803B07047C0461820024022
:1012D00080B58AB0974809903048089007A9002245
:1012E0000A7006900591FFF7A5FF099A08A9042343
:1012F000049008461946FFF734FF039000F01EF9EA
:10130000069902900846FFF7B1FF0190FFF75AFFD8
:1013100005990A78009010460AB080BD10B588B0D3
:10132000014606900020059005A80422814B0491F7
:1013300011461A46FFF756FF0699174A13682024EC
:1013400003900846214602921A46FFF74BFF029986
:101350000A6820320A600A68774B9A42019007D3E4
:10136000FFE70D480D4901600020C04307900FE0E2
:10137000094800680599884207D9FFE706480749E8
:1013800001600020C043079002E000200790FFE7C3
:10139000079808B010BDC0460800002000370108BB
:1013A000F0B5A5B02E9C2D9D2C9E2B9F14902A98B5
:1013B00013901846129010461190084610901498F9
:1013C0002394229521962097139C1F941E931D927F
:1013D0001C9114991B911D9A17AB1A701BAA557A70
:1013E0005D70957A9D70D57ADD70209B16AD2B705F
:1013F000537D6B70937DAB70D37DEB70229B15ADED
:101400002B70537F6B70937FAB70D27FEA701AAAF8
:101410000421484B0F9010461A46FFF7E3FE1A9935
:10142000203119911A99444A91420E9004D3FFE752
:101430000020C04324907AE0FFF7FCFE19A90422A3
:101440003C4B0D90084611461A46FFF78AFE0C9059
:1014500000F074F81AA90978490600290B9005D103
:10146000FFE71A98FFF702FF0A90FFE71BA8189002
:10147000189909681A9A09900846114600F082F8EE
:1014800009990A1D1892189A12681A9B191D08903A
:10149000104600F077F817A91891189909681A9A58
:1014A000083207900846114600F06CF809990C3193
:1014B0001891189909681A9A0C3206900846114634
:1014C00000F060F8099910311891189909681A9A72
:1014D000103205900846114600F054F816A91891EC
:1014E000189909681A9A143204900846114600F0B7
:1014F00049F8099918311891189909681A9A1832F7
:1015000003900846114600F03DF815A91891189966
:1015100009681A9A1C3202900846114600F032F807
:101520000190FFF74FFE002124910090FFE72498DF
:1015300025B0F0BD14000808FF7F010881B00D48F8
:101540000068800700280DD5FFE70B480B490160B4
:101550000B490160074801680222914301600020A5
:10156000009003E00020C0430090FFE7009801B026
:101570007047C0460420024010200240BFAE9D8C40
:101580001615141385B00A4603460390029172B6ED
:1015900001920093FFE713480068C007002801D0BC
:1015A000FFE7F8E7039802990860FFE70D48006835
:1015B000C007002801D0FFE7F8E762B609480068D5
:1015C0008007002806D5FFE70648022101600020B9
:1015D000049003E00020C0430490FFE7049805B0A6
:1015E0007047C046182002400748016801221202D5
:1015F000114301607047C04603480168012212028E
:10160000914301607047C0461400005005480168CE
:101610001022114301607047024801681022914373
:10162000016070471404005080B586B012480590E0
:101630001248049012480390124802900020019032
:10164000FFE701980F2813DCFFE7FFE7F648006883
:101650000006002801D5FFE7F8E7019802A9095C18
:10166000F04801F08DFBFFE70198401C0190E8E78E
:10167000002006B080BDC0460100053F0101010108
:101680000800F100B5620601F0B5C9B0539C529D47
:10169000519E509F11904F9810904E980F90184661
:1016A0000E9010460D9008460C901198489447955E
:1016B00046964597109C44940F9D439542934192C2
:1016C00040913FA900220A7001213E913D921DA93F
:1016D0007D230B90084619460A92FEF73AFD0A98B8
:1016E0001C901B901A9016A90870149013901290D9
:1016F000FFE716A80078002800D086E13E98401E3B
:101700000428099000D97FE1099840007844808836
:10171000400087440400790129008C00BF00C148C3
:10172000002101F02DFBFFE7BF48006800060028FC
:1017300001D5FFE7F8E7BB4801F0FBFA3FA90870C5
:101740000878242805D1FFE703203E9000201C9054
:10175000FFE73FA80078B52805D1FFE700201C90DF
:1017600004203E90FFE74FE1AE48002101F008FB66
:10177000FFE7AD4800680006002801D5FFE7F8E75D
:10178000A84801F0D6FA3FA908703F981C9A1DABF3
:1017900098540878FF2803D1FFE701203E9006E027
:1017A0003FA80078FF2801D0FFE7FFE7FFE71C987C
:1017B0001DA9085C2A282FD1FFE79A48002101F0D3
:1017C000DFFAFFE7984800680006002801D5FFE728
:1017D000F8E79448089001F0ACFA17A908700021C6
:1017E000089801F0CDFAFFE78F480068000600284E
:1017F00001D5FFE7F8E78B4801F09BFA17A948707D
:101800001C981DA908180D2242701C9808180A215E
:10181000817005203E90FFE71C987D2803DBFFE7E1
:1018200001203E90FFE71C98401C1C90ECE07D4896
:10183000002101F0A5FAFFE77B48006800060028B8
:1018400001D5FFE7F8E7774801F073FA3FA9087080
:101850003F981C9A1DAB98540878FF2803D1FFE7E6
:1018600001203E900BE03FA80078FF2806D0FFE75C
:101870003FA801786D4801F0A2FCFFE7FFE71C9844
:101880007D2803DBFFE701203E90FFE71C98401C0A
:101890001C90B9E01DA87D210790FFF773FA079906
:1018A0000A78502A069052D1FFE71DA840785528A3
:1018B0004DD1FFE71DA88078422848D1FFE758495D
:1018C0001DA8FEF773FC199000201A90FFE71A98E4
:1018D00015283BDCFFE752490020FEF767FC199012
:1018E0001A98801E062805902BD805987844007910
:1018F00040008744030B101826261D0040A80A301C
:1019000019990A22FEF730FC04901AE01998007821
:1019100040A9087515E040A8153019990A22FEF76C
:1019200023FC03900DE01998007840A9C87708E0DF
:101930001998FEF75FFCFEF786FC489017201A9076
:10194000FFE7FFE71A98401C1A90C0E758E01DA86F
:101950000078472853D1FFE71DA840784E284ED184
:10196000FFE71DA88078522849D1FFE71DA8C0785D
:101970004D2844D1FFE700201590FFE715981DA9D9
:1019800002900846FEF7FDFB0299814236D2FFE73E
:1019900015981DA9085C2C2808D1FFE71498401C55
:1019A00014901398129015981390FFE7149802283A
:1019B00010D1FFE73D9800280CD1FFE712981DA930
:1019C0000818411C40A80422FEF7CEFB01213D91DE
:1019D0000190FFE714980A280BD1FFE740A8001DEB
:1019E00012991DAA5118491C0622FEF7BDFB009052
:1019F00004E0FFE71598401C1590BFE7FFE7FFE7FD
:101A000016A801210170FFE773E640A80B991CC8D6
:101A10001CC11CC81CC11CC81CC149B0F0BDC046BB
:101A20008E49000800300140083001400038014074
:101A3000F0B5BBB032A82421FEF78BFBC1483A9029
:101A40002EA801210170FFF7E7FDBF480168402281
:101A500011430160FFF7C8FD962002F09DF8239026
:101A6000FFF7CAFD7D20800002F096F82290FFF774
:101A7000DBFD00212D91B5492190084602F0BCF80C
:101A8000FFE7B3480068C007002809D1FFE73A988C
:101A9000B049FEF7CAFB01210028209106D1FFE7DB
:101AA00032A8007A414248412090FFE72098C007C1
:101AB000002825D0FFE7349B339A32993598369C1D
:101AC000379D389E399F1F903A981E9068461D900A
:101AD0001E981C911D9948610F61CE608D604C600D
:101AE0001F98086024A81B901C99FFF7CDFD32A811
:101AF0001B991CC91CC01CC91CC01CC91CC0C0E748
:101B000091480168402291430160FFF77FFD3A98B8
:101B10009049FEF77CFB002810D1FFE72EA800219A
:101B2000017032A88C4941820182C1818181418149
:101B300015300A213022FEF705FBFFE732980A2113
:101B40000A46424332A84378D218844BD21830ACAC
:101B5000227182780D465543C278AA18D218627154
:101B6000339A0C4654434279A218D2182FACA27073
:101B700082790D465543C279AA18D2186270349AF8
:101B80005143407A0818C018E0706078022806DCDB
:101B9000FFE72FA8C1784A1EC2701A9104E02FA84F
:101BA000C078801E1A90FFE71A982FA98A7810181B
:101BB0008870487817224243092019901046199AD4
:101BC00018911146FEF794FA18998A788018CA7805
:101BD0009308C018001D642117901046FEF788FA7C
:101BE0001799081A0721FEF799FA189A1170D178F7
:101BF0002C2916901AD0FFE72FA8C078012815DBF2
:101C0000FFE72FA8C078632810DCFFE731993098F0
:101C10002FAA137854782402E3189478D278120209
:101C200012191204D21801F0F9FE68E030A82FA9A9
:101C30001590149101F08CFE159800790A211391EA
:101C4000FEF756FA303032A9087015980079139AC9
:101C500012911146FEF74CFA30221143129B597033
:101C600015990C791190204613991092FEF740FABD
:101C7000303012998870159800791399FEF738FA68
:101C8000109A1143129BD97014998C780F902046AA
:101C90001399FEF72DFA3030129908711498807854
:101CA0001399FEF725FA109A1143129B5971149952
:101CB0004C780E9020461399FEF71AFA303012999C
:101CC0008871149840781399FEF712FA109A11430C
:101CD000129BD9711499CC780D9020461399FEF778
:101CE00007FA3030129908721498C0781399FEF7E9
:101CF000FFF9109A1143129B59720C90FFE72EA81E
:101D0000007801281BD1FFE7359B349A339932982C
:101D1000369C379D389E399F0B903A980A906846BA
:101D200009900A98089109990861CF608E604D600A
:101D30000C600B980899FFF733FB0790FFE7002032
:101D40003BB0F0BD804FC34700300140307500000C
:101D5000100000400000964230300000F0FDFFFF10
:101D6000FFE7FEE784B0014603900398064A136834
:101D7000034313601068039A104002900298019187
:101D8000009004B07047C0463810024084B001464D
:101D900003900398064A1368034313601068039A7C
:101DA0001040029002980191009004B07047C04624
:101DB0003410024009480068012108407047C046BD
:101DC00082B0014601900548026801239A43019BB5
:101DD0001A430260009102B07047C04600200240E2
:101DE00080B588B00A46034607900691002005900A
:101DF000049003920293FFE7069800680599C84093
:101E0000002845D0FFE706980068059901228A401E
:101E1000104004900498002836D0FFE707980499F2
:101E2000069A526800F092F806984068012805D09A
:101E3000FFE706984068022807D1FFE70798049952
:101E4000069A926800F0CAF8FFE707980499069A84
:101E5000126900F0AAF806984068022813D1FFE73B
:101E60000498FF2807D8FFE707980499069A526953
:101E700000F031F806E007980499069A526900F0DC
:101E800047F8FFE7FFE7FFE70598401C0590B3E739
:101E900006984068012805D0FFE7069840680228A8
:101EA0000AD1FFE7079806990A68C96801911146A7
:101EB000019A00F064F8FFE7002008B080BD84B00C
:101EC0000A460346039002910298039988620192A0
:101ED000009304B0704770B586B013460C460546B3
:101EE0000590049103920598006A04990A465243AA
:101EF0000E46564371430F224A439043039A4A4386
:101F000010430599086202930194009506B070BDD4
:101F100070B586B013460C460546059004910392B1
:101F20000598406A0499090A0A4652430E465643E8
:101F300071430F224A439043039A4A431043059941
:101F4000486202930194009506B070BDB0B586B0AA
:101F500013460C46054605900491039205980068C7
:101F60000499494303224A439043039A4A43104346
:101F70000599086002930194009506B0B0BDB0B514
:101F800086B013460C4605460590049103920598C9
:101F9000406804998843039A4A431043059948606E
:101FA00002930194009506B0B0BDB0B586B013465B
:101FB0000C4605460590049103920598C068049963
:101FC000494303224A439043039A4A4310430599E5
:101FD000C86002930194009506B0B0BDB0B586B05C
:101FE00013460C46054605900491039205988068B7
:101FF0000499494303224A439043039A4A431043B6
:102000000599886002930194009506B0B0BD000068
:1020100084B0014603900398064A13680343136093
:102020001068039A1040029002980191009004B049
:102030007047C0462C10024080B582B00146019026
:1020400001987D22D2000091114600F003F802B001
:1020500080BD000080B584B00A460346039002911B
:102060000398029901920093FEF742F8401E054939
:10207000086005480021016004480521016004B0A2
:1020800080BDC04614E000E018E000E010E000E091
:102090000A48016801221202114301607047C046DC
:1020A00082B001460190054802680323DB029A438F
:1020B000019B1A430260009102B07047007000401B
:1020C000D248016801229204114301607047C04662
:1020D000CE4801680122D204114301607047C04616
:1020E000D2480068F02108407047C046CF480068D9
:1020F0000721090208407047CC4800680721C9023F
:1021000008407047C94800680C2108407047C04625
:10211000C64800680C2108407047C04680B582B0B0
:1021200001460190009101F085FB0199086001983A
:10213000006801F045FB019948600198406801F092
:1021400053FB019988600198406801F05FFB019999
:10215000C86002B080BD000080B586B00146059021
:102160000020049005980328039139D1FFE70598D2
:1021700000F084F83D4940180328029027D80298BF
:1021800078440079400087442101051701F052FB93
:10219000049024E000F07EF800280CD0FFE700F067
:1021A0007FF8002803D0FFE73248049002E030486F
:1021B0000490FFE7FFE712E000F088F8002804D061
:1021C000FFE70120C0030490FFE708E0FFE701F00C
:1021D00031FB01F0F5FA01F019FB0490FFE7FFE78E
:1021E00005980C283FD1FFE7059800F047F82249F1
:1021F00040180C2801902DD80198C04678440079E9
:102200004000874426272727062727270A2727272E
:102210001C0001F00FFB049024E000F03BF80028C4
:102220000CD0FFE700F03CF8002803D0FFE711488E
:10223000049002E00E480490FFE7FFE712E000F090
:1022400045F8002804D0FFE70120C0030490FFE711
:1022500008E0FFE701F0EEFA01F0B2FA01F0C4FA8B
:102260000490FFE7FFE7049806B080BD0000FDFF83
:102270000024F40000093D000000F4FF82B0014694
:10228000019073480068019A1040120410430091B5
:1022900002B0704723480068042108408008704756
:1022A000204800681021084000097047574801681D
:1022B00001221202114301607047C0465348006872
:1022C000012149020840400A7047C0464F48006853
:1022D000012149020840400A7047C04682B00146C9
:1022E00001904A4802680323DB029A43019B1A4388
:1022F0000260009102B070470A4801680122120290
:10230000114301607047C046164800680721490321
:102310000840704703480068012149020840400A0C
:102320007047C0460010024082B0014601900D483F
:102330000268FF231B069A43019B1B06D21802600A
:10234000009102B07047C04682B001460190054836
:10235000026807235B039A43019B1A4302600091C2
:1023600002B070470410024030480068032189051C
:10237000084070472D480068012109040840704753
:102380002A4800680F218904084070471F480168E7
:102390000122D204914301607047C04682B00146D9
:1023A000019022480268F0239A43019B1A4302607D
:1023B000009102B07047C04682B0014601901B48B0
:1023C000026807231B029A43019B1A430260009193
:1023D00002B0704782B0014601901448026807239A
:1023E000DB029A43019B1A430260009102B07047DE
:1023F00082B0014601900548026803231B049A43FA
:10240000019B1A430260009102B0704750100240D5
:1024100082B0014601900548026803239A43019B5C
:102420001A430260009102B07047C0460C1002408F
:1024300010B582B00146019005480268019B1C0C52
:10244000A2439BB21A430260009102B010BDC04685
:102450004C10024082B0014601900198826801232D
:102460001B029A438260009102B0704782B001461D
:1024700001900198826801231B021A438260009137
:1024800002B0704784B00A46034603900291039855
:10249000C06905490840029908430399C86101923F
:1024A000009304B07047C0467F7F7F7F84B00A46A8
:1024B0000346039002910398C0697F21884302A9D3
:1024C000097808430399C8610192009304B07047EA
:1024D00082B0014601900198C06880221040A0227D
:1024E000D2438018019AD060009102B0704700007A
:1024F000F0B58BB0109C1D4616460F460590049013
:1025000005980A900991089207930999490310AA1E
:1025100012781204114307AA12781202114308AA72
:102520001278891806910A994968064A1140069A54
:1025300011430A9A516003940295019600970BB0DB
:10254000F0BDC046C00000FF83B001460290029873
:1025500040683F221040019001981040009103B064
:10256000704783B001460290029840683F221040B5
:10257000019001981040009103B0704783B001466C
:102580000290029840681F221202104001900198A8
:102590001040000A009103B0704783B001460290DA
:1025A000029840681F2212021040019001981040CA
:1025B000000A009103B0704782B001460190019873
:1025C000406880B2400B009102B0704782B0014673
:1025D00001900198406880B2400B009102B07047B2
:1025E00083B00146029002984068FF221204104016
:1025F000019001A88078009103B0704783B0014634
:10260000029002984068FF2212041040019001A835
:102610008078009103B07047B0B58EB013460C4679
:1026200005460D900C910B920AA8012101700C989F
:1026300000280993089407950DD1FFE70B9840787F
:10264000C006002807D5FFE70B984178EF2211401C
:102650000A314170FFE70C98002801D1FFE700E044
:10266000FFE70D9800F076F80D9800F09BF8012830
:1026700051D0FFE70C9800280ED0FFE70D980B997A
:102680000A788B784C78C9786D46296011461A46CD
:102690002346FFF72DFF2AE00D980B990A788B78D7
:1026A0000A24069018460591214604920394FDF7EA
:1026B0001FFD00010843C2B20598407803990292B9
:1026C000FDF716FD00010843C3B20598C0780399D1
:1026D0000193FDF70DFD00010843C0B26946086093
:1026E00006980499029A019BFFF702FFFFE70D4845
:1026F00000F01AF80D9800F0EBF8002806D1FFE77B
:102700000D9800F043FA0AA9087003E00AA8002116
:102710000170FFE7FFE70D9800F03BF80AA800788A
:102720000EB0B0BD0028004082B001460190019873
:102730008022D243C260009102B0704782B001464D
:1027400001900198CA22426201985322426200918C
:1027500002B0704782B0014601900198CA224262DD
:10276000019853224262009102B0704782B0014644
:10277000019001980022D243C260009102B07047DC
:1027800082B0014601900198FF224262009102B09E
:10279000704782B0014601900198FF224262009189
:1027A00002B0704780B586B0014605907D20C0001C
:1027B000049003A8002202700598019100F072F8BD
:1027C000002830D1FFE70598FFF7D0FF059800F00B
:1027D00069F80290FFE7049800210028009106D0D4
:1027E000FFE70298401E411E88410090FFE70098D5
:1027F000C007002816D0FFE700F0D2FA012804D164
:10280000FFE70498401E0490FFE7059800F04AF89F
:1028100002900498002804D1FFE703A80121017069
:10282000FFE7D8E7FFE703A8007806B080BD82B0D5
:10283000014601900198806840221040009102B04A
:10284000704780B586B00A4603460590049103A8F8
:1028500001210170059802920193FFF77BFF059813
:10286000FFF7A0FF012816D0FFE705980499096833
:1028700000F04CF805980499896800F059F805981B
:102880000499496800F02FF80598FFF74DFF03A859
:1028900000210170FFE70598FFF77BFF03A8007890
:1028A00006B080BD82B0014601900198C068402208
:1028B00010408009009102B0704782B0014601903B
:1028C0000198C068202210404009009102B0704772
:1028D00082B0014601900198806820221040400992
:1028E000009102B0704784B00A46034603900291FB
:1028F000039800697F210904884302990904084369
:10290000039908610192009304B0704784B00A46AD
:1029100003460390029103988068402188430299FE
:102920000843039988600192009304B07047000047
:1029300084B00A4603460390029103980069054952
:10294000084002990843039908610192009304B07A
:102950007047C0460080FFFFF0B58BB0109C1D464D
:1029600016460F460590049005980A900991089222
:102970000793099908AA12781204114307AA12783A
:102980001202114310AA1278114306910A9909689C
:10299000054A1140069A11430A9A11600394029560
:1029A000019600970BB0F0BD808080FF82B0014699
:1029B000019001980068012292051040009102B038
:1029C000704783B001460290029800683F221204CB
:1029D0001040019001981040000C009103B0704726
:1029E00083B001460290029800683F221204104012
:1029F000019001981040000C009103B0704783B023
:102A000001460290029800687F2212021040019055
:102A100001981040000A009103B0704783B001464E
:102A20000290029800687F221202104001900198E3
:102A30001040000A009103B0704783B00146029035
:102A4000029800687F221040019001981040009188
:102A500003B0704783B001460290029800687F225D
:102A60001040019001981040009103B070470000A1
:102A7000B0B58EB013460C4605460D900C910B92E6
:102A80000AA8012101700C98002809930894079561
:102A90000CD1FFE70D98FFF7CAFE002801D0FFE731
:102AA00003E00B9800210160FFE70BE00D98FFF7B2
:102AB000BEFE002801D0FFE703E00B980021016073
:102AC000FFE7FFE70D98FFF745FE0D98FFF76AFE59
:102AD000012851D0FFE70C9800280ED0FFE70D9891
:102AE0000B990A680B794C7989796D4629601146F2
:102AF0001A462346FFF730FF2AE00D980B990A6823
:102B00000B790A24069018460591214604920394F5
:102B1000FDF7EEFA00010843C2B205984079039927
:102B20000292FDF7E5FA00010843C3B205988079E7
:102B300003990193FDF7DCFA00010843C0B269462E
:102B4000086006980499029A019BFFF705FFFFE7CA
:102B50000D48FFF7E9FD0D98FFF7BAFE002806D1F2
:102B6000FFE70D9800F012F80AA9087003E00AA820
:102B700000210170FFE7FFE70D98FFF70AFE0AA8A2
:102B800000780EB0B0BDC0460028004080B58AB0C5
:102B9000014609907D20C000089007A8002202701D
:102BA00009980591FFF794FC0998FFF786FE0690B7
:102BB000FFE708980021002804910BD0FFE7069852
:102BC000012100280390029101D1039802900298FC
:102BD0000490FFE70498C007002816D0FFE700F034
:102BE000DFF8012804D1FFE70898401E0890FFE7AE
:102BF0000998FFF762FE06900898002804D1FFE7C5
:102C000007A801210170FFE7D3E707A80078012892
:102C100030D0FFE77D20C00008900998FFF74DFEF7
:102C20000690FFE7089800210028019106D0FFE7F1
:102C30000698401E411E88410190FFE70198C00799
:102C4000002816D0FFE700F0ABF8012804D1FFE719
:102C50000898401E0890FFE70998FFF72EFE06909F
:102C60000898002804D1FFE707A801210170FFE7B9
:102C7000D8E7FFE707A800780AB080BD80B586B026
:102C80000A4603460590049103A8012101700598A6
:102C90000292019300F042F8002833D1FFE7059833
:102CA00000681D49084004990A684B681A438B68FC
:102CB0001A43CB681A430B691A434B691A438B6951
:102CC0001A43CB691A43096A0A43104305990860FD
:102CD00005984068042188430499C98A08430599E6
:102CE00048600498006A01214903884206D1FFE741
:102CF00005980499496A00F025F8FFE703A8002128
:102D00000170FFE70598C1690122D2029143C161B8
:102D100003A8007806B080BD4000FFFF82B00146E6
:102D2000019001980068402210408009009102B093
:102D3000704782B0014601900198C068C0B200910E
:102D400002B0704784B00A4603460390029102A87D
:102D50000088039908610192009304B0704784B021
:102D60000A46034603900291039840681021884365
:102D700002990843039948600192009304B0704798
:102D800085B00A460346049003A8017004980C30ED
:102D900002900398029908700192009305B0704761
:102DA0000E480068012109040840000C7047C04625
:102DB00082B00146019001980428009106D1FFE7F6
:102DC0000648016804221143016005E003480168D8
:102DD000042291430160FFE702B0704710E000E079
:102DE00082B0014601900198024A1060009102B041
:102DF0007047C0460C00002082B001460190019847
:102E0000026880239A430260009102B0704782B04A
:102E1000014601900198826880239A438260009164
:102E200002B0704782B001460190019842690123C7
:102E30001A434261009102B07047000080B586B02D
:102E40000A4603460590049105980068039005988A
:102E5000012189078842029201930FD0FFE705986C
:102E6000234988420AD0FFE705982249884205D0C5
:102E7000FFE705982049884208D1FFE703987021B1
:102E800088430499496808430390FFE705980121A6
:102E9000890788420FD0FFE70598154988420AD074
:102EA000FFE705981349884205D0FFE705981249C6
:102EB000884209D1FFE70398032109028843049956
:102EC000C96808430390FFE70398059908600598CF
:102ED0000499896800F012F805980499098800F0AF
:102EE0002DF80598FFF79EFF002006B080BDC04674
:102EF00000040040000801400014014084B00A466C
:102F000003460390029102980399C86201920093CC
:102F100004B0704784B00A460346039002910398B8
:102F20008068054908400299084303998860019226
:102F3000009304B07047C046F8BFFFFF84B00A4654
:102F400003460390029102980399886201920093CC
:102F500004B0704784B00A46034603900291039878
:102F600040687021884302990843039948600192A0
:102F7000009304B0704782B0014601900198426806
:102F80000923DB029A434260019882682A239A430C
:102F90008260009102B0704782B0014601900198B2
:102FA000026801239A430260009102B0704782B028
:102FB000014601900198826801231B031A43826035
:102FC000009102B0704782B00146019001980268FA
:102FD00001231A430260009102B0704780B58CB0A3
:102FE0000A4603460B900A9109A8012101700020AE
:102FF00008900B980392029300F06CF800285FD1C0
:10300000FFE70B980068304908400A994A68CB6886
:103010001A430B691A4389690A4310430B990860E4
:103020000B980A99896800F0ABF80B980A994969DE
:1030300000F094F80B98A649884205D1FFE70320D9
:10304000FFF78AF8089023E00B982049884205D1C1
:10305000FFE70C20FFF780F8089018E00B989D49D7
:10306000884206D1FFE704A8FFF758F806980890B1
:103070000CE00B981649884206D1FFE704A8FFF739
:103080004DF80698089000E0FFE7FFE7FFE7FFE74D
:103090000898002813D0FFE70A98006800280ED08F
:1030A000FFE709A8002101700B9808990A9A936913
:1030B000126801921A46019B00F016F8FFE7FFE73D
:1030C00009A800780CB080BDF369FFEF0044004010
:1030D0000050004082B00146019001980068012232
:1030E0001040009102B07047F0B58BB01C461546F9
:1030F0000E4607460A900991089207930898012105
:10310000C9038842049403950296019718D1FFE7FA
:103110000998400007994A088018FCF7E9FF80B237
:10312000069006980C490840059006980E21084024
:10313000400805990143059105980A99C86009E07E
:10314000099807994A088018FCF7D2FF80B20A99BB
:10315000C860FFE70BB0F0BDF0FF000084B00A4686
:103160000346039002910398806803210902884373
:1031700002990843039988600192009304B0704754
:1031800084B00A46034603900291039840680321E5
:103190000903884302990843039948600192009308
:1031A00004B0704784B00A460346039002A8017039
:1031B0000078039988620192009304B0704784B04C
:1031C0000A460346039002A80170007803998862BA
:1031D0000192009304B0704710B592B00020119096
:1031E00010900F900E900D900C9001210D910E906B
:1031F0000F900222109204230C9305231B070CACA2
:103200000B9018460A912146099208930794FEF7FD
:10321000E7FD10210C910899069008460799FEF7E2
:10322000DFFD0A99CA020C92089A05901046079988
:10323000FEF7D6FD0A990A030C92089A04901046EC
:103240000799FEF7CDFD0A990C91764A0390104636
:1032500007990292FEF7C4FD09990C91029A019018
:1032600010460799FEF7BCFD04490A68044B1A4052
:103270000A600B990090084612B010BD140000506F
:10328000EB67FFFFB0B5FEF7C1F9CC4801684022FB
:10329000914301600E4801680122D3431940016047
:1032A0000C490C681C400C600B490C6804252C432D
:1032B0000C600A490C680225AC430C6008490C6894
:1032C0001C400C600168114301600020B0BDC04685
:1032D00000380140004C004010ED00E0007000405C
:1032E0000470004010B598B000201790169015900B
:1032F000149013901290042111900846FEF788FE56
:1033000001201090FEF784FE0220FEF781FE0520CA
:10331000000708210F900E91FEF7D1FD10980102D1
:103320000F980D91FEF7CBFD3E480C900E99FEF7DD
:10333000C6FD10200C990B9008460B99FEF7BFFDB7
:1033400020200C990A9008460A99FEF7B8FD0E98BD
:10335000129010991391119A14921592169212AB21
:103360000F9819460993FEF73BFD0D991291109A9B
:103370001392119B1493159316930F9C089020465B
:103380000999FEF72DFD0E991291109A1392119B37
:103390001493159316930C9C079020460999FEF7F9
:1033A0001FFD0B991291109A1392119B1493159370
:1033B00016930C9C069020460999FEF711FD0A9978
:1033C0001291109A1392119B1493159316930C9CBF
:1033D000059020460999FEF703FD402112911199AD
:1033E000139116910C9A049010460999FEF7F8FC77
:1033F000802112911199139116910C9A0390104605
:103400000999FEF7EDFC1099CA031292119A1392D2
:1034100016920F9B029018460999FEF7E1FC019065
:1034200018B010BD0004005010B590B000200F90EF
:103430000E900D900C900B900A900990FEF740FEB4
:1034400002200890099900F073F9089800F060F9DB
:1034500009980D907F210E91FF210F9113490DAA1C
:10346000084607911146FFF7ECF90BA9099A0A7172
:103470004A718A710123079C0690204605911946DE
:10348000059A0493FFF7F4FA0AA9049A0A704A709D
:10349000099BCB70079C0390204602911146029A2B
:1034A000FFF7BAF8019010B010BDC04600280040E8
:1034B00070B59EB014A828210D90FCF74AFE00209C
:1034C00013901290119010900F900E9001210A030A
:1034D0000C9010460B91FEF759FC0B98FEF798FDE7
:1034E00020200E9002200F90032110910C9A11922F
:1034F0001292139205231B070EAC0A9018460991ED
:10350000214608930794FEF76BFC40210E910A9A1E
:103510000F92099B10930C9C119412941394089D84
:1035200006902846079E05913146FEF759FC8021FA
:103530000E910A990F91099A10920C9B1193129374
:103540001393089C049020460799FEF749FC042138
:10355000C943192203901046029200F0E9F802983C
:1035600000F0D6F80C98149041218900159116901E
:10357000179018900B994A02199210221A921B90D8
:103580001C9007221D920D4A10460D990192FFF7DB
:1035900075FB0199009008460C99FFF7E0FB019834
:1035A0000168059A1140402906D0FFE703480168E9
:1035B000402211430160FFE71EB070BD00300140A2
:1035C00080B58AB0002009900890079006900121EC
:1035D000059008460491FEF7C5FB0520C1430F2066
:1035E000039000F0A5F8039800F092F806A805995A
:1035F0000180079108910991049A93070290184657
:1036000002990193FFF71AFC019900900846FFF711
:10361000F3FB01980599FFF77DFC01980599FFF7E9
:1036200099FC0198FFF7F3FB0AB080BD70B59AB022
:1036300000201990189017901690159014901390E0
:103640001290119010900F900E900D9001218A030E
:103650000C9010460B91FEF799FB0B98FEF7D8FCE7
:103660000B9841020D9102210E9103220F920C9BA7
:10367000109311930424129405252D070DAE2846AE
:103680000A9131460992089407950696FEF7A8FB21
:103690000B998A020D920A9A0E92099B0F930C9C29
:1036A00010941194089D1295079E05903046069936
:1036B000FEF796FB0621C9431B2204901046039295
:1036C00000F036F8039800F023F84B20C001139067
:1036D0000C981490159016900C2117911890199031
:1036E000094913AA084602911146FFF777FC02998F
:1036F00001900846FFF75BFC0298FFF73CFC02983C
:10370000FFF761FC1AB070BD00380140704700003F
:1037100082B0014601AA107010781F2210400122C9
:10372000824002480260009102B0704700E100E070
:1037300070B584B00A46034603AC2070029120782D
:1037400040B20028019200931BDAFFE703A801783A
:103750000F22114008390323DB431940164C095945
:10376000007840B28507ED0EFF26AE40B143029EC1
:10377000B601F6B2AE40314310400838184001514E
:1037800016E003A8017849B20322D2431140094B45
:10379000C958007840B28407E40EFF25A540A9432C
:1037A000029DAD01EDB2A54029431040C150FFE795
:1037B00004B070BD00E400E01CED00E070470000C4
:1037C00080B584B001460390039802910190FEF702
:1037D00087FCC0B200090349085C0199C140084652
:1037E00004B080BD2C49000880B584B00146039028
:1037F000039802910190FEF779FC000A0C49085CDD
:103800000199C140084604B080BDC04680B584B06F
:1038100001460390039802910190FEF76DFCC00AE7
:103820000349085C0199C140084604B080BDC04608
:103830003C49000880B582B0FEF76AFC01460C28BE
:10384000009128D80098C046784400794000874409
:10385000062222220F2222221B2222221E00FEF7F3
:1038600053FD400B401C01218140C80301901BE027
:10387000FEF716FD002803D0FFE72448019002E080
:1038800021480190FFE70FE0214801900CE000F093
:103890000FF8019008E0FEF737FD400B401C0121B6
:1038A0008140C8030190FFE7019802B080BDC04687
:1038B00080B584B0FEF75EFD0290029800280CD11E
:1038C000FFE7FEF7EDFC002803D0FFE70F48039069
:1038D00002E00D480390FFE702E00D480390FFE788
:1038E00003980190FEF74CFD800C0A49085C019991
:1038F00048430090FEF738FD800D411C0098FCF70E
:10390000F7FB04B080BDC0460024F40000093D0070
:1039100000127A00444900080A480068C0050028DF
:103920000ED5FFE7084801210160064802680B0236
:103930009A4302600548026849040A430260FFE7AF
:103940007047C0460C2800405C0000201404014071
:1039500080B586B00A46034605900491424803901C
:1039600002920193FFF73CF8059908710398FFF75D
:1039700055F8059948710398FFF76CF80599887117
:103980000398FFF713F8059908600398FEF7E9FD1F
:10399000049988700398FEF700FE04994870039814
:1039A000FEF72CFE0499C8700398FEF70FFE0499E9
:1039B000087006B080BDC04680B582B02A4801902C
:1039C000FEF7BCFE0198FEF745FD10480168052290
:1039D00092021143016009210198FEF767FD0C492D
:1039E0000198FEF74FFD0198FEF740FD0198FEF7A4
:1039F000C7FE0848016801225204114301600648CD
:103A000001681143016002B080BDC0460828004033
:103A100000808080000401400804014070B58CB033
:103A20000B46044615460B910A90100E09A9C87062
:103A3000100C8870100A48700A700B4800220AAEF9
:103A40000890079111460692324605930494039517
:103A5000FFF70EF80899029008460699079AFEF7B4
:103A6000DBFD01900CB070BD00280040704770472E
:103A7000704780B584B00020FEF7A2F9FEF79AF9EE
:103A8000002803D0FFE7FDF79CFBFFE70120C00201
:103A9000FEF706FBFEF730FCFFE7FEF73BFC0128D4
:103AA00001D0FFE7F9E701208003FEF74DFC00207D
:103AB0000390FEF739FCFEF7EBFAFEF709FBFEF781
:103AC00065FC0398FEF70AFCFEF7F0FBFFE7FEF744
:103AD000F5FB012801D0FFE7F9E701200004FEF71C
:103AE00087FCFEF7EDFA00200290FEF757FC0298E3
:103AF000FEF762FC0298FEF76DFC0298FEF788FC68
:103B0000FFE7FEF7FFFA002801D0FFE7F9E7012001
:103B100080040190FEF790FA0420FFF749F901981C
:103B2000FFF75EF903200004FEF782FC04B080BDBD
:103B300010B51148016801221302194301600F49B1
:103B40000B680F4C23400B6003680E4C234003604E
:103B50000D4B1C6894431C6003689404A3430360EA
:103B60000868FD231B049843086008480021016091
:103B7000D0060749086010BD001002400C1002403A
:103B80000C40FF88F6FFF6FE0810024010100240BD
:103B900008ED00E07047000082B0014601AA1080E5
:103BA0001F48002303601F48036010881E4A1060EE
:103BB000012082071368034313600091FFE7184850
:103BC0000068C007002801D1FFE7F8E7002002B035
:103BD0007047C046064801680122114301608320F6
:103BE0004000044908609007016811430160704774
:103BF000381002402800004082B0014601AA10801F
:103C0000074800230360074803601088064A1060D5
:103C100001208207136803431360009102B07047CC
:103C200010000040240000402C0000400E480068B6
:103C30000007002806D5FFE70B48016808229143DA
:103C400001600FE00948006809490A68094B985467
:103C50000868401CC217920E82183F239A43801AAC
:103C60000860FFE77047C0461C3801402438014017
:103C700058000020100000207047000080B58EB072
:103C800000200D9001210A9008460991FEF77EF868
:103C900009980007FEF766F8FFF7EBFE72B6FFF72C
:103CA00021FBFFF7C1FBFFF787FEFFF701FCFFF7E2
:103CB00087FCFFF7BBFC32480890FFF76DF90898C6
:103CC0000168202211430160FFF77DF962B6FFF71A
:103CD00081FF0998FFF760FF0790FDF797FCFDF75C
:103CE00083FCFFF779FA0A990C910B910690FDF786
:103CF000A1FA0A219D4A059008461146FDF720FACF
:103D00000490FDF75FFA0390FFE7FCF779FE0028C7
:103D100013D0FFE7FCF71EFE00280DD0FFE7FFE7FA
:103D2000FCF76EFE002806D0FFE7FCF72DFFFCF73E
:103D3000F7FE0290FFE7FFE7FFE712480068400642
:103D4000002818D5FFE710480068012808D1FFE7D0
:103D50000CA80BA900F01AF80B4800210160FFE73E
:103D60000C98002806D0FFE7FDF762FE00210C91B9
:103D70000190FFE703E0FFF785FA0090FFE7C4E753
:103D800000380140100400505C00002070B5AAB05B
:103D90000A460346299028911FA8002101701EACF5
:103DA000217001256B4E1D9129461C9232461B93B2
:103DB0001A941995FDF716FA674A1A991890084649
:103DC0001999FDF70FFA6549097827AA1170644916
:103DD000097826AB19706349097825AB19706249D7
:103DE000097824AB19706149097823AB197021A9AE
:103DF00020AB1790084619461692FFF7A9FD1698B2
:103E0000017800291D9915910ED0FFE720A80078B0
:103E100001210A468240002A1492139101D114987C
:103E2000139013981590FFE71598C007002817D036
:103E3000FFE721A8007926A9097888420BDBFFE774
:103E400021A8007925A90978884204DAFFE7289893
:103E50000121016003E0289800210160FFE703E0F1
:103E6000289800210160FFE721A80079002826D1C9
:103E7000FFE721A84079002821D1FFE729980121F7
:103E8000016022981FA9087021A840791EAA10700D
:103E900012911192FDF7CEF912990A782D491090DE
:103EA0001046FDF74DF911990A782B490F901046ED
:103EB000FDF746F90E90FDF785F90D9047E021A832
:103EC000017924AA1278891A1FAA127801230024E2
:103ED000914219460C900B930A94099101DA0A98C1
:103EE000099009980C994A7923AB1B78D21A1EAB1A
:103EF0001B789A420B9A0890079201DA0A98079069
:103F000007980899014221D0FFE729980121016013
:103F100022981FA9087021A840791EAA1070069146
:103F20000592FDF787F906990A780A490490104628
:103F3000FDF706F905990A78074903901046FDF741
:103F4000FFF80290FDF73EF90190FFE7FFE72AB086
:103F500070BDC0463000080831000808000008089D
:103F60000100080802000808030008080400080807
:103F70000FB410B504A9074B02AA039800F0F2F899
:103F8000044602A9002000F089FC204610BC08BCB1
:103F900004B018479D4800082021020C01D01021D0
:103FA0001046020A01D010460839020901D0104615
:103FB000091F820801D01046891E420801D0881EC0
:103FC0007047081A7047000000487047040000203E
:103FD00002E008C8121F08C1002AFAD170477047D2
:103FE000002001E001C1121F002AFBD17047000030
:103FF000F0B51FB486B00998089A030D002102435A
:1040000014D05148514A18185043051411980128EA
:1040100010981AD0281A401C00264D4F4D49009682
:1040200001910490002812DA444211E01198012411
:1040300049A3012801D11098C1430698119A8460C0
:104040000360C26041600BB0F0BD4042E4E704464B
:10405000210500203F4A001C51410391029012E0CB
:10406000E00707D032463B4601990098FCF752FA28
:104070000191009032463B4610461946FCF74AFA39
:1040800006460F466410002CEAD10498039B0028D2
:10409000029A0999089806DAFCF73CFA019B009A03
:1040A000FCF738FA05E0FCF79DFA019B009AFCF753
:1040B00099FA04460E460022284BFCF72BFB03D846
:1040C0000020C043014607E00022254B2046314630
:1040D000FCF76EF9FCF7FEFA102409E0002C0ADB6D
:1040E0000A220023FCF7BAF8079B30321A55641EE7
:1040F00002460A43F2D11122641C079B121B1C19B1
:10410000119B012B03D0012308430ED10AE0084381
:1041100004D0112010900020119077E71098151A04
:104120006D1E0BE01098824202DD00236D1C03E03F
:10413000824201DA00236D1E002BEED00698119901
:104140008260C16030C07EE701FCFFFF104D0000BF
:10415000000014400000F03F300000000000F04379
:104160000000E03FFFB597B00646002518E225287D
:1041700077D100242746FD49049400E00443761CCF
:1041800032780120203A90400842F7D130782A282E
:104190000ED00222307801463039092916D8049908
:1041A0000A235943303940181443761C0490F1E730
:1041B000189802C804911890002904DA01204003DD
:1041C00004434842049002200443761C30782E2891
:1041D00014D1042004437078761C2A2809D1189839
:1041E000761C80C8189009E00A214F43303FC71958
:1041F000761C3078014630390929F5D930786C2899
:1042000010D006DC4C281AD068280ED06A2817D1A6
:1042100004E0742813D07A2812D110E00120400560
:1042200004430CE00121090501E0032109050C43C9
:104230007178814203D1012000052418761C761C78
:104240003078119066280BD013DC58287DD009DC1B
:1042500000287BD04528F6D04628F4D047281AD12C
:10426000A5E118E0632835D0642870D0652812D104
:104270009DE170286CD008DC6728F1D069287BD0DC
:104280006E280DD06F2806D1BAE073282ED075287D
:1042900071D0782859D01A9A199990476D1C7EE1EF
:1042A0006002400F022809D003280DD00428189876
:1042B00001680DD00D60001D189070E11898EA1784
:1042C00001680D604A60F6E7189801680D80F2E712
:1042D0000D70F0E718986A4601781172001D189069
:1042E0000020507202A80090012005E0189802C832
:1042F000189000200091C04361070DD5002101E016
:104300000199491C0191B94212DA8142F8DB009A05
:10431000515C0029F4D10BE0002101E00199491C16
:1043200001918142FADB019A0099895C0029F5D15B
:10433000019904981A9B471A21463846199A00F0A9
:1043400097FA0199401945180BE04FE02CE113E072
:104350004EE0009800990078491C00911A9A19992A
:1043600090470198401E0190401CF2D121463846EA
:104370001A9B199A10E137E00A2000210090019160
:104380006002410F022907D0189A01CA1892C21779
:104390009446032908D00AE01898C01DC108C90036
:1043A00005C91891944607E000B2C2179446042943
:1043B00002D140B2C1178C4600226146944506DA0C
:1043C0000A460021404291418C462D2102E0210500
:1043D00004D52B216A461173012103E0E10701D0C6
:1043E0002021F7E7029155E00A200AE0102008E0BA
:1043F000102000900021042004430191082703E0CD
:1044000008200021019100906002410F022907D08D
:10441000189A01CA189200229446032908D008E08D
:104420001898C01DC108C90005C91891944603E039
:1044300080B2042900D1C0B200210291210729D500
:104440001199702906D0009A1021019B4A401A4305
:1044500005D00EE040216A461173012108E0614653
:10446000014306D030216A4611731199517302211C
:104470000291009A0821019B4A401A430AD16146E1
:10448000014301D1610705D530216A46117301212D
:104490007F1E02911199582904D035A10E910DA9C2
:1044A0000D910DE037A1F9E76146019B009AFBF7FA
:1044B000D5FE0E9B8C469B5C0D9A521E0D9213707E
:1044C00061460143F0D10D9805A9081A20300190EA
:1044D000600703D501200004844300E00127019810
:1044E000874201DD381A00E0002001990090411850
:1044F000029809180498401A0490E00306D4214653
:104500001A9B199A049800F0B3F94519002706E0A0
:1045100003A81A9AC05D199990476D1C7F1C0298D8
:104520008742F5DBE0030CD521461A9B199A0498C3
:1045300000F09EF9451904E01A9A30201999904725
:104540006D1C0099481E00900029F5DC08E00D98CC
:104550000D990078491C0D911A9A199990476D1C74
:104560000199481E01900029F1DC63E1092801004E
:1045700030313233343536373839616263646566D9
:10458000000000003031323334353637383941429B
:10459000434445460000000000F05AF94519761CD6
:1045A0003078002800D0E2E528461BB0F0BD600757
:1045B00000D406271898C01DC108C90048680A68B9
:1045C0000831C30FDB071891190001D09CA108E046
:1045D000210501D59BA104E0E10701D09AA100E0EB
:1045E0009AA1430011985B08109165280CD006DC55
:1045F000452809D046281DD0472841D141E06628EA
:1046000018D067283CD13CE00021112F01DB11209C
:1046100000E0781C0191009008A911A8FFF7E8FCC0
:10462000139905910021119A15927F1C12980197F8
:10463000009150E00120C00703900120019008A9DB
:10464000009711A8FFF7D4FC139A14990592002241
:10465000119B009212981593059A0192002901D09E
:10466000104602E0791C40180190381A01D50198D3
:1046700004E04042401E0090781C0190C01B029054
:1046800043E0012F00DA01270021112F01DD112065
:1046900000E038460191009008A911A8FFF7A8FC96
:1046A00013990591119A0021129815920091019782
:1046B00021070CD40599B94201DB019900E0019171
:1046C000012904DD159A491E515C302906D0B842F3
:1046D00001DA011D05DA0121029115E00199491E57
:1046E000EDE7002805DC0099411800910199091AAD
:1046F00003E0019A411C914200DD01910099401AAA
:10470000401C02900120C0070390200706D40299A4
:104710000198814202DB0020C043029000206946DC
:10472000C87707AF012103980337C907884224D00F
:10473000022011902B201290039800280CDA40429E
:1047400003902D20129007E00A210398FBF7D0FC7C
:1047500030317F1E039039701199481E1190002945
:10476000F2DC03980028EFD1791E12980870307897
:10477000202108404530BF1E387006A8C01BC01D50
:10478000039010980078002800D00120019941186A
:104790000298C0170918039809180498401A401E77
:1047A0000490E00306D421461A9B199A049800F05D
:1047B0005FF8451910980078002803D01A9A1999C3
:1047C00090476D1CE00324D521461A9B199A049842
:1047D00000F04EF845191CE00098002807DB00990E
:1047E0000598884203DD1598405C199901E01999F4
:1047F00030201A9A904700986D1C401C0090029837
:10480000401E0290002804D11A9A2E201999904730
:104810006D1C0199481E01900029DDDC05E0387807
:104820001A9A7F1C199990476D1C0399481E039092
:104830000029F4DC21461A9B199A0498ACE6000082
:104840002D0000002B0000002000000000000000F0
:10485000F8B5044600251E461746880404D405E032
:1048600039462020B0476D1C641EF9D52846F8BD96
:10487000FFB50446002581B01E46C80301D5302788
:1048800000E02027880404D505E038460399B047A6
:104890006D1C641EF9D5284605B0F0BD0A68531C8E
:1048A0000B60107070470040404040404040404026
:1048B00041414141414040404040404040404040F3
:1048C0004040404040404005020202020202020213
:1048D00002020202020202202020202020202020AA
:1048E000200202020202020290909090909010101A
:1048F00010101010101010101010101010101010B8
:10490000101002020202020288888888888808083B
:104910000808080808080808080808080808080817
:104920000808020202024000A74800080000000038
:10493000000000000102030406070809000000004F
:1049400001020304030406080C10182030445441EB
:104950003F004346473F004746473F004750473FD9
:104960000041434B3F0050474D3F0047534E3F00EF
:10497000544D503F004552533F005453543F00257F
:1049800078257825782578257825782578002C00D5
:10499000B04900080000002010000000D03F0008CF
:1049A000C04900081000002050040000E03F00084B
:1049B0000000000000000000003701080000200097
:04000005080000C12E
:00000001FF
