:020000040800F2
:1000000000050020D500000829350008951B0008D0
:1000100000000000000000000000000000000000E0
:100020000000000000000000000000008B38000805
:100030000000000000000000D93500088D380008DD
:10004000E7000008E700000835370008E70000086F
:10005000E7000008E7000008E7000008E7000008E4
:1000600000000000E7000008E7000008E7000008C3
:10007000E7000008E7000008953A0008B1390008D9
:10008000E7000008E7000008E700000800000000A3
:10009000E7000008E7000008E7000008E7000008A4
:1000A000E700000889380008E7000008493A00081E
:1000B000E7000008E7000008000000000000000062
:1000C0000348854600F04CFB00480047FD4300080C
:1000D000000500200448804704480047FEE7FEE78B
:1000E000FEE7FEE7FEE7FEE74D390008C100000825
:1000F00030B50B46014600202022012409E00D46C0
:10010000D5409D4205D31D469540491B2546954047
:1001100040191546521E002DF1DC30BD70B500248B
:100120002546002801DA01244042002901DA012590
:100130004942FFF7DDFFAC4200D04042002C00D026
:10014000494270BD03460B439B0703D009E008C931
:10015000121F08C0042AFAD203E00B780370401C77
:10016000491C521EF9D27047D2B201E00270401C05
:10017000491EFBD270470022F6E710B513460A4627
:1001800004461946FFF7F0FF204610BD10B504469F
:1001900005E00B780370401C002B00D0491C521E58
:1001A000F7D2204610BD421C0178401C0029FBD12B
:1001B000801A704710B5002200E0521C835C8C5CF2
:1001C000A34201D1002BF8D1D8B2E1B2401A10BD40
:1001D00070B5104D002800D12868002414E00A46AC
:1001E00002E09E4203D0521C1378002BF9D1DAB200
:1001F000224307D0002B06D0002C04D00021017030
:10020000401C04E00446401C0678002EE7D128601C
:10021000204670BD0000002070B5064604F088FA44
:10022000046805460A220021304600F059F82C6087
:1002300070BD0122D207002800DB101A002900DB64
:10024000511A814201D801207047002070470122D5
:10025000D207002800DB101A002900DB511A814266
:1002600001D90120704700207047C217C10F5040CC
:1002700010B54018CA079623002100F071F810BD90
:10028000F0B51FB40646002082B005464024019117
:1002900000901BE0019922460F46304600F082FA9A
:1002A000049A059B801A994110D31046194622469C
:1002B00000F068FA361A8F4101972246012000218A
:1002C000009F00F05FFA38184D4100902046641EF0
:1002D0000028DFDC019B00982946324607B0F0BDBC
:1002E000F7B5009C0F4600262578641C002D05D02C
:1002F00000F07CFA0068405DC007F5D12B2D02D0DC
:100300002D2D18D0641E39462046029A00F072FA4C
:10031000002F04D03968A14201D1009939607105DC
:10032000022400290BDA4042002803DD04F000FA21
:100330000460A007FEBD012080020643E3E7002819
:10034000F8DA04F0F5F904600048FEBDFFFFFF7F16
:10035000002904DA401C490001D1400840007047E0
:1003600070B40024050C05D11024000402D100292A
:1003700021D01124050E01D100020834050F01D14E
:100380000001241D850F01D18000A41C002801DB81
:100390004000641C002908D020252E1B0D46F54086
:1003A000A14000D001212943084301061B1B000A7C
:1003B000DB1D02D5002070BC7047DB0518188018C3
:1003C0000029F8DA401C4900F5D170BC4008400013
:1003D00070470000F0B507460846584087B0C00F88
:1003E000049048000E46590040084908BC1A88414C
:1003F00005D2384631461E4617460B46024658007F
:10040000400810434CD0300D039040055900400D7A
:10041000490D0590401A0290402872DA1803012114
:10042000000B09050843019004980092002805D0AC
:100430000199524200208841009201900298402187
:100440000A1A0199009800F09DF905460C466B4682
:1004500007CB00F0B8F9C0197141039A0E0D0023C3
:10046000D71756401A467A40164344D0049A002AB9
:100470002DD0029A012A039A15DC1205C01A914167
:1004800001263605001C7141D20F059ED20700934C
:10049000019202962A46234600F00CFA07B0F0BDFE
:1004A00038463146FAE71605224A0F46B218C01AF6
:1004B000B74101210905001C4F4100187F41114639
:1004C00018187941E20F10436D19644113E0E207F7
:1004D0006D0815436408C2071443039A01261205E8
:1004E000C01A91413605001C7141CE0740083043C7
:1004F0004908C01851412A46234600F0CEF9CDE7FD
:10050000FFE7049801224000C117121A00238B4113
:1005100004983146C417381AA141EEE730B40124DB
:10052000E407634030BC55E730B40124E407614080
:1005300030BC4FE70000E0FFF0B51FB488B00B9966
:100540000998002448400999C00F490049080991B9
:10055000C0070B990090490049080B910999089828
:10056000A64608431CD00B990A98084318D009984E
:1005700001244000420D4800410D09982405000364
:10058000000B204309900B980003000B20430B90B5
:1005900050181C494018002201901446104605E0EE
:1005A000002001460DB0F0BD032801DA034600E04B
:1005B00003239C46C11A0AAE0AE05F0008ADED5B5A
:1005C0004F00F75B7D430027AA187C41491C5B1E46
:1005D0006145F2DD410004AB5A522104120C0A437A
:1005E000240C401C0828DFDB01980290009970461B
:1005F00001910090059B049A0799069800F05AF91A
:10060000D0E700000DFCFFFFF0B50C465C4085B064
:10061000E40FE40703944C00002664085900944654
:10062000490802460296224321D062460A431ED060
:100630006200570D4A000E032303550D01240246A4
:100640002C492405781B1B0B360B401823432643EB
:10065000614600901C46501AB44103D30098401CD8
:10066000009002E0921800985B41002803DA002015
:10067000014605B0F0BD0020012109050746864668
:1006800011E064461D46141BB54106D36546521B56
:10069000B341744607430C43A646CD0740084908BA
:1006A000284392185B4105460D43EAD11046184392
:1006B00013D06046194650407140084306D060464A
:1006C000101AB34106D20122002306E000220123C2
:1006D000DB0702E00122D243531000987446010563
:1006E000381C6141029C039D0019694100F0D5F856
:1006F000BFE70000FD0300004A0009030123090BC6
:100700001B0519430A4B10B5520D9A4202DA00201C
:10071000014610BD064B34339A4203DC9A1A00F0AE
:1007200041F810BD034BD21800F02CF810BD0000AA
:10073000FF030000CDFBFFFF10B5002904DB0124FF
:10074000E40740428C412146002B04DB1C46012378
:10075000DB075242A341994200D1904210BD0000F4
:10076000064C0125064E05E0E36807CC2B430C3C04
:1007700098471034B442F7D3FFF7A6FC2C51000879
:100780004C51000810B5202A04DB0146203A914064
:10079000002010BD914020239C1A0346E3401943DA
:1007A000904010BD10B5202A04DB0846203AD04006
:1007B000002110BD0B46D340D0402024A21A914006
:1007C0000843194610BD10B5202A06DBCB17084692
:1007D000203A1041C1170B4306E00B461341D040AD
:1007E0002024A21A91400843194610BD00487047C2
:1007F00090500008F7B582B0029C00272078641C56
:1008000015460197302802D0002D15D015E020782C
:100810000127641C782804D0582802D0002D09D064
:100820000BE0002D01D0102D07D1002710252078D6
:10083000641C02E0082500E00A250026009610E06E
:100840000099012769430818020C294680B27143B8
:1008500000908E183804864201D301200190207840
:10086000641C294600F078F80028E9DA039800288B
:1008700005D0002F01D0641E00E0029C04600198A6
:10088000002806D003F054FF02210160C81E05B005
:10089000F0BD009930040843F9E710B5002B08DAE1
:1008A0000024401C614192185B411A4301D1400869
:1008B000400010BDF0B51FB482B005460C0003D057
:1008C000084603F01DFF02E003F01AFF2030024645
:1008D000009021462846FFF755FF049B059A0446E1
:1008E0000F4618431143084314D0184610431BD039
:1008F000009840210A1A18460599FFF753FF05464C
:100900000E46009A05990498FFF73CFF084305D06E
:10091000012004E02046394607B0F0BD0020C11791
:1009200005430E432C43374300990E986305401A44
:100930007905E40A00220C43FD0A0A3002D50020A2
:100940000146E9E70105101969410C9C0D9D00194C
:100950006941FFF7A2FFDFE73A2800D230382023B1
:1009600002469A43412A01D310463738884201D3C0
:100970000020C0437047000080B586B001A8002168
:1009800001714C4800680490FFE7049847490968E2
:1009900088423FD0FFE700200390FFE7039802283A
:1009A0000ADCFFE7039801A90A1852780A54FFE706
:1009B0000398401C0390F1E704983D49085C039AB2
:1009C00001AB98540498085C3F2818D1FFE71449FC
:1009D00001A8FFF7EFFB00280CD1FFE71048042126
:1009E00000F038FA0499491CF34A1160012105917D
:1009F000009012E00498401CEF490860FFE7FFE711
:100A00000498401CC117890E41183F229143401A97
:100A10000490BAE700200590FFE7059806B080BD76
:100A2000C95000080120704780B592B0FFE7E14847
:100A30000068E2490818401E00783F2801D0FFE70F
:100A4000F5E7DC480068401EDD49086005A8322152
:100A5000FFF791FB00200490FFE7D7480068D849D2
:100A60000968884215D0FFE7D3480068D349085C7D
:100A700004994A1C049205AA5054FFE7CE48016825
:100A8000491CCA17920E8A183F239A43891A01609B
:100A9000E3E705A80290FFF786FB0299019008465C
:100AA000019903F075F812B080BDC04658000020CF
:100AB000100000205000002080B5A4B0FFE71AA865
:100AC00000F094FC00287CD1FFE71AA802211990BD
:100AD000189100F0BFF92C2117900846169100F0EC
:100AE0009BF919998A1C15901046189900F0B2F9D3
:100AF00016991490084600F08FF919990A1D139061
:100B00001046189900F0A6F916991290084600F0C0
:100B100083F919998A1D11901046189900F09AF9D5
:100B200016991090084600F077F9199908310F903E
:100B30000846189900F08EF916990E90084600F0B4
:100B40006BF919990A310A220D90084611460C9248
:100B500000F080F916990B90084600F05DF919999C
:100B6000143101220A9008461146099200F072F9E8
:100B700016990890084600F04FF919991531079019
:100B800008460C9900F066F916990690084600F0A0
:100B900043F919991F3105900846099900F05AF94F
:100BA00016990490084600F037F90C99039008460E
:100BB00000F032F92121199A02901046FFF7DBFA72
:100BC0007DE73F2000F028F923990190084624B0E2
:100BD00080BD000080B584B0014602900298401E9E
:100BE0000828019100902ED80098C04678440079DA
:100BF00040008744040C081014181C20240000F046
:100C000029FA039023E000F045F903901FE000F07B
:100C10008DF903901BE000F0E7F8039017E0FFF771
:100C200003FF039013E003F01BF903900FE003F0C0
:100C3000FBF903900BE000F0B3FB039007E0FFF734
:100C40003BFF039003E00020C0430390FFE70398BD
:100C500004B080BD80B590B0F84800680D90FB48A6
:100C600000680E90FFE70E980D99884216D0FFE7B6
:100C70000E98F349085C3F2805D1FFE70E98401C09
:100C8000F04908600AE0FFE70E98401CC117890E82
:100C900041183F229143401A0E90E4E70E980D99B7
:100CA000884203D1FFE700200F907FE068463221A1
:100CB000FFF761FA00200E90FFE7E4480068E14981
:100CC0000968884215D0FFE7E0480068DC49085C05
:100CD0000E994A1C0E926A465054FFE7DB480168A1
:100CE000491CCA17920E8A183F239A43891A016039
:100CF000E3E734496846FFF75DFA002803D1FFE7D0
:100D000001200F9052E030496846FFF753FA00285F
:100D100003D1FFE702200F9048E02C496846FFF717
:100D200049FA002803D1FFE703200F903EE028494D
:100D30006846FFF73FFA002803D1FFE704200F9031
:100D400034E024496846FFF735FA002803D1FFE76D
:100D500005200F902AE020496846FFF72BFA00286B
:100D600003D1FFE706200F9020E01C496846FFF7FB
:100D700021FA002803D1FFE707200F9016E0184959
:100D80006846FFF717FA002803D1FFE708200F9005
:100D90000CE014496846FFF70DFA002803D1FFE77D
:100DA00009200F9002E000200F90FFE70F9810B08D
:100DB00080BDC046580000205000002010000020D8
:100DC00054000020E2500008CE500008D85000081F
:100DD000C4500008BA500008BF500008D3500008A3
:100DE000DD500008B550000880B592B004A832214B
:100DF000954A039000F05EFA039902900846FFF7C7
:100E0000D2F9039901900846019900F023F80021D6
:100E10000090084612B080BD80B584B0014603AA98
:100E200010701078094A02901046029A01911146FA
:100E300002F0DCF8FFE7064800684021084040283F
:100E400001D0FFE7F7E7002004B080BD0038014083
:100E50001C38014080B586B00A46034605900491CF
:100E60000020039002920193FFE7039804998842BF
:100E70000DDAFFE705980078FFF7CEFF0599491CCA
:100E800005910090FFE70398401C0390EDE70020D8
:100E900006B080BDF0B595B0DB480C9001F0E7FCE2
:100EA0000EA988710C980B9101F0C3FC0B99487145
:100EB0000C9801F0A0FC0B9908710C9801F05EFAF7
:100EC0000DA988700C980A9101F072FA0A9948707D
:100ED0000C9801F09FFA0A99C8700C9801F086FAF4
:100EE0000A9908700B988279437904798D784E7845
:100EF000CF78087869460861CF608E604D600C60DD
:100F0000C24911A8099003F0E7FB09990890084627
:100F1000FFF749F90999079008460799FFF79AFFE3
:100F200000210690084615B0F0BDC04610B59AB035
:100F300006A83221FFF71FF9FFE7AE480068AE4967
:100F40000818401E00783F2801D0FFE7F5E7A948C0
:100F50000068401EA9490860002019901890179059
:100F600016901590059000F0CDF915A93222364B58
:100F70000490084611461A4600F05BF9139000F001
:100F800089F9059914910390FFE79D4800689B49F2
:100F90000968884215D0FFE7994800689649085CBF
:100FA00014994A1C149215AA5054FFE794480168FA
:100FB000491CCA17920E8A183F239A43891A016066
:100FC000E3E78F480168491C01608C480168491CAF
:100FD0000160179806A90870169800011C4A80182D
:100FE00015AB5C79303C204348709879000180183B
:100FF000DA79303A1043887015980A22144644432F
:10100000587820187F4C0019C87098784243D878D7
:10101000101800190871029100F074F932210A4A7F
:10102000029B0190184600F004F9139000F032F989
:101030001399009008461AB010BDC0465800002011
:10104000100000205400002000000808500000207C
:1010500000FDFFFFF0B59BB0FFE7664800686649FA
:101060000818401E00783F2801D0FFE7F5E76148E7
:101070000068401E6149086000201690FFE7604844
:1010800000685E490968884215D0FFE75C4800683F
:101090005949085C16994A1C169217AA5054FFE742
:1010A00057480168491CCA17920E8A183F239A4371
:1010B000891A0160E3E717A8002181731491179A38
:1010C0000A231C4654434278A2184E4C121914AD00
:1010D000AA7182781E465643C278B21812196A71F4
:1010E000189A1E4656434279B21812192A71464A76
:1010F00012901046119110930F940E950D9201F0DD
:101100003DF913A9887012988279109B5343C279D4
:101110009A180F9BD2188A70199A109C5443427ADD
:10112000A218D2184A70827A109C5443C27AA2182C
:10113000D218CA70027B303A072410460C9121461F
:10114000FEF7ECFF0C9A11700D990B90084611995F
:101150000E9A01F0A7FB0D990A90084611990C9A76
:1011600001F074F90D990990084601F080FB0E9981
:1011700088710D9801F05DFB0E9948710D9801F092
:101180003AFB0E9908710D9801F0F8F80C998870E7
:101190000D9801F00DF90C9948700D9801F03AF98D
:1011A0000C99C8700D9801F021F90C9908700E98EF
:1011B0008279437904798D784E78CF7808786946BA
:1011C0000861CF608E604D600C601049129803F08A
:1011D00083FA129908900846FEF7E5FF12990790E6
:1011E00008460799FFF736FE1199069008461BB08E
:1011F000F0BDC04658000020100000205400002020
:1012000050000020F0FDFFFF00280040E7500008DC
:1012100010B585B00A46034604AC207003910398CC
:10122000029004980299087000200192009305B082
:1012300010BDB0B588B013460C4605460690059122
:10124000049200200390029301940095FFE7039815
:101250000599884217DAFFE7069800780499FFF7A6
:10126000D7FF002804D0FFE70020C04307900DE01F
:101270000698401C06900498401C0490FFE70398D1
:10128000401C0390E3E700200790FFE7079808B0B1
:10129000B0BD7047FFE741480068C007002801D093
:1012A000FFE7F8E78248016801221143016000204E
:1012B0007047C046B0B588B013460C460546079047
:1012C00006910592059803900020049002930194E2
:1012D0000095FFE70498069988420FDAFFE7039824
:1012E0000078079908700798401C07900398401CE5
:1012F0000390FFE70498401C0490EBE7002008B03F
:10130000B0BD000081B06A480068C007002808D05E
:10131000FFE7074807490160074901600020009086
:1013200003E00020C0430090FFE7009801B0704741
:101330000C200240EFCDAB890504030283B00146C7
:1013400001905B4802684123DB001A430260019868
:10135000002202600091FFE710480068C0070028E3
:1013600001D0FFE7F8E70D4800688007002804D5A2
:10137000FFE70A480221016003E00020C043029019
:1013800008E04B4801684122D200914301600020EF
:101390000290FFE7029803B07047C0461820024051
:1013A00080B58AB0304809903248089007A90022D9
:1013B0000A7006900591FFF7A5FF099A08A9042372
:1013C000049008461946FFF734FF039000F054F8E4
:1013D000069902900846FFF7B1FF0190FFF75AFF08
:1013E00005990A78009010460AB080BD10B588B003
:1013F000014606900020059005A804221A4B04918E
:1014000011461A46FFF756FF0699184A136820241A
:1014100003900846214602921A46FFF74BFF0299B5
:101420000A6820320A600A68114B9A42019007D379
:10143000FFE70E480F4901600020C04307900FE00E
:101440000A4800680599884207D9FFE70748094913
:1014500001600020C043079002E000200790FFE7F2
:10146000079808B010BDC046140008080800002006
:10147000FFFF0F080037010881B00D4800688007A2
:1014800000280DD5FFE70B480B4901600B490160AF
:10149000074801680222914301600020009003E0A8
:1014A0000020C0430090FFE7009801B07047C0469D
:1014B0000420024010200240BFAE9D8C161514136C
:1014C0000748016801221202114301607047C046BB
:1014D0000348016801221202914301607047C0462F
:1014E0001400005005480168102211430160704744
:1014F00002480168102291430160704714040050B3
:1015000080B586B0124805901248049012480390A6
:101510001248029000200190FFE701980F2813DC89
:10152000FFE7FFE7F04800680006002801D5FFE765
:10153000F8E7019802A9095CEA4801F03BFBFFE7E4
:101540000198401C0190E8E7002006B080BDC0462D
:101550000100053F010101010800F100B56206012B
:1015600010B5BCB03BA900220A7001213A91399212
:1015700019A97D230D90084619460C92FEF7FBFD34
:101580000C9818901790169012A90870D24924222E
:1015900008460B911146FEF7EEFDD0480B99086204
:1015A0000C9810900F900E90FFE712A8007800287A
:1015B00000D086E13A98401E04280A9000D97FE1C5
:1015C0000A984000784480884000874404007901EC
:1015D00029008C00BF00C348002101F0EBFAFFE7AF
:1015E000C14800680006002801D5FFE7F8E7BD48BC
:1015F00001F0B9FA3BA908700878242805D1FFE763
:1016000003203A9000201890FFE73BA80078B52807
:1016100005D1FFE70020189004203A90FFE74FE142
:10162000B048002101F0C6FAFFE7AF4800680006A5
:10163000002801D5FFE7F8E7AA4801F094FA3BA992
:1016400008703B98189A19AB98540878FF2803D172
:10165000FFE701203A9006E03BA80078FF2801D080
:10166000FFE7FFE7FFE7189819A9085C2A282FD1A0
:10167000FFE79C48002101F09DFAFFE79A480068C7
:101680000006002801D5FFE7F8E79648099001F029
:101690006AFA13A908700021099801F08BFAFFE794
:1016A000914800680006002801D5FFE7F8E78D485B
:1016B00001F059FA13A94870189819A908180D22B1
:1016C0004270189808180A21817005203A90FFE7A7
:1016D00018987D2803DBFFE701203A90FFE7189870
:1016E000401C1890ECE07F48002101F063FAFFE70E
:1016F0007D4800680006002801D5FFE7F8E7794833
:1017000001F031FA3BA908703B98189A19AB98542C
:101710000878FF2803D1FFE701203A900BE03BA8AF
:101720000078FF2806D0FFE73BA801786F4801F05A
:101730006AFCFFE7FFE718987D2803DBFFE701203D
:101740003A90FFE71898401C1890B9E019A87D213D
:101750000890FFF77FFB08990A78502A079053D129
:10176000FFE719A8407855284ED1FFE719A88078DF
:10177000422849D1FFE75A4919A8FEF729FD1590DB
:1017800000201690FFE7169815283CDCFFE7544927
:101790000020FEF71DFD15901698801E0628069065
:1017A0002CD806987844007940008744030B101821
:1017B00027271D00159948480A300A22FEF7E6FC43
:1017C00005901BE0159800784349087516E01599B7
:1017D000414815300A22FEF7D9FC04900EE0159816
:1017E00000783D49C87709E01598FEF715FDFEF72A
:1017F0003CFD3949086217201690FFE7FFE716986D
:10180000401C1690BFE7FFE719A80078472853D17E
:10181000FFE719A840784E284ED1FFE719A8807835
:10182000522849D1FFE719A8C0784D2844D1FFE7D5
:1018300000201190FFE7119819A903900846FEF7C0
:10184000B2FC0399814236D2FFE7119819A9085CCE
:101850002C2808D1FFE71098401C10900F980E908C
:1018600011980F90FFE71098022810D1FFE73998E0
:1018700000280CD1FFE70E9819A90818411C16483A
:101880000422FEF783FC012139910290FFE71098B2
:101890000A280BD1FFE70E9819A90818411C0E4819
:1018A000001D0622FEF772FC019004E0FFE711988C
:1018B000401C1190BFE7FFE712A801210170FFE76C
:1018C00073E605480D991CC81CC11CC81CC11CC866
:1018D0001CC13CB010BDC0465C000020804FC34717
:1018E000F650000800300140083001400038014047
:1018F000B0B5A4B0A04824211790FEF73CFC9F4847
:1019000017990862FFF7F4FDFFF7DAFD962002F061
:1019100051F81690FFF7DCFD7D20800002F04AF8B8
:101920001590FFF7EDFD96491490084602F072F805
:10193000FFE7944800680021C007002813910FD1E9
:10194000FFE78D48006A9049FEF781FC01210028DD
:101950001290119101D11298119011981390FFE7F4
:101960001398C00700280DD0FFE718A81090FFF7C4
:10197000F7FD814810991CC91CC01CC91CC01CC99A
:101980001CC0D6E77C48006A7F49FEF752FC00285D
:101990000DD1FFE778487D4941820182C181818173
:1019A000418115300A213022FEF7DEFBFFE7724845
:1019B00001780A2213464B4341785918744BC918D1
:1019C00022AC2171817815464D43C1786918C91838
:1019D0006171017914464C4341796118C91821ACF1
:1019E000A170817915464D43C1796918C918617094
:1019F000017A4A43407A1018C018E07060780228D3
:101A000006DCFFE721A8C1784A1EC2700F9104E0EE
:101A100021A8C078801E0F90FFE70F9821A98A782F
:101A20001018887048781722424309200E901046FB
:101A30000E9A0D911146FEF75BFB0D998A7880187E
:101A4000CA789308C018001D64210C901046FEF758
:101A50004FFB0C99081A0721FEF760FB0D9A1170D5
:101A6000D1782C290B901AD0FFE721A8C078012843
:101A700015DBFFE721A8C078632810DCFFE7239976
:101A8000229821AA137854782402E3189478D27803
:101A9000120212191204D21801F0CEFE68E022A838
:101AA00021A90A90099101F061FE0A9800790A21A2
:101AB0000891FEF71DFB30302F4908700A98007915
:101AC000089A07911146FEF713FB30221143079B3A
:101AD00059700A990C790690204608990592FEF7EC
:101AE00007FB3030079988700A9800790899FEF74B
:101AF000FFFA059A1143079BD97009998C780490D5
:101B000020460899FEF7F4FA3030079908710998D1
:101B100080780899FEF7ECFA059A1143079B5971F2
:101B200009994C78039020460899FEF7E1FA303085
:101B300007998871099840780899FEF7D9FA059AAB
:101B40001143079BD9710999CC78029020460899D6
:101B5000FEF7CEFA3030079908720998C0780899D4
:101B6000FEF7C6FA059A1143079B59720190FFE7E9
:101B7000002024B0B0BDC04680000020804FC34785
:101B80003075000010000040000096423030000028
:101B9000F0FDFFFFFFE7FEE784B0014603900398E6
:101BA000064A1368034313601068039A10400290BA
:101BB00002980191009004B07047C046381002406E
:101BC00084B0014603900398064A136803431360E8
:101BD0001068039A1040029002980191009004B09E
:101BE0007047C0463410024009480068012108408F
:101BF0007047C04682B00146019005480268012343
:101C00009A43019B1A430260009102B07047C0469C
:101C10000020024080B588B00A460346079006912E
:101C200000200590049003920293FFE70698006855
:101C30000599C840002845D0FFE706980068059937
:101C400001228A40104004900498002836D0FFE713
:101C500007980499069A526800F092F8069840682E
:101C6000012805D0FFE706984068022807D1FFE762
:101C700007980499069A926800F0CAF8FFE7079857
:101C80000499069A126900F0AAF80698406802289A
:101C900013D1FFE70498FF2807D8FFE707980499B6
:101CA000069A526900F031F806E007980499069AFE
:101CB000526900F047F8FFE7FFE7FFE70598401C8F
:101CC0000590B3E706984068012805D0FFE706981D
:101CD000406802280AD1FFE7079806990A68C96890
:101CE00001911146019A00F064F8FFE7002008B066
:101CF00080BD84B00A46034603900291029803997E
:101D000088620192009304B0704770B586B01346A4
:101D10000C4605460590049103920598006A0499C3
:101D20000A4652430E46564371430F224A4390439C
:101D3000039A4A431043059908620293019400955F
:101D400006B070BD70B586B013460C4605460590CA
:101D5000049103920598406A0499090A0A4652437D
:101D60000E46564371430F224A439043039A4A4317
:101D700010430599486202930194009506B070BD26
:101D8000B0B586B013460C46054605900491039203
:101D9000059800680499494303224A439043039AF3
:101DA0004A4310430599086002930194009506B0D8
:101DB000B0BDB0B586B013460C46054605900491FB
:101DC00003920598406804998843039A4A43104354
:101DD0000599486002930194009506B0B0BDB0B576
:101DE00086B013460C46054605900491039205986B
:101DF000C0680499494303224A439043039A4A43E3
:101E000010430599C86002930194009506B0B0BDD7
:101E1000B0B586B013460C46054605900491039272
:101E2000059880680499494303224A439043039AE2
:101E30004A4310430599886002930194009506B0C7
:101E4000B0BD000084B0014603900398064A1368B1
:101E5000034313601068039A1040029002980191A6
:101E6000009004B07047C0462C10024080B582B08C
:101E70000146019001987D22D2000091114600F0A8
:101E800003F802B080BD000080B584B00A46034666
:101E9000039002910398029901920093FEF728F9AA
:101EA000401E0549086005480021016004480521DD
:101EB000016004B080BDC04614E000E018E000E01E
:101EC00010E000E00A48016801221202114301609B
:101ED0007047C04682B0014601900548026803235E
:101EE000DB029A43019B1A430260009102B07047E3
:101EF00000700040D2480168012292041143016041
:101F00007047C046CE4801680122D20411430160E7
:101F10007047C046D2480068F02108407047C0466C
:101F2000CF4800680721090208407047CC48006884
:101F30000721C90208407047C94800680C210840C1
:101F40007047C046C64800680C2108407047C0462C
:101F500080B582B001460190009101F079FB0199B2
:101F600008600198006801F039FB01994860019808
:101F7000406801F047FB019988600198406801F0D2
:101F800053FB0199C86002B080BD000080B586B0E7
:101F9000014605900020049005980328039139D14B
:101FA000FFE7059800F084F83D49401803280290A7
:101FB00027D802987844007940008744210105170A
:101FC00001F046FB049024E000F07EF800280CD0DD
:101FD000FFE700F07FF8002803D0FFE732480490C5
:101FE00002E030480490FFE7FFE712E000F088F8D5
:101FF000002804D0FFE70120C0030490FFE708E0B9
:10200000FFE701F025FB01F0E9FA01F00DFB049078
:10201000FFE7FFE705980C283FD1FFE7059800F0A0
:1020200047F8224940180C2801902DD80198C04645
:10203000784400794000874426272727062727274A
:102040000A2727271C0001F003FB049024E000F07E
:102050003BF800280CD0FFE700F03CF8002803D044
:10206000FFE71148049002E00E480490FFE7FFE705
:1020700012E000F045F8002804D0FFE70120C0037B
:102080000490FFE708E0FFE701F0E2FA01F0A6FAAA
:1020900001F0B8FA0490FFE7FFE7049806B080BDAE
:1020A0000000FDFF0024F40000093D000000F4FFE3
:1020B00082B00146019073480068019A10401204F2
:1020C0001043009102B07047234800680421084083
:1020D00080087047204800681021084000097047B8
:1020E0005748016801221202114301607047C0463F
:1020F00053480068012149020840400A7047C04621
:102100004F480068012149020840400A7047C04614
:1021100082B0014601904A4802680323DB029A43D9
:10212000019B1A430260009102B070470A4801689F
:1021300001221202114301607047C0461648006830
:1021400007214903084070470348006801214902FC
:102150000840400A7047C0460010024082B0014665
:1021600001900D480268FF231B069A43019B1B0642
:10217000D2180260009102B07047C04682B001469A
:1021800001900548026807235B039A43019B1A43A9
:102190000260009102B070470410024030480068AD
:1021A00003218905084070472D4800680121090472
:1021B000084070472A4800680F218904084070478A
:1021C0001F4801680122D204914301607047C04654
:1021D00082B00146019022480268F0239A43019B95
:1021E0001A430260009102B07047C04682B00146B7
:1021F00001901B48026807231B029A43019B1A4364
:102200000260009102B0704782B00146019014480C
:1022100002680723DB029A43019B1A430260009184
:1022200002B0704782B0014601900548026803235E
:102230001B049A43019B1A430260009102B070474D
:102240005010024082B00146019005480268032305
:102250009A43019B1A430260009102B07047C04646
:102260000C10024010B582B001460190054802688A
:10227000019B1C0CA2439BB21A430260009102B066
:1022800010BDC0464C10024082B00146019001983A
:10229000826801231B029A438260009102B070475A
:1022A00082B0014601900198826801231B021A4303
:1022B0008260009102B0704784B00A4603460390E2
:1022C00002910398C069054908400299084303999F
:1022D000C8610192009304B07047C0467F7F7F7F42
:1022E00084B00A460346039002910398C0697F2197
:1022F000884302A9097808430399C86101920093B1
:1023000004B0704782B0014601900198C0688022F5
:102310001040A022D2438018019AD060009102B0F0
:1023200070470000F0B58BB0109C1D4616460F4656
:102330000590049005980A900991089207930999CD
:10234000490310AA12781204114307AA1278120244
:10235000114308AA1278891806910A994968064A11
:102360001140069A11430A9A51600394029501960E
:1023700000970BB0F0BDC046C00000FF83B001461F
:102380000290029840683F2210400190019810404E
:10239000009103B0704783B00146029002984068F4
:1023A0003F221040019001981040009103B0704707
:1023B00083B001460290029840681F22120210402A
:1023C000019001981040000A009103B0704783B05B
:1023D00001460290029840681F22120210400190AC
:1023E00001981040000A009103B0704782B0014686
:1023F00001900198406880B2400B009102B0704794
:1024000082B0014601900198406880B2400B009173
:1024100002B0704783B00146029002984068FF22E4
:1024200012041040019001A88078009103B0704719
:1024300083B00146029002984068FF2212041040C7
:10244000019001A88078009103B07047B0B58EB0BC
:1024500013460C4605460D900C910B920AA80121DB
:1024600001700C9800280993089407950DD1FFE797
:102470000B984078C006002807D5FFE70B984178F5
:10248000EF2211400A314170FFE70C98002801D17A
:10249000FFE700E0FFE70D9800F076F80D9800F0F8
:1024A0009BF8012851D0FFE70C9800280ED0FFE7D9
:1024B0000D980B990A788B784C78C9786D4629600D
:1024C00011461A462346FFF72DFF2AE00D980B9977
:1024D0000A788B780A2406901846059121460492C2
:1024E0000394FDF705FE00010843C2B20598407849
:1024F00003990292FDF7FCFD00010843C3B2059861
:10250000C07803990193FDF7F3FD00010843C0B2C1
:102510006946086006980499029A019BFFF702FF3A
:10252000FFE70D4800F01AF80D9800F0EBF80028CE
:1025300006D1FFE70D9800F043FA0AA9087003E0FE
:102540000AA800210170FFE7FFE70D9800F03BF8B3
:102550000AA800780EB0B0BD0028004082B0014645
:10256000019001988022D243C260009102B070476E
:1025700082B0014601900198CA224262019853221A
:102580004262009102B0704782B00146019001980A
:10259000CA224262019853224262009102B07047FF
:1025A00082B00146019001980022D243C26000919E
:1025B00002B0704782B0014601900198FF2242624A
:1025C000009102B0704782B0014601900198FF224D
:1025D0004262009102B0704780B586B00146059016
:1025E0007D20C000049003A800220270059801918C
:1025F00000F072F8002830D1FFE70598FFF7D0FF10
:10260000059800F069F80290FFE70498002100287F
:10261000009106D0FFE70298401E411E88410090BD
:10262000FFE70098C007002816D0FFE700F0D2FAB5
:10263000012804D1FFE70498401E0490FFE70598A5
:1026400000F04AF802900498002804D1FFE703A89C
:1026500001210170FFE7D8E7FFE703A8007806B083
:1026600080BD82B0014601900198806840221040F0
:10267000009102B0704780B586B00A4603460590C7
:10268000049103A801210170059802920193FFF7BC
:102690007BFF0598FFF7A0FF012816D0FFE70598FC
:1026A0000499096800F04CF805980499896800F0CD
:1026B00059F805980499496800F02FF80598FFF734
:1026C0004DFF03A800210170FFE70598FFF77BFF8E
:1026D00003A8007806B080BD82B001460190019841
:1026E000C068402210408009009102B0704782B05B
:1026F000014601900198C0682022104040090091D5
:1027000002B0704782B00146019001988068202293
:1027100010404009009102B0704784B00A46034659
:1027200003900291039800697F210904884302996C
:1027300009040843039908610192009304B07047AB
:1027400084B00A46034603900291039880684021B2
:10275000884302990843039988600192009304B06A
:102760007047000084B00A46034603900291039824
:1027700000690549084002990843039908610192DC
:10278000009304B07047C0460080FFFFF0B58BB0E7
:10279000109C1D4616460F460590049005980A9019
:1027A000099108920793099908AA12781204114313
:1027B00007AA12781202114310AA12781143069147
:1027C0000A990968054A1140069A11430A9A11604C
:1027D00003940295019600970BB0F0BD808080FFB6
:1027E00082B00146019001980068012292051040D4
:1027F000009102B0704783B00146029002980068D1
:102800003F2212041040019001981040000C0091EA
:1028100003B0704783B001460290029800683F22DF
:1028200012041040019001981040000C009103B078
:10283000704783B001460290029800687F2212021E
:102840001040019001981040000A009103B07047B9
:1028500083B001460290029800687F221202104065
:10286000019001981040000A009103B0704783B0B6
:1028700001460290029800687F2210400190019862
:102880001040009103B0704783B001460290029857
:1028900000687F221040019001981040009103B021
:1028A00070470000B0B58EB013460C4605460D903B
:1028B0000C910B920AA8012101700C980028099331
:1028C000089407950CD1FFE70D98FFF7CAFE002882
:1028D00001D0FFE703E00B9800210160FFE70BE068
:1028E0000D98FFF7BEFE002801D0FFE703E00B982C
:1028F00000210160FFE7FFE70D98FFF745FE0D9807
:10290000FFF76AFE012851D0FFE70C9800280ED08F
:10291000FFE70D980B990A680B794C7989796D4618
:10292000296011461A462346FFF730FF2AE00D982A
:102930000B990A680B790A240690184605912146DE
:1029400004920394FDF7D4FB00010843C2B205983A
:10295000407903990292FDF7CBFB00010843C3B213
:102960000598807903990193FDF7C2FB00010843A4
:10297000C0B26946086006980499029A019BFFF765
:1029800005FFFFE70D48FFF7E9FD0D98FFF7BAFED9
:10299000002806D1FFE70D9800F012F80AA9087088
:1029A00003E00AA800210170FFE7FFE70D98FFF799
:1029B0000AFE0AA800780EB0B0BDC046002800404C
:1029C00080B58AB0014609907D20C000089007A814
:1029D0000022027009980591FFF794FC0998FFF70F
:1029E00086FE0690FFE708980021002804910BD08E
:1029F000FFE70698012100280390029101D1039876
:102A0000029002980490FFE70498C007002816D0AF
:102A1000FFE700F0DFF8012804D1FFE70898401E27
:102A20000890FFE70998FFF762FE069008980028D3
:102A300004D1FFE707A801210170FFE7D3E707A84A
:102A40000078012830D0FFE77D20C0000890099869
:102A5000FFF74DFE0690FFE708980021002801913E
:102A600006D0FFE70698401E411E88410190FFE70F
:102A70000198C007002816D0FFE700F0ABF8012846
:102A800004D1FFE70898401E0890FFE70998FFF778
:102A90002EFE06900898002804D1FFE707A8012120
:102AA0000170FFE7D8E7FFE707A800780AB080BD0C
:102AB00080B586B00A4603460590049103A801211B
:102AC000017005980292019300F042F8002833D17A
:102AD000FFE7059800681D49084004990A684B689B
:102AE0001A438B681A43CB681A430B691A434B6924
:102AF0001A438B691A43CB691A43096A0A43104384
:102B00000599086005984068042188430499C98A9A
:102B10000843059948600498006A012149038842E6
:102B200006D1FFE705980499496A00F025F8FFE708
:102B300003A800210170FFE70598C1690122D202B4
:102B40009143C16103A8007806B080BD4000FFFF3B
:102B500082B001460190019800684022104080092F
:102B6000009102B0704782B0014601900198C068A0
:102B7000C0B2009102B0704784B00A460346039089
:102B8000029102A80088039908610192009304B0A1
:102B9000704784B00A460346039002910398406848
:102BA00010218843029908430399486001920093D9
:102BB00004B0704785B00A460346049003A801702C
:102BC00004980C30029003980299087001920093C7
:102BD00005B070470E480068012109040840000C48
:102BE0007047C04682B001460190019804280091C8
:102BF00006D1FFE70648016804221143016005E0A1
:102C000003480168042291430160FFE702B0704766
:102C100010E000E082B0014601900198024A106085
:102C2000009102B07047C0460C00002082B00146FF
:102C300001900198026880239A430260009102B0DB
:102C4000704782B0014601900198826880239A43C0
:102C50008260009102B0704782B0014601900198F5
:102C6000426901231A434261009102B0704700009B
:102C700080B586B00A460346059004910598006821
:102C800003900598012189078842029201930FD091
:102C9000FFE70598234988420AD0FFE705982249B3
:102CA000884205D0FFE705982049884208D1FFE710
:102CB0000398702188430499496808430390FFE70B
:102CC00005980121890788420FD0FFE7059815492B
:102CD00088420AD0FFE705981349884205D0FFE7EC
:102CE00005981249884209D1FFE703980321090298
:102CF00088430499C96808430390FFE7039805993E
:102D0000086005980499896800F012F805980499FC
:102D1000098800F02DF80598FFF79EFF002006B007
:102D200080BDC0460004004000080140001401407E
:102D300084B00A4603460390029102980399C86240
:102D40000192009304B0704784B00A460346039092
:102D50000291039880680549084002990843039945
:102D600088600192009304B07047C046F8BFFFFF2F
:102D700084B00A4603460390029102980399886240
:102D80000192009304B0704784B00A460346039052
:102D9000029103984068702188430299084303997F
:102DA00048600192009304B0704782B001460190E0
:102DB000019842680923DB029A43426001988268C5
:102DC0002A239A438260009102B0704782B0014684
:102DD00001900198026801239A430260009102B0B9
:102DE000704782B0014601900198026801231A439E
:102DF0000260009102B0704780B58CB00A4603466D
:102E00000B900A9109A801210170002008900B98ED
:102E10000392029300F070F800285FD1FFE70B984F
:102E20000068304908400A994A68CB681A430B6920
:102E30001A4389690A4310430B9908600B980A9951
:102E4000896800F0AFF80B980A99496900F098F882
:102E50000B982549884205D1FFE70320FFF796F834
:102E6000089023E00B982149884205D1FFE70C2008
:102E7000FFF78CF8089018E00B981D49884206D19E
:102E8000FFE704A8FFF764F8069808900CE00B9899
:102E90001849884206D1FFE704A8FFF759F80698B9
:102EA000089000E0FFE7FFE7FFE7FFE7089800284A
:102EB00013D0FFE70A98006800280ED0FFE709A8A2
:102EC000002101700B9808990A9A9369126801927F
:102ED0001A46019B00F01AF8FFE7FFE709A80078FF
:102EE0000CB080BDF369FFEF0038014000440040A2
:102EF000004C00400050004082B001460190019813
:102F0000006801221040009102B07047F0B58BB00C
:102F10001C4615460E4607460A90099108920793EB
:102F200008980121C90388420494039502960197E9
:102F300018D1FFE70998400007994A088018FDF763
:102F4000D7F880B2069006980C490840059006987C
:102F50000E210840400805990143059105980A99FA
:102F6000C86009E0099807994A088018FDF7C0F879
:102F700080B20A99C860FFE70BB0F0BDF0FF000017
:102F800084B00A46034603900291039880680321A7
:102F900009028843029908430399886001920093CB
:102FA00004B0704784B00A46034603900291039828
:102FB0004068032109038843029908430399486044
:102FC0000192009304B0704784B00A460346039010
:102FD0000291039840680121C9038843029908437C
:102FE000039948600192009304B0704784B00A4688
:102FF0000346039002A80170007803998862019249
:10300000009304B0704784B00A460346039002A8B8
:1030100001700078039988620192009304B07047B0
:1030200084B00A460346039002A801700078039911
:1030300088620192009304B07047000010B596B00A
:10304000002015901490139012901190109004216C
:103050000F900846FEF7F6FE01200E90FEF7F2FEF6
:103060000220FEF7EFFE0520000708210D900C91CD
:10307000FEF73FFE0E9801020D980B91FEF739FE08
:1030800038480A900C99FEF734FE10200A990990EE
:1030900008460999FEF72DFE20200A990890084657
:1030A0000899FEF726FE0C9810900E9911910F9A30
:1030B00012921392149210AB0D9819460793FEF7D3
:1030C000A9FD0B9910910E9A11920F9B12931393D5
:1030D00014930D9C069020460799FEF79BFD0C99D2
:1030E00010910E9A11920F9B1293139314930A9CB2
:1030F000059020460799FEF78DFD099910910E9ACB
:1031000011920F9B1293139314930A9C04902046E0
:103110000799FEF77FFD089910910E9A11920F9B67
:103120001293139314930A9C039020460799FEF779
:1031300071FD402110910F99119114910A9A0290FA
:1031400010460799FEF766FD802110910F991191A5
:1031500014910A9A019010460799FEF75BFD0090C2
:1031600016B010BD0004005010B590B000200F90B4
:103170000E900D900C900B900A900990FEF7BAFEFD
:1031800002200890099900F0E1F9089800F0CEF9C2
:1031900009980D907F210E91FF210F9113490DAADF
:1031A000084607911146FFF766FA0BA9099A0A71BA
:1031B0004A718A710123079C0690204605911946A1
:1031C000059A0493FFF76EFB0AA9049A0A704A70E5
:1031D000099BCB70079C0390204602911146029AEE
:1031E000FFF734F9019010B010BDC0460028004030
:1031F00070B59EB014A828210D90FCF7BCFF0020EC
:1032000013901290119010900F900E9001210A03CC
:103210000C9010460B91FEF7D3FC0B98FEF712FEB4
:1032200020200E9002200F90032110910C9A1192F1
:103230001292139205231B070EAC0A9018460991AF
:10324000214608930794FEF7E5FC40210E910A9A67
:103250000F92099B10930C9C119412941394089D47
:1032600006902846079E05913146FEF7D3FC802143
:103270000E910A990F91099A10920C9B1193129337
:103280001393089C049020460799FEF7C3FC042181
:10329000C943192203901046029200F057F9029890
:1032A00000F044F90C981490412189001591169072
:1032B000179018900B994A02199210221A921B909B
:1032C0001C9007221D920D4A10460D990192FFF79E
:1032D000EFFB0199009008460C99FFF75AFC019802
:1032E0000168059A1140402906D0FFE703480168AC
:1032F000402211430160FFE71EB070BD0030014065
:1033000080B58AB0002009900890079006900121AE
:10331000059008460491FEF73FFC0520C1430F20AD
:10332000039000F013F9039800F000F906A805993E
:103330000180079108910991049A93070290184619
:1033400002990193FFF794FC019900900846FFF75A
:103350006DFC01980599FFF7F7FC01980599FFF7B7
:1033600013FD0198FFF76DFC0AB080BD70B59AB0EF
:1033700000201990189017901690159014901390A3
:103380001290119010900F900E900D9001218A03D1
:103390000C9010460B91FEF713FC0B98FEF752FDB4
:1033A0000B9841020D9102210E9103220F920C9B6A
:1033B000109311930424129405252D070DAE284671
:1033C0000A9131460992089407950696FEF722FC69
:1033D0000B998A020D920A9A0E92099B0F930C9CEC
:1033E00010941194089D1295079E059030460699F9
:1033F000FEF710FC0621C9431B22049010460392DD
:1034000000F0A4F8039800F091F84B20C00113904D
:103410000C981490159016900C21179118901990F3
:10342000084913AA084602911146FFF7E5FC0299E4
:1034300001900846FFF7B9FC0298FFF7D2FC1AB0DA
:1034400070BDC0460038014070B59AB00020199098
:103450001890179016901590149013901290119048
:1034600010900F900E900D900121CA040C90104600
:103470000B91FEF791FB0B98FEF7E4FC0B980D9077
:1034800002210E9103220F920C9B1093119306249C
:10349000129405252D070DAE28460A913146099252
:1034A000089407950696FEF7B5FB0A990D910E91C3
:1034B000099A0F920C9B10931193089C1294079DEC
:1034C000059028460699FEF7A5FB0A99C9430E22E6
:1034D00004901046039200F039F8039800F026F8A3
:1034E0004B20C00113900C981490159016900C214D
:1034F0001791189019900B4913AA0846029111468A
:10350000FFF77AFC0B99C903029A01901046FFF766
:103510005BFD0298FFF749FC0298FFF762FC1AB0C6
:1035200070BDC046004C00407047000082B00146AC
:1035300001AA107010781F22104001228240024818
:103540000260009102B0704700E100E070B584B005
:103550000A46034603AC20700291207840B200284E
:10356000019200931BDAFFE703A801780F221140B4
:1035700008390323DB431940164C0959007840B23F
:103580008507ED0EFF26AE40B143029EB601F6B2AE
:10359000AE403143104008381840015116E003A8EE
:1035A000017849B20322D2431140094BC95800782F
:1035B00040B28407E40EFF25A540A943029DAD015A
:1035C000EDB2A54029431040C150FFE704B070BDE3
:1035D00000E400E01CED00E07047000080B584B01E
:1035E00001460390039802910190FEF793FCC0B24C
:1035F00000090349085C0199C140084604B080BD38
:103600009450000880B584B001460390039802915D
:103610000190FEF785FC000A0C49085C0199C14045
:10362000084604B080BDC04680B584B00146039012
:10363000039802910190FEF779FCC00A0349085CE7
:103640000199C140084604B080BDC046A45000089E
:1036500080B582B0FEF776FC01460C28009128D890
:103660000098C04678440079400087440622222210
:103670000F2222221B2222221E00FEF75FFD400B9A
:10368000401C01218140C80301901BE0FEF722FD90
:10369000002803D0FFE72448019002E02148019070
:1036A000FFE70FE0214801900CE000F00FF80190D7
:1036B00008E0FEF743FD400B401C01218140C80398
:1036C0000190FFE7019802B080BDC04680B584B08C
:1036D000FEF76AFD0290029800280CD1FFE7FEF782
:1036E000F9FC002803D0FFE70F48039002E00D48E3
:1036F0000390FFE702E00D480390FFE70398019075
:10370000FEF758FD800C0A49085C01994843009077
:10371000FEF744FD800D411C0098FCF7E9FC04B065
:1037200080BDC0460024F40000093D0000127A006C
:10373000AC5000080A480068C00500280ED5FFE715
:10374000084801210160064802680B029A430260A2
:103750000548026849040A430260FFE77047C04613
:103760000C280040F80000201404014080B586B009
:103770000A46034605900491424803900292019341
:10378000FFF748F8059908710398FFF761F8059964
:1037900048710398FFF778F8059988710398FFF747
:1037A0001FF8059908600398FEF7F5FD04998870E5
:1037B0000398FEF70CFE049948700398FEF738FE54
:1037C0000499C8700398FEF71BFE0499087006B0B0
:1037D00080BDC04680B582B02A480190FEF7C8FE81
:1037E0000198FEF751FD104801680522920211432D
:1037F000016009210198FEF773FD0C490198FEF75D
:103800005BFD0198FEF74CFD0198FEF7D3FE0848DA
:103810000168012252041143016006480168114306
:10382000016002B080BDC046082800400080808052
:10383000000401400804014070B58CB00B460446FA
:1038400015460B910A90100E09A9C870100C8870CB
:10385000100A48700A700B4800220AAE08900791BF
:10386000114606923246059304940395FFF71AF821
:103870000899029008460699079AFEF7E7FD01901D
:103880000CB070BD0028004070477047704780B58D
:1038900084B00020FEF7AEF9FEF7A6F9002803D0A9
:1038A000FFE7FDF7F6FCFFE70120C002FEF712FB81
:1038B000FEF73CFCFFE7FEF747FC012801D0FFE7DD
:1038C000F9E701208003FEF759FC00200390FEF782
:1038D00045FCFEF7F7FAFEF715FBFEF771FC0398BF
:1038E000FEF716FCFEF7FCFBFFE7FEF701FC0128E4
:1038F00001D0FFE7F9E701200004FEF793FCFEF793
:10390000F9FA00200290FEF763FC0298FEF76EFCC5
:103910000298FEF779FC0298FEF794FCFFE7FEF7A9
:103920000BFB002801D0FFE7F9E70120800401909C
:10393000FEF79CFA0420FFF755F90198FFF76AF9A2
:1039400003200004FEF78EFC04B080BD10B51148C2
:10395000016801221302194301600F490B680F4CE3
:1039600023400B6003680E4C234003600D4B1C6822
:1039700094431C6003689404A34303600868FD2318
:103980001B0498430860084800210160D0060749DD
:10399000086010BD001002400C1002400C40FF886F
:1039A000F6FFF6FE081002401010024008ED00E09D
:1039B0007047000082B0014601AA10801F48002312
:1039C00003601F48036010881E4A106001208207B0
:1039D0001368034313600091FFE718480068C007AD
:1039E000002801D1FFE7F8E7002002B07047C04689
:1039F0000648016801221143016083204000044908
:103A00000860900701681143016070473810024058
:103A10002800004082B0014601AA10800748002318
:103A20000360074803601088064A1060012082077F
:103A3000136803431360009102B070471000004008
:103A4000240000402C0000400E48006800070028B9
:103A500006D5FFE70B4801680822914301600FE09B
:103A60000948006809490A68094B98540868401CCD
:103A7000C217920E82183F239A43801A0860FFE70C
:103A80007047C0461C3801402438014058000020CF
:103A900010000020094800683B490A683B4B9854D5
:103AA0000868401CC217920E82183F239A43801A5E
:103AB00008603348012101607047C046244C004033
:103AC000DC4801680822114301607047D948016849
:103AD000082291430160704780B588B0284800688B
:103AE000002845D0FFE7274800680690FFE70698C2
:103AF00025490968884237D0FFE706982349085CC2
:103B00003F2826D1FFE70698401CC117890E4118AF
:103B10003F229143401A1B4908601046059200F06D
:103B200045FB05990490084600F040FB0599039079
:103B3000084600F03BFB05990290084600F036FB72
:103B400005990190084600F031FB00210791009093
:103B500012E0FFE70698401CC117890E41183F226A
:103B60009143401A0690C2E70120C043079003E04A
:103B70000020C0430790FFE7079808B080BDC0460B
:103B8000E8000020EC000020F4000020A800002045
:103B9000B0B5C4B00A46034643904291369235937D
:103BA00000F03AF93CA8002101813D913C9139AAED
:103BB00011813A913991439B1C795D792D022C1921
:103BC00094801C785D782D022C199D78DB781B027F
:103BD0005B191B041B193993439B9B1D429CA41F1B
:103BE00034903391194632922246FCF7ABFA3FA942
:103BF000339A0A8140923F92C24B03243190184677
:103C0000309121462F9400F0EDFA37A9309A2E908A
:103C100010462D9100F07CF93799309A2C9010467F
:103C2000FDF718F9734904222B90084611462A9291
:103C300000F0D8FA7049012229900846114600F098
:103C4000D1FA0D2128900846279100F0AFFA30995B
:103C5000269008462D9900F05BF93799309A259007
:103C60001046FDF7F7F86549249008462A9900F0B8
:103C7000B9FA6349239008462F9900F0B3FA2799BF
:103C80002290084600F092FA3099219008462D992A
:103C900000F03EF93799309A20901046FDF7DAF897
:103CA0009A491F9008462A9A1E91114600F09AFAE6
:103CB00034991D900846FCF776FA34991C90084612
:103CC0001C9900F08FFA27991B90084600F06EFAB5
:103CD00030991A9008462D9900F01AF93799309AC0
:103CE00019901046FDF7B6F88749189008462A9AA9
:103CF0001791114600F076FA329916900846FCF7B3
:103D000052FA329915900846159900F06BFA2799E6
:103D10001490084600F04AFA3099139008462D99FD
:103D200000F0F6F83799309A12901046FDF792F8A5
:103D30003449119008462A9900F054FA27991090B6
:103D4000084600F033FA30990F9008462D9900F09C
:103D5000DFF83799309A0E901046FDF77BF82A4924
:103D60000D9008462A9900F03DFA27990C900846D4
:103D700000F01CFA30990B9008462D9900F0C8F815
:103D80003799309A0A901046FDF764F81799099010
:103D900008462A9900F026FA27990890084600F06C
:103DA00005FA3099079008462D9900F0B1F8379937
:103DB000309A06901046FDF74DF81E99059008467A
:103DC0002A9900F00FFA27990490084600F0EEF9BE
:103DD0003099039008462D9900F09AF83799309A57
:103DE00002901046FDF736F8019000F00FF8339876
:103DF00044B0B0BD20510008005100082551000812
:103E0000FC500008025100081B51000809480168D5
:103E1000202211430160704780B582B005480168D7
:103E2000202291430160FA20FFF7C4FD019002B007
:103E300080BDC0461404005080B584B00146029095
:103E400002980128019104D1FFE700F0EBF90390FB
:103E500003E00020C0430390FFE7039804B080BD57
:103E600080B59EB011A832210F90FCF784F9FFF7BE
:103E7000D3FF9648032100F0B5F910A90F9A0E90D0
:103E800010460D9100F044F810990F9A0C901046CE
:103E9000FCF7E0FF1C4904220B90084611460A92E9
:103EA00000F0A0F90D2109900846089100F07EF974
:103EB0000F99079008460D9900F02AF810990F9A6B
:103EC00006901046FCF7C6FF1049059008460A996F
:103ED00000F088F908990490084600F067F90F99F6
:103EE000039008460D9900F013F810990F9A02906C
:103EF0001046FCF7AFFF0190FFF788FF00201EB0CF
:103F000080BDC046F8500008075100081151000854
:103F100010B588B00A460346069005913E48002138
:103F200001603E4801607D2000013D49086001209C
:103F300081070C6804430C6003920293FFE79648E4
:103F4000006897490818401E007800210D2801914B
:103F500008D0FFE73048006801210840414248414D
:103F60000190FFE70198C007002801D0FFE7E6E7CE
:103F7000894800688A490818401E00780D2804D036
:103F8000FFE70020C043079043E083480068401EDD
:103F90008449086000200490FFE780480068814958
:103FA0000968884215D0FFE77C4800687C49085CB6
:103FB0000699049A531C04938854FFE777480168D4
:103FC000491CCA17920E8A183F239A43891A016026
:103FD000E3E714480021016006980091FCF7E3F83C
:103FE000059908606C480168491CCA17920E8A1826
:103FF0003F23DB431A40891A016068480168891C25
:10400000CA17920E8A181A40891A01600098079000
:10401000FFE7079808B010BD1000004024000040E2
:104020002C000040E800002080B59EB011A832218D
:104030000F90FCF7A0F8FFF7EFFE2448032100F0F3
:10404000D1F810A90F9A0E9010460D91FFF760FF5E
:1040500010990F9A0C901046FCF7FCFE1C490422A4
:104060000B90084611460A9200F0BCF80D21099009
:104070000846089100F09AF80F99079008460D99A4
:10408000FFF746FF10990F9A06901046FCF7E2FEE4
:104090001049059008460A9900F0A4F80899049080
:1040A000084600F083F80F99039008460D99FFF732
:1040B0002FFF10990F9A02901046FCF7CBFE01904B
:1040C000FFF7A4FE00201EB080BDC046F8500008D7
:1040D0000C5100081651000880B590B02E480068B9
:1040E0000D902E4800680E90FFE70E980D998842BB
:1040F00016D0FFE70E982A49085C3F2805D1FFE754
:104100000E98401C274908600AE0FFE70E98401C03
:10411000C117890E41183F229143401A0E90E4E7DF
:104120000E980D99884203D1FFE700200F902FE0F1
:1041300068463221FCF71FF800200E90FFE7174871
:10414000006818490968884215D0FFE713480068DD
:104150001349085C0E994A1C0E926A465054FFE7B8
:104160000E480168491CCA17920E8A183F239A43C9
:10417000891A0160E3E70C496846FCF71BF8002840
:1041800003D1FFE701200F9002E000200F90FFE72E
:104190000F9810B080BDC046F4000020EC00002055
:1041A000A8000020F0000020B550000880B584B0C1
:1041B000014603AA10701078E94A02901046029A4C
:1041C00001911146FEF72CFFFFE7054800684021EA
:1041D0000840402801D0FFE7F7E7002004B080BD89
:1041E0001C4C004080B586B00A46034605900491F9
:1041F0000020039002920193FFE7039804998842FC
:104200000DDAFFE705980078FFF7D0FF0599491C04
:1042100005910090FFE70398401C0390EDE7002014
:1042200006B080BD80B5A2B0FFE719A8FDF7DEF8A3
:1042300000287CD1FFE719A8022118901791FFF7F9
:10424000D1FF2C21169008461591FFF7AFFF189962
:104250008A1C149010461799FFF7C4FF1599139004
:104260000846FFF7A3FF18990A1D129010461799E8
:10427000FFF7B8FF159911900846FFF797FF1899B7
:104280008A1D109010461799FFF7ACFF15990F90F3
:104290000846FFF78BFF189908310E9008461799CA
:1042A000FFF7A0FF15990D900846FFF77FFF1899BB
:1042B0000A310A220C90084611460B92FFF792FF32
:1042C00015990A900846FFF771FF189914310122D9
:1042D0000990084611460892FFF784FF1599079048
:1042E0000846FFF763FF18991531069008460B99A9
:1042F000FFF778FF159905900846FFF757FF1899C3
:104300001F31049008460899FFF76CFF1599039038
:104310000846FFF74BFF0B9902900846FFF746FF50
:104320002121189A01901046FBF725FF7DE73F20D9
:10433000FFF73CFF304900220A600090104622B08F
:1043400080BDC04680B584B0FFF766FD26480021D9
:104350000160264801602648264901600120810746
:104360000A6802430A60FFE71F480068C007002888
:1043700031D1FFE7FFF7B0FB00282BD1FFE71E4844
:1043800001210160184800220260184802601848A4
:10439000184A0260880702680A430260FFE716486D
:1043A000006800210028039108D0FFE70E4800684C
:1043B00001210840414248410390FFE70398C007AC
:1043C000002806D0FFE7FFF787FEFFF735FD0290D4
:1043D000E5E7FFE7C8E70848002101600191FFF722
:1043E00015FD019804B080BD10000040240000407D
:1043F0002C000040204E0000A400002010B5A0B00A
:1044000000201F9001210B9008460A91FDF7D8FB70
:104410000A980007FDF7C0FBFFF739FA72B6FEF7FE
:104420000DFEFEF7A1FEFFF7D5F9FEF7E1FEFEF760
:1044300067FFFEF79BFFFFF707F848480990FEF774
:10444000C5FC47480890FEF7C1FC08980168202287
:104450001143016009990B6813430B600846FEF78E
:10446000C0FC0898FEF7BDFC62B6FFF7C1FA0A98D7
:10447000FFF7A0FA0790FFF7C9FCFDF733F8FDF747
:104480001FF8FFF71DFB0B981E901D9035491491E6
:1044900014A9354A0A81354A1592354A4A820A8258
:1044A000CA818A814A810A4615320A233424104679
:1044B000069119462246FBF757FE4E2006990875CD
:1044C0005720C877FCF76CFF0590FFE7FDF710FA5F
:1044D0000490FCF7A7FA002813D0FFE7FCF74CFA8A
:1044E00000280DD0FFE7FFE7FCF79CFA002806D074
:1044F000FFE7FCF7AFFBFCF76DFB0390F4E7FFE78A
:10450000FFE71C4800684006002825D5FFE71A4849
:104510000068012808D1FFE71EA81DA900F02EF8A9
:10452000154800210160FFE71E98002806D0FFE72C
:10453000FDF7DEF900211E910290FFE71D9800288B
:1045400006D0FFE7FFF7FEFE0190FFF7BFFA02E09B
:10455000FFF7B6FAFFE700E0FFE7B7E700380140F2
:10456000004C0040313131313232000032323232CF
:104570003333000010040050F800002010B596B04E
:104580000A460346159014914C48007813A9087008
:104590004B48007812AC20704A48007811AC20706B
:1045A0004948007810AC2070484800780FAC207063
:1045B0000DA80CAC0B9121460A920993FFF7D6F88F
:1045C0000B9801780022002908920ED0FFE70CA872
:1045D000007801210A468240002A0792069101D103
:1045E0000798069006980890FFE70898C0070028EB
:1045F00017D0FFE70DA8007912A9097888420BDBD4
:10460000FFE70DA8007911A90978884204DAFFE7CD
:1046100014980121016003E0149800210160FFE774
:1046200003E0149800210160FFE70DA8007900283D
:1046300010D1FFE70DA8407900280BD1FFE71598AE
:10464000012101600E98224908700DA84079214986
:10465000087031E00DA8017910AA1278891A1C4A55
:104660001278012300249142194605900493039483
:10467000029101DA03980290029805994A790FABEA
:104680001B78D21A134B1B789A42049A019000921D
:1046900001DA039800900098019901420BD0FFE7DE
:1046A0001598012101600E98094908700DA84079FC
:1046B00008490870FFE7FFE716B010BD00000808C2
:1046C00001000808020008080300080804000808A0
:1046D000FC000020FD0000200FB410B504A9074B1A
:1046E00002AA039800F0F2F8044602A9002000F0A4
:1046F00089FC204610BC08BC04B0184705500008CF
:104700002021020C01D010211046020A01D01046CF
:104710000839020901D01046091F820801D010464D
:10472000891E420801D0881E7047081A7047000091
:10473000004870470400002002E008C8121F08C1AA
:10474000002AFAD170477047002001E001C1121F12
:10475000002AFBD170470000F0B51FB486B009985D
:10476000089A030D0021024314D05148514A1818E9
:10477000504305141198012810981AD0281A401C8B
:1047800000264D4F4D49009601910490002812DA01
:10479000444211E01198012449A3012801D1109845
:1047A000C1430698119A84600360C26041600BB0F7
:1047B000F0BD4042E4E70446210500203F4A001CCA
:1047C00051410391029012E0E00707D032463B4688
:1047D00001990098FBF7B0FE0191009032463B46EC
:1047E00010461946FBF7A8FE06460F466410002C3B
:1047F000EAD10498039B0028029A0999089806DADE
:10480000FBF79AFE019B009AFBF796FE05E0FBF78B
:10481000FBFE019B009AFBF7F7FE04460E460022C2
:10482000284BFBF789FF03D80020C043014607E06F
:104830000022254B20463146FBF7CCFDFBF75CFF01
:10484000102409E0002C0ADB0A220023FBF718FDE4
:10485000079B30321A55641E02460A43F2D11122D8
:10486000641C079B121B1C19119B012B03D00123F5
:1048700008430ED10AE0084304D011201090002014
:10488000119077E71098151A6D1E0BE01098824270
:1048900002DD00236D1C03E0824201DA00236D1E5D
:1048A000002BEED0069811998260C16030C07EE77F
:1048B00001FCFFFF104D0000000014400000F03F1D
:1048C000300000000000F0430000E03FFFB597B06B
:1048D0000646002518E2252877D100242746FD4901
:1048E000049400E00443761C32780120203A904082
:1048F0000842F7D130782A280ED0022230780146BB
:104900003039092916D804990A23594330394018F7
:104910001443761C0490F1E7189802C8049118908B
:10492000002904DA01204003044348420490022095
:104930000443761C30782E2814D104200443707868
:10494000761C2A2809D11898761C80C8189009E08E
:104950000A214F43303FC719761C30780146303961
:104960000929F5D930786C2810D006DC4C281AD0EB
:1049700068280ED06A2817D104E0742813D07A284A
:1049800012D110E00120400504430CE0012109058B
:1049900001E0032109050C437178814203D1012014
:1049A00000052418761C761C3078119066280BD0F0
:1049B00013DC58287DD009DC00287BD04528F6D0B0
:1049C0004628F4D047281AD1A5E118E0632835D04D
:1049D000642870D0652812D19DE170286CD008DC65
:1049E0006728F1D069287BD06E280DD06F2806D1BA
:1049F000BAE073282ED0752871D0782859D01A9A29
:104A0000199990476D1C7EE16002400F022809D081
:104A100003280DD00428189801680DD00D60001DE2
:104A2000189070E11898EA1701680D604A60F6E77F
:104A3000189801680D80F2E70D70F0E718986A4643
:104A400001781172001D18900020507202A8009089
:104A5000012005E0189802C8189000200091C0437A
:104A600061070DD5002101E00199491C0191B9426E
:104A700012DA8142F8DB009A515C0029F4D10BE094
:104A8000002101E00199491C01918142FADB019A60
:104A90000099895C0029F5D1019904981A9B471A5D
:104AA00021463846199A00F097FA0199401945189D
:104AB0000BE04FE02CE113E04EE000980099007805
:104AC000491C00911A9A199990470198401E01902B
:104AD000401CF2D1214638461A9B199A10E137E062
:104AE0000A200021009001916002410F022907D0A5
:104AF000189A01CA1892C2179446032908D00AE0EE
:104B00001898C01DC108C90005C91891944607E04E
:104B100000B2C2179446042902D140B2C1178C4694
:104B200000226146944506DA0A460021404291413E
:104B30008C462D2102E0210504D52B216A461173F4
:104B4000012103E0E10701D02021F7E7029155E0C0
:104B50000A200AE0102008E0102000900021042024
:104B600004430191082703E00820002101910090EF
:104B70006002410F022907D0189A01CA1892002238
:104B80009446032908D008E01898C01DC108C90040
:104B900005C91891944603E080B2042900D1C0B23F
:104BA00000210291210729D51199702906D0009A78
:104BB0001021019B4A401A4305D00EE040216A466D
:104BC0001173012108E06146014306D030216A4695
:104BD00011731199517302210291009A0821019BCE
:104BE0004A401A430AD16146014301D1610705D504
:104BF00030216A46117301217F1E029111995829B3
:104C000004D035A10E910DA90D910DE037A1F9E762
:104C10006146019B009AFBF733FB0E9B8C469B5C25
:104C20000D9A521E0D92137061460143F0D10D98FA
:104C300005A9081A20300190600703D5012000045F
:104C4000844300E001270198874201DD381A00E023
:104C50000020019900904118029809180498401A00
:104C60000490E00306D421461A9B199A049800F098
:104C7000B3F94519002706E003A81A9AC05D1999EF
:104C800090476D1C7F1C02988742F5DBE0030CD532
:104C900021461A9B199A049800F09EF9451904E0E0
:104CA0001A9A3020199990476D1C0099481E00905F
:104CB0000029F5DC08E00D980D990078491C0D914C
:104CC0001A9A199990476D1C0199481E0190002964
:104CD000F1DC63E1092801003031323334353637F5
:104CE0003839616263646566000000003031323338
:104CF00034353637383941424344454600000000D8
:104D000000F05AF94519761C3078002800D0E2E509
:104D100028461BB0F0BD600700D406271898C01DB8
:104D2000C108C90048680A680831C30FDB07189139
:104D3000190001D09CA108E0210501D59BA104E048
:104D4000E10701D09AA100E09AA1430011985B0805
:104D5000109165280CD006DC452809D046281DD0C6
:104D6000472841D141E0662818D067283CD13CE073
:104D70000021112F01DB112000E0781C019100902F
:104D800008A911A8FFF7E8FC139905910021119AD1
:104D900015927F1C12980197009150E00120C007E6
:104DA00003900120019008A9009711A8FFF7D4FCF7
:104DB000139A149905920022119B00921298159350
:104DC000059A0192002901D0104602E0791C401892
:104DD0000190381A01D5019804E04042401E00902D
:104DE000781C0190C01B029043E0012F00DA0127DC
:104DF0000021112F01DD112000E0384601910090C3
:104E000008A911A8FFF7A8FC13990591119A002190
:104E1000129815920091019721070CD40599B94277
:104E200001DB019900E00191012904DD159A491E79
:104E3000515C302906D0B84201DA011D05DA0121A2
:104E4000029115E00199491EEDE7002805DC009963
:104E5000411800910199091A03E0019A411C9142FD
:104E600000DD01910099401A401C02900120C0070A
:104E70000390200706D402990198814202DB0020AA
:104E8000C043029000206946C87707AF012103980C
:104E90000337C907884224D0022011902B2012909A
:104EA000039800280CDA404203902D20129007E06E
:104EB0000A210398FBF71CF930317F1E03903970EB
:104EC0001199481E11900029F2DC03980028EFD1B7
:104ED000791E129808703078202108404530BF1E96
:104EE000387006A8C01BC01D0390109800780028D9
:104EF00000D00120019941180298C01709180398A1
:104F000009180498401A401E0490E00306D4214674
:104F10001A9B199A049800F05FF8451910980078C8
:104F2000002803D01A9A199990476D1CE00324D5E4
:104F300021461A9B199A049800F04EF845191CE076
:104F40000098002807DB00990598884203DD159832
:104F5000405C199901E0199930201A9A90470098FD
:104F60006D1C401C00900298401E0290002804D145
:104F70001A9A2E20199990476D1C0199481E01908C
:104F80000029DDDC05E038781A9A7F1C19999047D2
:104F90006D1C0399481E03900029F4DC21461A9BDE
:104FA000199A0498ACE600002D0000002B000000C8
:104FB0002000000000000000F8B5044600251E4651
:104FC0001746880404D405E039462020B0476D1CFC
:104FD000641EF9D52846F8BDFFB50446002581B00A
:104FE0001E46C80301D5302700E02027880404D5D9
:104FF00005E038460399B0476D1C641EF9D5284674
:1050000005B0F0BD0A68531C0B601070704700407B
:10501000404040404040404041414141414040408B
:1050200040404040404040404040404040404005BB
:105030000202020202020202020202020202022032
:105040002020202020202020200202020202020232
:105050009090909090901010101010101010101050
:105060001010101010101010101002020202020294
:1050700088888888888808080808080808080808B0
:105080000808080808080808080802020202400088
:105090000F5000080000000000000000010203049F
:1050A00006070809000000000102030403040608C3
:1050B0000C101820304454413F004346473F0047FE
:1050C00046473F004750473F0041434B3F00504752
:1050D0004D3F0047534E3F00544D503F0045525303
:1050E0003F005453543F00257825782578257825AE
:1050F0007825782578002C002B2B2B0031463400A6
:105100003500415441430041544448004154534800
:10511000004154444C004154534C004154575200F8
:10512000415443540041544754000000505100087A
:1051300000000020100000003847000860510008FF
:1051400010000020F00400004847000800000000A4
:1051500000000000000000000037010800002000EF
:04000005080000C12E
:00000001FF
