:020000040800F2
:10000000B8040020D5000008013B0008F91E0008D4
:1000100000000000000000000000000000000000E0
:10002000000000000000000000000000873E000803
:100030000000000000000000CD3B0008893E0008E1
:10004000E7000008E7000008293D0008E700000875
:10005000E7000008E7000008E7000008E7000008E4
:1000600000000000E7000008E7000008E7000008C3
:10007000E7000008E700000891400008AD3F0008D5
:10008000E7000008E7000008E700000800000000A3
:10009000E7000008E7000008E7000008E7000008A4
:1000A000E7000008853E0008E7000008454000081A
:1000B000E7000008E7000008000000000000000062
:1000C0000348854600F04CFB004800470D4A0008F5
:1000D000B80400200448804704480047FEE7FEE7D4
:1000E000FEE7FEE7FEE7FEE7493F0008C100000823
:1000F00030B50B46014600202022012409E00D46C0
:10010000D5409D4205D31D469540491B2546954047
:1001100040191546521E002DF1DC30BD70B500248B
:100120002546002801DA01244042002901DA012590
:100130004942FFF7DDFFAC4200D04042002C00D026
:10014000494270BD03460B439B0703D009E008C931
:10015000121F08C0042AFAD203E00B780370401C77
:10016000491C521EF9D27047D2B201E00270401C05
:10017000491EFBD270470022F6E710B513460A4627
:1001800004461946FFF7F0FF204610BD10B504469F
:1001900005E00B780370401C002B00D0491C521E58
:1001A000F7D2204610BD421C0178401C0029FBD12B
:1001B000801A704710B5002200E0521C835C8C5CF2
:1001C000A34201D1002BF8D1D8B2E1B2401A10BD40
:1001D00070B5104D002800D12868002414E00A46AC
:1001E00002E09E4203D0521C1378002BF9D1DAB200
:1001F000224307D0002B06D0002C04D00021017030
:10020000401C04E00446401C0678002EE7D128601C
:10021000204670BD0000002070B5064604F0ECFDDD
:10022000046805460A220021304600F059F82C6087
:1002300070BD0122D207002800DB101A002900DB64
:10024000511A814201D801207047002070470122D5
:10025000D207002800DB101A002900DB511A814266
:1002600001D90120704700207047C217C10F5040CC
:1002700010B54018CA079623002100F071F810BD90
:10028000F0B51FB40646002082B005464024019117
:1002900000901BE0019922460F46304600F082FA9A
:1002A000049A059B801A994110D31046194622469C
:1002B00000F068FA361A8F4101972246012000218A
:1002C000009F00F05FFA38184D4100902046641EF0
:1002D0000028DFDC019B00982946324607B0F0BDBC
:1002E000F7B5009C0F4600262578641C002D05D02C
:1002F00000F07CFA0068405DC007F5D12B2D02D0DC
:100300002D2D18D0641E39462046029A00F072FA4C
:10031000002F04D03968A14201D1009939607105DC
:10032000022400290BDA4042002803DD04F064FDBA
:100330000460A007FEBD012080020643E3E7002819
:10034000F8DA04F059FD04600048FEBDFFFFFF7FAE
:10035000002904DA401C490001D1400840007047E0
:1003600070B40024050C05D11024000402D100292A
:1003700021D01124050E01D100020834050F01D14E
:100380000001241D850F01D18000A41C002801DB81
:100390004000641C002908D020252E1B0D46F54086
:1003A000A14000D001212943084301061B1B000A7C
:1003B000DB1D02D5002070BC7047DB0518188018C3
:1003C0000029F8DA401C4900F5D170BC4008400013
:1003D00070470000F0B507460846584087B0C00F88
:1003E000049048000E46590040084908BC1A88414C
:1003F00005D2384631461E4617460B46024658007F
:10040000400810434CD0300D039040055900400D7A
:10041000490D0590401A0290402872DA1803012114
:10042000000B09050843019004980092002805D0AC
:100430000199524200208841009201900298402187
:100440000A1A0199009800F09DF905460C466B4682
:1004500007CB00F0B8F9C0197141039A0E0D0023C3
:10046000D71756401A467A40164344D0049A002AB9
:100470002DD0029A012A039A15DC1205C01A914167
:1004800001263605001C7141D20F059ED20700934C
:10049000019202962A46234600F00CFA07B0F0BDFE
:1004A00038463146FAE71605224A0F46B218C01AF6
:1004B000B74101210905001C4F4100187F41114639
:1004C00018187941E20F10436D19644113E0E207F7
:1004D0006D0815436408C2071443039A01261205E8
:1004E000C01A91413605001C7141CE0740083043C7
:1004F0004908C01851412A46234600F0CEF9CDE7FD
:10050000FFE7049801224000C117121A00238B4113
:1005100004983146C417381AA141EEE730B40124DB
:10052000E407634030BC55E730B40124E407614080
:1005300030BC4FE70000E0FFF0B51FB488B00B9966
:100540000998002448400999C00F490049080991B9
:10055000C0070B990090490049080B910999089828
:10056000A64608431CD00B990A98084318D009984E
:1005700001244000420D4800410D09982405000364
:10058000000B204309900B980003000B20430B90B5
:1005900050181C494018002201901446104605E0EE
:1005A000002001460DB0F0BD032801DA034600E04B
:1005B00003239C46C11A0AAE0AE05F0008ADED5B5A
:1005C0004F00F75B7D430027AA187C41491C5B1E46
:1005D0006145F2DD410004AB5A522104120C0A437A
:1005E000240C401C0828DFDB01980290009970461B
:1005F00001910090059B049A0799069800F05AF91A
:10060000D0E700000DFCFFFFF0B50C465C4085B064
:10061000E40FE40703944C00002664085900944654
:10062000490802460296224321D062460A431ED060
:100630006200570D4A000E032303550D01240246A4
:100640002C492405781B1B0B360B401823432643EB
:10065000614600901C46501AB44103D30098401CD8
:10066000009002E0921800985B41002803DA002015
:10067000014605B0F0BD0020012109050746864668
:1006800011E064461D46141BB54106D36546521B56
:10069000B341744607430C43A646CD0740084908BA
:1006A000284392185B4105460D43EAD11046184392
:1006B00013D06046194650407140084306D060464A
:1006C000101AB34106D20122002306E000220123C2
:1006D000DB0702E00122D243531000987446010563
:1006E000381C6141029C039D0019694100F0D5F856
:1006F000BFE70000FD0300004A0009030123090BC6
:100700001B0519430A4B10B5520D9A4202DA00201C
:10071000014610BD064B34339A4203DC9A1A00F0AE
:1007200041F810BD034BD21800F02CF810BD0000AA
:10073000FF030000CDFBFFFF10B5002904DB0124FF
:10074000E40740428C412146002B04DB1C46012378
:10075000DB075242A341994200D1904210BD0000F4
:10076000064C0125064E05E0E36807CC2B430C3C04
:1007700098471034B442F7D3FFF7A6FCF4570008AB
:100780001458000810B5202A04DB0146203A914095
:10079000002010BD914020239C1A0346E3401943DA
:1007A000904010BD10B5202A04DB0846203AD04006
:1007B000002110BD0B46D340D0402024A21A914006
:1007C0000843194610BD10B5202A06DBCB17084692
:1007D000203A1041C1170B4306E00B461341D040AD
:1007E0002024A21A91400843194610BD00487047C2
:1007F00058570008F7B582B0029C00272078641C87
:1008000015460197302802D0002D15D015E020782C
:100810000127641C782804D0582802D0002D09D064
:100820000BE0002D01D0102D07D1002710252078D6
:10083000641C02E0082500E00A250026009610E06E
:100840000099012769430818020C294680B27143B8
:1008500000908E183804864201D301200190207840
:10086000641C294600F078F80028E9DA039800288B
:1008700005D0002F01D0641E00E0029C04600198A6
:10088000002806D004F0B8FA02210160C81E05B0A5
:10089000F0BD009930040843F9E710B5002B08DAE1
:1008A0000024401C614192185B411A4301D1400869
:1008B000400010BDF0B51FB482B005460C0003D057
:1008C000084604F081FA02E004F07EFA2030024685
:1008D000009021462846FFF755FF049B059A0446E1
:1008E0000F4618431143084314D0184610431BD039
:1008F000009840210A1A18460599FFF753FF05464C
:100900000E46009A05990498FFF73CFF084305D06E
:10091000012004E02046394607B0F0BD0020C11791
:1009200005430E432C43374300990E986305401A44
:100930007905E40A00220C43FD0A0A3002D50020A2
:100940000146E9E70105101969410C9C0D9D00194C
:100950006941FFF7A2FFDFE73A2800D230382023B1
:1009600002469A43412A01D310463738884201D3C0
:100970000020C0437047000080B586B001A8002168
:1009800001715E4800680490FFE7049859490968BE
:1009900088423FD0FFE700200390FFE7039802283A
:1009A0000ADCFFE7039801A90A1852780A54FFE706
:1009B0000398401C0390F1E704984F49085C039AA0
:1009C00001AB98540498085C3F2818D1FFE71449FC
:1009D00001A8FFF7EFFB00280CD1FFE71048042126
:1009E00000F074FA0499491C444A116001210591F0
:1009F000009012E00498401C40490860FFE7FFE7C0
:100A00000498401CC117890E41183F229143401A97
:100A10000490BAE700200590FFE7059806B080BD76
:100A20009157000881B0074800680006002803D5E8
:100A3000FFE70120009002E000200090FFE700980F
:100A400001B070471004005080B588B07D20C00010
:100A500003F0DEFAFFE7264800680021C0070028FF
:100A600002910BD1FFE7F1480068F2490818401ED7
:100A700000783F38411E88410290FFE70298C00786
:100A8000002801D0FFE7E6E7E8480068401EEA4991
:100A9000086005A800210181069105910491FFE7F6
:100AA000E3480068E4490968884215D0FFE7E04858
:100AB0000068E049085C04994A1C049205AA505455
:100AC000FFE7DB480168491CCA17920E8A183F23CA
:100AD0009A43891A0160E3E705A80190FFF763FBD9
:100AE000019900900846009903F050FB08B080BDC2
:100AF000100000405800002010000020500000208E
:100B000080B5A6B0FFE71DA800F0D2FC002800D0F9
:100B100094E01DA802211C901B9100F0D7F92C2114
:100B20001A900846199100F0B3F91C998A1C189084
:100B300010461B9900F0CAF919991790084600F061
:100B4000A7F91C990A1D169010461B9900F0BEF9D2
:100B500019991590084600F09BF91C998A1D14906C
:100B600010461B9900F0B2F919991390084600F04D
:100B70008FF91C990831129008461B9900F0A6F9CC
:100B800019991190084600F083F91C990A311090C8
:100B900008461B9900F09AF919990F90084600F041
:100BA00077F91C990C3108220E900846114600F086
:100BB0008DF919990D90084600F06AF91C991431C5
:100BC00001220C90084611460B9200F07FF919990A
:100BD0000A90084600F05CF91C991531032209902F
:100BE0000846114600F072F919990890084600F07D
:100BF0004FF91C991831072207900846114600F05A
:100C000065F919990690084600F042F91C991F31C0
:100C1000059008460B9900F059F919990490084677
:100C200000F036F90A210390084600F031F921213D
:100C30001C9A02901046FFF79EFA64E73F2000F0EE
:100C400027F900210190084626B080BD80B584B008
:100C5000014602900298401E0828019100902ED86B
:100C60000098C0467844007940008744040C08107E
:100C700014181C20240000F03BFA039023E000F03D
:100C800045F903901FE000F08DF903901BE000F0A0
:100C9000E7F8039017E0FFF7D7FE039013E003F0A7
:100CA000DDFB03900FE003F0AFFC03900BE000F0DE
:100CB000D9FB039007E0FFF723FF039003E0002038
:100CC000C0430390FFE7039804B080BD80B590B0A7
:100CD000564800680D90564800680E90FFE70E9841
:100CE0000D99884216D0FFE70E985249085C3F28BC
:100CF00005D1FFE70E98401CF94908600AE0FFE7BC
:100D00000E98401CC117890E41183F229143401A8A
:100D10000E90E4E70E980D99884203D1FFE700207A
:100D20000F907FE068463221FFF725FA00200E90F1
:100D3000FFE7ED480068EA490968884215D0FFE7F7
:100D4000E9480068E549085C0E994A1C0E926A461B
:100D50005054FFE7E4480168491CCA17920E8A18EC
:100D60003F239A43891A0160E3E734496846FFF755
:100D700021FA002803D1FFE701200F9052E030490B
:100D80006846FFF717FA002803D1FFE702200F900B
:100D900048E02C496846FFF70DFA002803D1FFE729
:100DA00003200F903EE028496846FFF703FA002829
:100DB00003D1FFE704200F9034E024496846FFF791
:100DC000F9F9002803D1FFE705200F902AE0204918
:100DD0006846FFF7EFF9002803D1FFE706200F90E0
:100DE00020E01C496846FFF7E5F9002803D1FFE73A
:100DF00007200F9016E018496846FFF7DBF9002836
:100E000003D1FFE708200F900CE014496846FFF774
:100E1000D1F9002803D1FFE709200F9002E000205C
:100E20000F90FFE70F9810B080BDC046580000201B
:100E3000500000201000002054000020AA57000895
:100E400096570008A05700088C57000882570008E2
:100E5000875700089B570008A55700087D570008D2
:100E600080B588B004A80A219E4A039000F084FA55
:100E7000039902900846FFF796F9039901900846F6
:100E8000019900F023F800210090084608B080BDC9
:100E900080B584B0014603AA10701078094A029008
:100EA0001046029A0191114602F082FAFFE70648C5
:100EB000006840210840402801D0FFE7F7E7002004
:100EC00004B080BD003801401C38014080B586B0B8
:100ED0000A46034605900491002003900292019374
:100EE000FFE70398049988420DDAFFE70598007838
:100EF000FFF7CEFF0599491C05910090FFE7039885
:100F0000401C0390EDE7002006B080BDF0B595B021
:100F1000EE480C9001F079FE0EA988710C980B91A7
:100F200001F055FE0B9948710C9801F032FE0B99B7
:100F300008710C9801F0F0FB0DA988700C980A91CB
:100F400001F004FC0A9948700C9801F031FC0A99F0
:100F5000C8700C9801F018FC0A9908700B988279F7
:100F6000437904798D784E78CF780878694608619E
:100F7000CF608E604D600C60D54911A8099003F0D8
:100F80000FFF099908900846FFF70DF90999079096
:100F900008460799FFF79AFF00210690084615B00A
:100FA000F0BDC046B0B592B00AA8002101810B91F6
:100FB0000A917D20C00003F02BF8FFE7BD480068D0
:100FC0000021C007002809910BD1FFE7BA4800684B
:100FD000BA490818401E00783F38411E88410990E0
:100FE000FFE70998C007002801D0FFE7E6E7B2480D
:100FF0000068401EB24908600FA8002101811091CD
:101000000F910890079100F0DFF90A21354A089BFB
:101010000690184600F06FF90D9000F09DF90799C1
:101020000E910590FFE7A7480068A5490968884226
:1010300015D0FFE7A3480068A049085C0E994A1C38
:101040000E920FAA5054FFE79E480168491CCA1728
:10105000920E8A183F239A43891A0160E3E7994860
:101060000168491C016096480168491C016011989B
:101070000AA90870109800011C4A80180FAB5C790F
:10108000303C20434870987900018018DA79303A72
:10109000104388700F980A22144644435878201849
:1010A000894C0019C870987815464543D878281897
:1010B000001908710491039200F086F9094A049915
:1010C00002900846039900F016F90D9000F044F9DB
:1010D0000D990190084612B0B0BDC0461000002026
:1010E00054000020000008085000002000FDFFFF11
:1010F000F0B59BB07D20C00002F08AFFFFE76D488D
:1011000000680021C007002812910BD1FFE76A4850
:1011100000686A490818401E00783F38411E88411F
:101120001290FFE71298C007002801D0FFE7E6E71A
:1011300061480068401E6249086000201690FFE781
:10114000604800685E490968884215D0FFE75D483D
:1011500000685A49085C16994A1C169217AA5054FE
:10116000FFE758480168491CCA17920E8A183F23A6
:101170009A43891A0160E3E717A80021817314914B
:10118000179A0A231C4654434278A2184E4C12194F
:1011900014ADAA7182781E465643C278B21812194D
:1011A0006A71189A1E4656434279B21812192A716A
:1011B000464A1190104610910F930E940D950C9283
:1011C00001F0AAFA13A98870119882790F9B5343F2
:1011D000C2799A180E9BD2188A70199A0F9C5443A0
:1011E000427AA218D2184A70827A0F9C5443C27A6B
:1011F000A218D218CA70027B303A072410460B910D
:101200002146FEF78BFF0B9A11700C990A90084645
:1012100010990D9A01F014FD0C9909900846109947
:101220000B9A01F0E1FA0C990890084601F0EDFCE8
:101230000D9988710C9801F0CAFC0D9948710C98B1
:1012400001F0A7FC0D9908710C9801F065FA0B9953
:1012500088700C9801F07AFA0B9948700C9801F09C
:10126000A7FA0B99C8700C9801F08EFA0B990870C8
:101270000D988279437904798D784E78CF78087803
:1012800069460861CF608E604D600C60104911980E
:1012900003F086FD119907900846FEF784FF119927
:1012A000069008460699FFF711FE1099059008462A
:1012B0001BB0F0BD100000405800002010000020BE
:1012C0005400002050000020F0FDFFFF00280040E7
:1012D000AF57000810B585B00A46034604AC20702D
:1012E00003910398029004980299087000200192DB
:1012F000009305B010BDB0B588B013460C46054646
:1013000006900591049200200390029301940095A9
:10131000FFE703980599884217DAFFE706980078F7
:101320000499FFF7D7FF002804D0FFE70020C0434F
:1013300007900DE00698401C06900498401C04900D
:10134000FFE70398401C0390E3E700200790FFE7C6
:10135000079808B0B0BD7047FFE741480068C00774
:10136000002801D0FFE7F8E7EC48016801221143AB
:10137000016000207047C046B0B588B013460C46E7
:101380000546079006910592059803900020049069
:10139000029301940095FFE70498069988420FDABA
:1013A000FFE703980078079908700798401C07909A
:1013B0000398401C0390FFE70498401C0490EBE75F
:1013C000002008B0B0BD000081B0D4480068C0075C
:1013D000002808D0FFE70748074901600749016076
:1013E0000020009003E00020C0430090FFE7009839
:1013F00001B070470C200240EFCDAB890504030219
:1014000083B001460190C54802684123DB001A43BE
:1014100002600198002202600091FFE7DB4800684B
:10142000C007002801D0FFE7F8E7D8480068800728
:10143000002804D5FFE7D5480221016003E0002021
:10144000C043029008E0B54801684122D2009143B0
:10145000016000200290FFE7029803B07047C04689
:101460001820024080B58AB09A4809909B4808909D
:1014700007A900220A7006900591FFF7A5FF099AB7
:1014800008A90423049008461946FFF734FF039087
:1014900000F028F9069902900846FFF7B1FF019085
:1014A000FFF75AFF05990A78009010460AB080BDF0
:1014B00010B588B0014606900020059005A80422CA
:1014C000844B049111461A46FFF756FF0699174AB6
:1014D0001368202403900846214602921A46FFF71B
:1014E0004BFF02990A6820320A600A687C4B9A42D4
:1014F000019007D3FFE70D48784901600020C04301
:1015000007900FE0094800680599884207D9FFE76E
:101510000648724901600020C043079002E00020A5
:101520000790FFE7079808B010BDC04608000020EC
:10153000F0B5A5B02E9C2D9D2C9E2B9F14902A9823
:101540001390184612901046119008461090149867
:101550002394229521962097139C1F941E931D92ED
:101560001C9114991B911D9A17AB1A701BAA557ADE
:101570005D70957A9D70D57ADD70209B16AD2B70CD
:10158000537D6B70937DAB70D37DEB70229B15AD5B
:101590002B70537F6B70937FAB70D27FEA701AAA67
:1015A00004214C4B0F9010461A46FFF7E5FE1A999E
:1015B000494A91420E9003D8FFE748481A90FFE746
:1015C0001A98203019901A984549884204D3FFE7A9
:1015D0000020C04324907AE0FFF7F6FE19A9042208
:1015E0003C4B0D90084611461A46FFF784FE0C90BE
:1015F00000F078F81AA90978490600290B9005D15E
:10160000FFE71A98FFF7FCFE0A90FFE71BA8189067
:10161000189909681A9A09900846114600F086F848
:1016200009990A1D1892189A12681A9B191D089098
:10163000104600F07BF817A91891189909681A9AB2
:10164000083207900846114600F070F809990C31ED
:101650001891189909681A9A0C3206900846114692
:1016600000F064F8099910311891189909681A9ACC
:10167000103205900846114600F058F816A9189146
:10168000189909681A9A143204900846114600F015
:101690004DF8099918311891189909681A9A183251
:1016A00003900846114600F041F815A918911899C1
:1016B00009681A9A1C3202900846114600F036F862
:1016C0000190FFF749FE002124910090FFE7249844
:1016D00025B0F0BD14000808FF58000800590008A4
:1016E000FF7F010881B00D480068800700280DD5F4
:1016F000FFE70B480B4901600B490160074801688F
:101700000222914301600020009003E00020C043CA
:101710000090FFE7009801B07047C04604200240E7
:1017200010200240BFAE9D8C1615141385B00A46DA
:1017300003460390029172B601920093FFE71348AB
:101740000068C007002801D0FFE7F8E70398029976
:101750000860FFE70D480068C007002801D0FFE7D8
:10176000F8E762B6094800688007002806D5FFE759
:101770000648022101600020049003E00020C043DD
:101780000490FFE7049805B07047C0461820024057
:101790000748016801221202114301607047C046E8
:1017A0000348016801221202914301607047C0465C
:1017B0001400005005480168102211430160704771
:1017C00002480168102291430160704714040050E0
:1017D00080B586B0124805901248049012480390D4
:1017E0001248029000200190FFE701980F2813DCB7
:1017F000FFE7FFE7F34800680006002801D5FFE790
:10180000F8E7019802A9095CED4801F0A1FBFFE7A8
:101810000198401C0190E8E7002006B080BDC0465A
:101820000100053F010101010800F100B562060158
:10183000F0B5C7B0519C509D4F9E4E9F0F904D9854
:101840000E904C980D9018460C9010460B90084640
:101850000A900F9846944595449643970E9C42945F
:101860000D9D419540933F923E913DA900220A7003
:1018700001213C913B921BA97D2309900846194602
:101880000892FEF778FC08981A901990189014A9FD
:101890000870129011901090FFE714A800780028AB
:1018A00000D080E13C98401E0428079000D979E1DF
:1018B0000798400078448088400087440400730102
:1018C00029008C00BF00BE48002101F041FBFFE76A
:1018D000BC4800680006002801D5FFE7F8E7B848D3
:1018E00001F00FFB3DA908700878242805D1FFE717
:1018F00003203C9000201A90FFE73DA80078B5280F
:1019000005D1FFE700201A9004203C90FFE749E151
:10191000AB48002101F01CFBFFE7AA480068000665
:10192000002801D5FFE7F8E7A54801F0EAFA3DA94C
:1019300008703D981A9A1BAB98540878FF2803D179
:10194000FFE701203C9006E03DA80078FF2801D089
:10195000FFE7FFE7FFE71A981BA9085C2A282FD1A9
:10196000FFE79748002101F0F3FAFFE79548006888
:101970000006002801D5FFE7F8E79148069001F03E
:10198000C0FA15A908700021069801F0E1FAFFE7F6
:101990008C4800680006002801D5FFE7F8E7884872
:1019A00001F0AFFA15A948701A981BA908180D2262
:1019B00042701A9808180A21817005203C90FFE7B0
:1019C0001A987D2803DBFFE701203C90FFE71A9877
:1019D000401C1A90E6E07A48002101F0B9FAFFE7CE
:1019E000784800680006002801D5FFE7F8E774484A
:1019F00001F087FA3DA908703D981A9A1BAB9854DC
:101A00000878FF2803D1FFE701203C900BE03DA8B8
:101A10000078FF2806D0FFE73DA801786A4801F06A
:101A2000D4FCFFE7FFE71A987D2803DBFFE70120DE
:101A30003C90FFE71A98401C1A90B3E01BA800786E
:101A4000502852D1FFE71BA8407855284DD1FFE719
:101A50001BA88078422848D1FFE758491BA8FEF709
:101A6000B7FB179000201890FFE7189815283BDC6B
:101A7000FFE752490020FEF7ABFB17901898801E35
:101A8000062805902BD805987844007940008744B3
:101A9000030B101826261D003EA80A3017990A22AB
:101AA000FEF774FB04901AE0179800783EA90875B9
:101AB00015E03EA8153017990A22FEF767FB039040
:101AC0000DE0179800783EA9C87708E01798FEF750
:101AD000A3FBFEF7CAFB469017201890FFE7FFE72D
:101AE0001898401C1890C0E758E01BA800784728B9
:101AF00053D1FFE71BA840784E284ED1FFE71BA823
:101B00008078522849D1FFE71BA8C0784D2844D1DE
:101B1000FFE700201390FFE713981BA902900846E7
:101B2000FEF741FB0299814236D2FFE713981BA9C9
:101B3000085C2C2808D1FFE71298401C12901198DD
:101B4000109013981190FFE71298022810D1FFE728
:101B50003B9800280CD1FFE710981BA90818411CDE
:101B60003EA80422FEF712FB01213B910190FFE702
:101B700012980A280BD1FFE73EA8001D10991BAA56
:101B80005118491C0622FEF701FB009004E0FFE714
:101B90001398401C1390BFE7FFE7FFE714A801214B
:101BA0000170FFE779E63EA809991CC81CC11CC852
:101BB0001CC11CC81CC147B0F0BDC046BE570008C0
:101BC000003001400830014000380140F0B5C5B098
:101BD0003CA82421FEF7CFFABF48449038A8012141
:101BE000017032203790002036902290FFF7E8FDF8
:101BF000BA480168402211430160FFF7C9FD9620F1
:101C000002F0D6F92190FFF7CBFD7D20800002F095
:101C1000CFF92090FFF7DCFD22993591B04A126888
:101C2000002A1F9052D1FFE7FFE7369803284CDCCB
:101C3000FFE7AC4802F0ECF9FFE7AB480068002191
:101C4000C00700281E9112D1FFE74498A749FEF76C
:101C5000FEFA012100281D9106D1FFE73CA8007A79
:101C6000414248411D90FFE71D981E90FFE71E98D6
:101C7000C007002825D0FFE73E9B3D9A3C993F983E
:101C8000409C419D429E439F1C9044981B906846F7
:101C90001A901B9819911A9948610F61CE608D6056
:101CA0004C601C9808602CA818901999FFF7C0FD8B
:101CB0003CA818991CC91CC01CC91CC01CC91CC04C
:101CC000BBE73698401C3690AFE748E0854802F005
:101CD0009FF9FFE7844800680021C007002817919A
:101CE00012D1FFE744988149FEF7B1FA012100289B
:101CF000169106D1FFE73CA8007A41424841169070
:101D0000FFE716981790FFE71798C007002825D01F
:101D1000FFE73E9B3D9A3C993F98409C419D429EE7
:101D2000439F15904498149068461390149812910C
:101D3000139948610F61CE608D604C601598086002
:101D400023A811901299FFF773FD3CA811991CC9A3
:101D50001CC01CC91CC01CC91CC0BBE7FFE75F48F6
:101D60000168402291430160FFF724FD44985F49D8
:101D7000FEF75FFA002810D1FFE738A800210170B4
:101D80003CA85B4941820182C1818181418115303A
:101D90000A213022FEF7E8F9FFE73C980A210A46BB
:101DA00042433CA84378D218524BD2183AAC227125
:101DB00082780D465543C278AA18D21862713D9AAE
:101DC0000C4654434279A218D21839ACA2708279D9
:101DD0000D465543C279AA18D21862703E9A5143F3
:101DE000407A0818C018E0706078022806DCFFE727
:101DF00039A8C1784A1EC270109104E039A8C07891
:101E0000801E1090FFE7109839A98A781018887002
:101E100048781722424309200F9010460F9A0E91DE
:101E20001146FEF765F90E998A788018CA789308EA
:101E3000C018001D64210D901046FEF759F90D9948
:101E4000081A0721FEF76AF90E9A1170D1782C2929
:101E50000C901DD0FFE739A8C078012818DBFFE7F8
:101E600039A8C078632813DCFFE73B993A9839AA70
:101E7000137854782402E3189478D2781202121955
:101E80001204D21801F0D6FF154801210160FFE7C6
:101E900038A8007801281BD1FFE73F9B3E9A3D9967
:101EA0003C98409C419D429E439F0B9044980A90D1
:101EB000684609900A98089109990861CF608E6078
:101EC0004D600C600B980899FFF732FB0790FFE715
:101ED000002045B0F0BDC046804FC34700300140F0
:101EE0005C000020307500001000004000004842F7
:101EF00030300000F0FDFFFF80B5FFE701F058FE35
:101F0000FCE7000082B00146019001980C4A13687A
:101F100083431360009102B07047C04684B001460D
:101F200003900398064A1368034313601068039AEA
:101F30001040029002980191009004B07047C04692
:101F40003810024082B00146019001980C4A136893
:101F500083431360009102B07047C04684B00146CD
:101F600003900398064A1368034313601068039AAA
:101F70001040029002980191009004B07047C04652
:101F80003410024009480068012108407047C046EB
:101F900082B0014601900548026801239A43019BE3
:101FA0001A430260009102B07047C0460020024010
:101FB00080B588B00A460346079006910020059038
:101FC000049003920293FFE7069800680599C840C1
:101FD000002845D0FFE706980068059901228A404D
:101FE000104004900498002836D0FFE70798049921
:101FF000069A526800F092F806984068012805D0C9
:10200000FFE706984068022807D1FFE70798049980
:10201000069A926800F0CAF8FFE707980499069AB2
:10202000126900F0AAF806984068022813D1FFE769
:102030000498FF2807D8FFE707980499069A526981
:1020400000F031F806E007980499069A526900F00A
:1020500047F8FFE7FFE7FFE70598401C0590B3E767
:1020600006984068012805D0FFE7069840680228D6
:102070000AD1FFE7079806990A68C96801911146D5
:10208000019A00F064F8FFE7002008B080BD84B03A
:102090000A460346039002910298039988620192CE
:1020A000009304B0704770B586B013460C460546E1
:1020B0000590049103920598006A04990A465243D8
:1020C0000E46564371430F224A439043039A4A43B4
:1020D00010430599086202930194009506B070BD03
:1020E00070B586B013460C460546059004910392E0
:1020F0000598406A0499090A0A4652430E46564317
:1021000071430F224A439043039A4A43104305996F
:10211000486202930194009506B070BDB0B586B0D8
:1021200013460C46054605900491039205980068F5
:102130000499494303224A439043039A4A43104374
:102140000599086002930194009506B0B0BDB0B542
:1021500086B013460C4605460590049103920598F7
:10216000406804998843039A4A431043059948609C
:1021700002930194009506B0B0BDB0B586B0134689
:102180000C4605460590049103920598C068049991
:10219000494303224A439043039A4A431043059913
:1021A000C86002930194009506B0B0BDB0B586B08A
:1021B00013460C46054605900491039205988068E5
:1021C0000499494303224A439043039A4A431043E4
:1021D0000599886002930194009506B0B0BD000097
:1021E00084B0014603900398064A136803431360C2
:1021F0001068039A1040029002980191009004B078
:102200007047C0462C10024080B582B00146019054
:1022100001987D22D2000091114600F003F802B02F
:1022200080BD000080B584B00A4603460390029149
:102230000398029901920093FDF75AFF401E054949
:10224000086005480021016004480521016004B0D0
:1022500080BDC04614E000E018E000E010E000E0BF
:102260000A48016801221202114301607047C0460A
:1022700082B001460190054802680323DB029A43BD
:10228000019B1A430260009102B070470070004049
:10229000D248016801229204114301607047C04690
:1022A000CE4801680122D204114301607047C04644
:1022B000D2480068F02108407047C046CF48006807
:1022C0000721090208407047CC4800680721C9026D
:1022D00008407047C94800680C2108407047C04654
:1022E000C64800680C2108407047C04680B582B0DF
:1022F00001460190009101F0A5FC01990860019848
:10230000006801F065FC019948600198406801F09F
:1023100073FC019988600198406801F07FFC019985
:10232000C86002B080BD000080B586B0014605904F
:102330000020049005980328039139D1FFE7059800
:1023400000F084F83D4940180328029027D80298ED
:1023500078440079400087442101051701F072FCA0
:10236000049024E000F07EF800280CD0FFE700F095
:102370007FF8002803D0FFE73248049002E030489D
:102380000490FFE7FFE712E000F088F8002804D08F
:10239000FFE70120C0030490FFE708E0FFE701F03A
:1023A00051FC01F015FC01F039FC0490FFE7FFE758
:1023B00005980C283FD1FFE7059800F047F822491F
:1023C00040180C2801902DD80198C0467844007917
:1023D0004000874426272727062727270A2727275D
:1023E0001C0001F02FFC049024E000F03BF80028D2
:1023F0000CD0FFE700F03CF8002803D0FFE71148BD
:10240000049002E00E480490FFE7FFE712E000F0BE
:1024100045F8002804D0FFE70120C0030490FFE73F
:1024200008E0FFE701F00EFC01F0D2FB01F0E4FB55
:102430000490FFE7FFE7049806B080BD0000FDFFB1
:102440000024F40000093D000000F4FF82B00146C2
:10245000019073480068019A1040120410430091E3
:1024600002B0704723480068042108408008704784
:10247000204800681021084000097047574801684B
:1024800001221202114301607047C04653480068A0
:10249000012149020840400A7047C0464F48006881
:1024A000012149020840400A7047C04682B00146F7
:1024B00001904A4802680323DB029A43019B1A43B6
:1024C0000260009102B070470A48016801221202BE
:1024D000114301607047C046164800680721490350
:1024E0000840704703480068012149020840400A3B
:1024F0007047C0460010024082B0014601900D486E
:102500000268FF231B069A43019B1B06D218026038
:10251000009102B07047C04682B001460190054864
:10252000026807235B039A43019B1A4302600091F0
:1025300002B070470410024030480068032189054A
:10254000084070472D480068012109040840704781
:102550002A4800680F218904084070471F48016815
:102560000122D204914301607047C04682B0014607
:10257000019022480268F0239A43019B1A430260AB
:10258000009102B07047C04682B0014601901B48DE
:10259000026807231B029A43019B1A4302600091C1
:1025A00002B0704782B001460190144802680723C8
:1025B000DB029A43019B1A430260009102B070470C
:1025C00082B0014601900548026803231B049A4328
:1025D000019B1A430260009102B070475010024004
:1025E00082B0014601900548026803239A43019B8B
:1025F0001A430260009102B07047C0460C100240BE
:1026000010B582B00146019005480268019B1C0C80
:10261000A2439BB21A430260009102B010BDC046B3
:102620004C10024082B0014601900198826801235B
:102630001B029A438260009102B0704782B001464B
:1026400001900198826801231B021A438260009165
:1026500002B0704784B00A46034603900291039883
:10266000C06905490840029908430399C86101926D
:10267000009304B07047C0467F7F7F7F84B00A46D6
:102680000346039002910398C0697F21884302A901
:10269000097808430399C8610192009304B0704718
:1026A00082B0014601900198C06880221040A022AB
:1026B000D2438018019AD060009102B070470000A8
:1026C000F0B58BB0109C1D4616460F460590049041
:1026D00005980A900991089207930999490310AA4D
:1026E00012781204114307AA12781202114308AAA1
:1026F0001278891806910A994968064A1140069A83
:1027000011430A9A516003940295019600970BB009
:10271000F0BDC046C00000FF83B0014602900298A1
:1027200040683F221040019001981040009103B092
:10273000704783B001460290029840683F221040E3
:10274000019001981040009103B0704783B001469A
:102750000290029840681F221202104001900198D6
:102760001040000A009103B0704783B00146029008
:10277000029840681F2212021040019001981040F8
:10278000000A009103B0704782B0014601900198A1
:10279000406880B2400B009102B0704782B00146A1
:1027A00001900198406880B2400B009102B07047E0
:1027B00083B00146029002984068FF221204104044
:1027C000019001A88078009103B0704783B0014662
:1027D000029002984068FF2212041040019001A864
:1027E0008078009103B07047B0B58EB013460C46A8
:1027F00005460D900C910B920AA8012101700C98CE
:1028000000280993089407950DD1FFE70B984078AD
:10281000C006002807D5FFE70B984178EF2211404A
:102820000A314170FFE70C98002801D1FFE700E072
:10283000FFE70D9800F076F80D9800F09BF801285E
:1028400051D0FFE70C9800280ED0FFE70D980B99A8
:102850000A788B784C78C9786D46296011461A46FB
:102860002346FFF72DFF2AE00D980B990A788B7805
:102870000A24069018460591214604920394FDF718
:1028800037FC00010843C2B20598407803990292D0
:10289000FDF72EFC00010843C3B20598C0780399E8
:1028A0000193FDF725FC00010843C0B269460860AA
:1028B00006980499029A019BFFF702FFFFE70D4873
:1028C00000F01AF80D9800F0EBF8002806D1FFE7A9
:1028D0000D9800F043FA0AA9087003E00AA8002145
:1028E0000170FFE7FFE70D9800F03BF80AA80078B9
:1028F0000EB0B0BD0028004082B0014601900198A2
:102900008022D243C260009102B0704782B001467B
:1029100001900198CA2242620198532242620091BA
:1029200002B0704782B0014601900198CA2242620B
:10293000019853224262009102B0704782B0014672
:10294000019001980022D243C260009102B070470A
:1029500082B0014601900198FF224262009102B0CC
:10296000704782B0014601900198FF2242620091B7
:1029700002B0704780B586B0014605907D20C0004A
:10298000049003A8002202700598019100F072F8EB
:10299000002830D1FFE70598FFF7D0FF059800F039
:1029A00069F80290FFE7049800210028009106D002
:1029B000FFE70298401E411E88410090FFE7009803
:1029C000C007002816D0FFE700F0D2FA012804D192
:1029D000FFE70498401E0490FFE7059800F04AF8CE
:1029E00002900498002804D1FFE703A80121017098
:1029F000FFE7D8E7FFE703A8007806B080BD82B004
:102A0000014601900198806840221040009102B078
:102A1000704780B586B00A4603460590049103A826
:102A200001210170059802920193FFF77BFF059841
:102A3000FFF7A0FF012816D0FFE705980499096861
:102A400000F04CF805980499896800F059F8059849
:102A50000499496800F02FF80598FFF74DFF03A887
:102A600000210170FFE70598FFF77BFF03A80078BE
:102A700006B080BD82B0014601900198C068402236
:102A800010408009009102B0704782B00146019069
:102A90000198C068202210404009009102B07047A0
:102AA00082B00146019001988068202210404009C0
:102AB000009102B0704784B00A4603460390029129
:102AC000039800697F210904884302990904084397
:102AD000039908610192009304B0704784B00A46DC
:102AE000034603900291039880684021884302992D
:102AF0000843039988600192009304B07047000076
:102B000084B00A4603460390029103980069054980
:102B1000084002990843039908610192009304B0A8
:102B20007047C0460080FFFFF0B58BB0109C1D467B
:102B300016460F460590049005980A900991089250
:102B40000793099908AA12781204114307AA127868
:102B50001202114310AA1278114306910A990968CA
:102B6000054A1140069A11430A9A1160039402958E
:102B7000019600970BB0F0BD808080FF82B00146C7
:102B8000019001980068012292051040009102B066
:102B9000704783B001460290029800683F221204F9
:102BA0001040019001981040000C009103B0704754
:102BB00083B001460290029800683F221204104040
:102BC000019001981040000C009103B0704783B051
:102BD00001460290029800687F2212021040019084
:102BE00001981040000A009103B0704783B001467D
:102BF0000290029800687F22120210400190019812
:102C00001040000A009103B0704783B00146029063
:102C1000029800687F2210400190019810400091B6
:102C200003B0704783B001460290029800687F228B
:102C30001040019001981040009103B070470000CF
:102C4000B0B58EB013460C4605460D900C910B9214
:102C50000AA8012101700C9800280993089407958F
:102C60000CD1FFE70D98FFF7CAFE002801D0FFE75F
:102C700003E00B9800210160FFE70BE00D98FFF7E0
:102C8000BEFE002801D0FFE703E00B9800210160A1
:102C9000FFE7FFE70D98FFF745FE0D98FFF76AFE87
:102CA000012851D0FFE70C9800280ED0FFE70D98BF
:102CB0000B990A680B794C7989796D462960114620
:102CC0001A462346FFF730FF2AE00D980B990A6851
:102CD0000B790A2406901846059121460492039424
:102CE000FDF706FA00010843C2B20598407903993E
:102CF0000292FDF7FDF900010843C3B205988079FF
:102D000003990193FDF7F4F900010843C0B2694645
:102D1000086006980499029A019BFFF705FFFFE7F8
:102D20000D48FFF7E9FD0D98FFF7BAFE002806D120
:102D3000FFE70D9800F012F80AA9087003E00AA84E
:102D400000210170FFE7FFE70D98FFF70AFE0AA8D0
:102D500000780EB0B0BDC0460028004080B58AB0F3
:102D6000014609907D20C000089007A8002202704B
:102D700009980591FFF794FC0998FFF786FE0690E5
:102D8000FFE708980021002804910BD0FFE7069880
:102D9000012100280390029101D10398029002982A
:102DA0000490FFE70498C007002816D0FFE700F062
:102DB000DFF8012804D1FFE70898401E0890FFE7DC
:102DC0000998FFF762FE06900898002804D1FFE7F3
:102DD00007A801210170FFE7D3E707A800780128C1
:102DE00030D0FFE77D20C00008900998FFF74DFE26
:102DF0000690FFE7089800210028019106D0FFE720
:102E00000698401E411E88410190FFE70198C007C7
:102E1000002816D0FFE700F0ABF8012804D1FFE747
:102E20000898401E0890FFE70998FFF72EFE0690CD
:102E30000898002804D1FFE707A801210170FFE7E7
:102E4000D8E7FFE707A800780AB080BD80B586B054
:102E50000A4603460590049103A8012101700598D4
:102E60000292019300F042F8002833D1FFE7059861
:102E700000681D49084004990A684B681A438B682A
:102E80001A43CB681A430B691A434B691A438B697F
:102E90001A43CB691A43096A0A431043059908602B
:102EA00005984068042188430499C98A0843059914
:102EB00048600498006A01214903884206D1FFE76F
:102EC00005980499496A00F025F8FFE703A8002156
:102ED0000170FFE70598C1690122D2029143C161E7
:102EE00003A8007806B080BD4000FFFF82B0014615
:102EF000019001980068402210408009009102B0C2
:102F0000704782B0014601900198C068C0B200913C
:102F100002B0704784B00A4603460390029102A8AB
:102F20000088039908610192009304B0704784B04F
:102F30000A46034603900291039840681021884393
:102F400002990843039948600192009304B07047C6
:102F500085B00A460346049003A8017004980C301B
:102F600002900398029908700192009305B070478F
:102F70000E480068012109040840000C7047C04653
:102F800082B00146019001980428009106D1FFE724
:102F90000648016804221143016005E00348016806
:102FA000042291430160FFE702B0704710E000E0A7
:102FB00082B0014601900198024A1060009102B06F
:102FC0007047C0460C00002082B001460190019875
:102FD000026880239A430260009102B0704782B079
:102FE000014601900198826880239A438260009193
:102FF00002B0704782B001460190019842690123F6
:103000001A434261009102B07047000080B586B05B
:103010000A460346059004910598006803900598B8
:10302000012189078842029201930FD0FFE705989A
:10303000234988420AD0FFE705982249884205D0F3
:10304000FFE705982049884208D1FFE703987021DF
:1030500088430499496808430390FFE705980121D4
:10306000890788420FD0FFE70598154988420AD0A2
:10307000FFE705981349884205D0FFE705981249F4
:10308000884209D1FFE70398032109028843049984
:10309000C96808430390FFE70398059908600598FD
:1030A0000499896800F012F805980499098800F0DD
:1030B0002DF80598FFF79EFF002006B080BDC046A2
:1030C00000040040000801400014014084B00A469A
:1030D00003460390029102980399C86201920093FB
:1030E00004B0704784B00A460346039002910398E7
:1030F0008068054908400299084303998860019255
:10310000009304B07047C046F8BFFFFF84B00A4682
:1031100003460390029102980399886201920093FA
:1031200004B0704784B00A460346039002910398A6
:1031300040687021884302990843039948600192CE
:10314000009304B0704782B0014601900198426834
:103150000923DB029A434260019882682A239A433A
:103160008260009102B0704782B0014601900198E0
:10317000026801239A430260009102B0704782B056
:10318000014601900198826801231B031A43826063
:10319000009102B0704782B0014601900198026828
:1031A00001231A430260009102B0704782B00146C9
:1031B00001900198026801231A430260009102B055
:1031C0007047000080B58CB00A4603460B900A9108
:1031D00009A801210170002008900B980392029326
:1031E00000F06CF800285FD1FFE70B9800683049C9
:1031F00008400A994A68CB681A430B691A438969DF
:103200000A4310430B9908600B980A99896800F0EB
:10321000ABF80B980A99496900F094F80B98EC49BF
:10322000884205D1FFE70320FFF77EF8089023E0EE
:103230000B982049884205D1FFE70C20FFF774F86E
:10324000089018E00B98E349884206D1FFE704A8EC
:10325000FFF74CF8069808900CE00B981649884246
:1032600006D1FFE704A8FFF741F80698089000E0B0
:10327000FFE7FFE7FFE7FFE70898002813D0FFE725
:103280000A98006800280ED0FFE709A80021017005
:103290000B9808990A9A9369126801921A46019B41
:1032A00000F016F8FFE7FFE709A800780CB080BD32
:1032B000F369FFEF004400400050004082B0014637
:1032C00001900198006801221040009102B07047FF
:1032D000F0B58BB01C4615460E4607460A9009917C
:1032E0000892079308980121C90388420494039522
:1032F0000296019718D1FFE70998400007994A08FC
:103300008018FCF7F5FE80B2069006980C4908403C
:10331000059006980E210840400805990143059143
:1033200005980A99C86009E0099807994A08801821
:10333000FCF7DEFE80B20A99C860FFE70BB0F0BD73
:10334000F0FF000084B00A46034603900291039800
:103350008068032109028843029908430399886021
:103360000192009304B0704784B00A46034603906C
:103370000291039840680321090388430299084396
:10338000039948600192009304B0704784B00A46E4
:10339000034603900291039840680121C9038843C2
:1033A00002990843039948600192009304B0704762
:1033B00084B00A460346039002A80170007803997E
:1033C00088620192009304B0704784B00A460346B5
:1033D000039002A80170007803998862019200931B
:1033E00004B0704784B00A460346039002A80170F7
:1033F0000078039988620192009304B0704700003E
:1034000010B592B00020119010900F900E900D907A
:103410000C9001210D910E900F9002221092042326
:103420000C9305231B070CAC0B9018460A91214600
:10343000099208930794FEF7BBFD10210C9108999F
:10344000069008460799FEF7B3FD0A99CA020C9246
:10345000089A059010460799FEF7AAFD0A990A03F3
:103460000C92089A049010460799FEF7A1FD0A995C
:103470000C91B14A0390104607990292FEF798FD0D
:1034800009990C91029A019010460799FEF790FD58
:1034900051490A68064B1A400A6006490A68032324
:1034A0009A430A600B990090084612B010BDC046BE
:1034B000EB67FFFF1404005010B592B0FEF77AF9E5
:1034C00000F0A2FF4148016840229143016040485A
:1034D00001680122D343194001603E480168194048
:1034E00001600020119010900F900E900D900C90A4
:1034F000D1040A9008460992FEF704FD099880035A
:10350000FEF720FD09980D900A990E910F91022265
:10351000109243020C9305231B070CAC184621465E
:10352000089207930694FEF743FD09998A020C92CC
:10353000079B0590184606990492FEF739FD0499F9
:103540000C91079A039010460699FEF731FD0899F1
:103550000C91079A029010460699FEF729FD1E4924
:103560000A681E4B1A400A600A99CA431C4B1A602B
:103570000B910190FFE70B9807280BDCFFE70B98F6
:1035800080000021C9431B4A8150FFE70B98401C73
:103590000B90F0E7134801682F221202914301605B
:1035A0001148016804221143016010480168022299
:1035B000914301600E48016801229143016030BFD0
:1035C0000348FFF7F3FD002012B010BD00300140AA
:1035D00000380140004C004014000050FCF9FFFF8F
:1035E000140401400C28004010ED00E00070004081
:1035F0000470004080E200E010B598B00020179001
:103600001690159014901390129004211190084672
:10361000FEF7E6FD01201090FEF7E2FD0220FEF726
:10362000DFFD0520000708210F900E91FEF72FFD0A
:10363000109801020F980D91FEF729FD3E480C905D
:103640000E99FEF724FD10200C990B9008460B995B
:10365000FEF71DFD20200C990A9008460A99FEF7F6
:1036600016FD0E98129010991391119A14921592BA
:10367000169212AB0F9819460993FEF799FC0D9913
:103680001291109A1392119B1493159316930F9CF9
:10369000089020460999FEF78BFC0E991291109A1A
:1036A0001392119B1493159316930C9C079020462C
:1036B0000999FEF77DFC0B991291109A1392119BB8
:1036C0001493159316930C9C069020460999FEF7C7
:1036D0006FFC0A991291109A1392119B14931593EF
:1036E00016930C9C059020460999FEF761FC402139
:1036F00012911199139116910C9A04901046099900
:10370000FEF756FC802112911199139116910C9A93
:10371000039010460999FEF74BFC1099CA031292C8
:10372000119A139216920F9B029018460999FEF770
:103730003FFC019018B010BD0004005010B590B0CF
:1037400000200F900E900D900C900B900A90099015
:10375000FEF79EFD02200890099900F0E3F9089811
:1037600000F0D0F909980D907F210E91FF210F9163
:1037700013490DAA084607911146FFF74AF90BA90C
:10378000099A0A714A718A710123079C06902046A2
:1037900005911946059A0493FFF752FA0AA9049A6B
:1037A0000A704A70099BCB70079C039020460291D7
:1037B0001146029AFFF718F8019010B010BDC046EC
:1037C0000028004070B59EB014A828210D90FCF789
:1037D000D2FC002013901290119010900F900E9038
:1037E00001210A030C9010460B91FEF7B7FB0B98D2
:1037F000FEF7F6FC20200E9002200F90032110917E
:103800000C9A11921292139205231B070EAC0A9088
:1038100018460991214608930794FEF7C9FB4021F9
:103820000E910A9A0F92099B10930C9C119412947A
:103830001394089D06902846079E05913146FEF791
:10384000B7FB80210E910A990F91099A10920C9B57
:10385000119312931393089C049020460799FEF746
:10386000A7FB0421C943192203901046029200F0DD
:1038700059F9029800F046F90C98149041218900FA
:1038800015911690179018900B994A0219921022D0
:103890001A921B901C9007221D920D4A10460D99FA
:1038A0000192FFF7D3FA0199009008460C99FFF7AF
:1038B0003EFB01980168059A1140402906D0FFE7B8
:1038C00003480168402211430160FFE71EB070BD4C
:1038D0000030014080B58AB0002009900890079020
:1038E00006900121059008460491FEF717FB05207C
:1038F000C1430F20039000F015F9039800F002F97E
:1039000006A805990180079108910991049A9307E7
:103910000290184602990193FFF778FB01990090F5
:103920000846FFF751FB01980599FFF7DBFB01986B
:103930000599FFF7F7FB0198FFF751FB0AB080BD2F
:1039400070B59AB0002019901890179016901590A5
:10395000149013901290119010900F900E900D9063
:1039600001218A030C9010460B91FEF7F7FA0B9891
:10397000FEF736FC0B9841020D9102210E910322B5
:103980000F920C9B109311930424129405252D077C
:103990000DAE28460A91314609920894079506967D
:1039A000FEF706FB0B998A020D920A9A0E92099B6A
:1039B0000F930C9C10941194089D1295079E0590EE
:1039C00030460699FEF7F4FA0621C9431B220490FB
:1039D0001046039200F0A6F8039800F093F84B20ED
:1039E000C00113900C981490159016900C2117910B
:1039F00018901990094913AA084602911146FFF739
:103A0000E1FB029901900846FFF7B9FB0298FFF726
:103A10009AFB0298FFF7BFFB1AB070BD0038014057
:103A200070B59AB0002019901890179016901590C4
:103A3000149013901290119010900F900E900D9082
:103A40000121CA040C9010460B91FEF767FA0B98FF
:103A5000FEF7C6FB0B980D9002210E9103220F92E8
:103A60000C9B109311930624129405252D070DAE7F
:103A700028460A9131460992089407950696FEF762
:103A800097FA0A990D910E91099A0F920C9B109337
:103A90001193089C1294079D059028460699FEF7FD
:103AA00087FA0A99C9430E2204901046039200F047
:103AB00039F8039800F026F84B20C00113900C98B9
:103AC0001490159016900C211791189019900B498D
:103AD00013AA084602911146FFF774FB0B99C9031C
:103AE000029A01901046FFF751FC0298FFF72BFB5A
:103AF0000298FFF750FB1AB070BDC046004C004062
:103B00007047000082B0014601AA107010781F2291
:103B100010400122824002480260009102B07047CA
:103B200000E100E070B584B00A46034603AC2070A3
:103B30000291207840B20028019200931BDAFFE73F
:103B400003A801780F22114008390323DB431940F1
:103B5000164C0959007840B28507ED0EFF26AE409D
:103B6000B143029EB601F6B2AE4031431040083870
:103B70001840015116E003A8017849B20322D2434C
:103B80001140094BC958007840B28407E40EFF2564
:103B9000A540A943029DAD01EDB2A54029431040C7
:103BA000C150FFE704B070BD00E400E01CED00E090
:103BB000BFF34F8F034804490160BFF34F8FFFE706
:103BC00000BFFDE70CED00E00400FA0570470000BF
:103BD00080B584B001460390039802910190FEF7EE
:103BE00067FBC0B200090349085C0199C14008465F
:103BF00004B080BD5C57000880B584B001460390D6
:103C0000039802910190FEF759FB000A0C49085CE9
:103C10000199C140084604B080BDC04680B584B05B
:103C200001460390039802910190FEF74DFBC00AF4
:103C30000349085C0199C140084604B080BDC046F4
:103C40006C57000880B582B0FEF74AFB01460C288D
:103C5000009128D80098C0467844007940008744F5
:103C6000062222220F2222221B2222221E00FEF7DF
:103C700033FC400B401C01218140C80301901BE034
:103C8000FEF7F6FB002803D0FFE72448019002E08E
:103C900021480190FFE70FE0214801900CE000F07F
:103CA0000FF8019008E0FEF717FC400B401C0121C3
:103CB0008140C8030190FFE7019802B080BDC04673
:103CC00080B584B0FEF73EFC0290029800280CD12B
:103CD000FFE7FEF7CDFB002803D0FFE70F48039076
:103CE00002E00D480390FFE702E00D480390FFE774
:103CF00003980190FEF72CFC800C0A49085C01999E
:103D000048430090FEF718FC800D411C0098FCF71A
:103D1000EFF904B080BDC0460024F40000093D0066
:103D200000127A00745700080C480068C00500288B
:103D300012D5FFE70A4801210160084802680B021A
:103D40009A43026002688B029A4302600548026847
:103D500049040A430260FFE77047C0460C28004050
:103D6000B40000201404014080B586B00A46034622
:103D7000059004914248039002920193FEF718FFC8
:103D8000059908710398FEF731FF0599487103986A
:103D9000FEF748FF059988710398FEF7EFFE059935
:103DA00008600398FEF7C5FC049988700398FEF735
:103DB000DCFC049948700398FEF708FD0499C8706C
:103DC0000398FEF7EBFC0499087006B080BDC0466E
:103DD00080B582B02A480190FEF798FD0198FEF761
:103DE00021FC10480168052292021143016009215B
:103DF0000198FEF743FC0C490198FEF72BFC019853
:103E0000FEF71CFC0198FEF7A3FD0848016801229B
:103E1000520411430160064801681143016002B079
:103E200080BDC0460828004000808080000401401A
:103E30000804014070B58CB00B46044615460B9142
:103E40000A90100E09A9C870100C8870100A4870EA
:103E50000A700B4800220AAE08900791114606929C
:103E60003246059304940395FEF7EAFE0899029002
:103E700008460699079AFEF7B7FC01900CB070BD92
:103E80000028004070477047704780B584B000201C
:103E9000FEF77EF8FEF776F8002803D0FFE7FDF77F
:103EA0005AFAFFE70120C002FEF7E2F9FEF70CFB29
:103EB000FFE7FEF717FB012801D0FFE7F9E7012034
:103EC0008003FEF729FB00200390FEF715FBFEF7A9
:103ED000C7F9FEF7E5F9FEF741FB0398FEF7E6FAAE
:103EE000FEF7CCFAFFE7FEF7D1FA012801D0FFE791
:103EF000F9E701200004FEF763FBFEF7C9F9002093
:103F00000290FEF733FB0298FEF73EFB0298FEF7A5
:103F100049FB0298FEF764FBFFE7FEF7DBF9002898
:103F200001D0FFE7F9E7012080040190FEF76CF96A
:103F30000420FFF725F80198FFF73AF80320000462
:103F4000FEF75EFB04B080BD10B511480168012288
:103F50001302194301600F490B680F4C23400B609B
:103F600003680E4C234003600D4B1C6894431C6097
:103F700003689404A34303600868FD231B0498436B
:103F80000860084800210160D0060749086010BD9C
:103F9000001002400C1002400C40FF88F6FFF6FEB5
:103FA000081002401010024008ED00E070470000C9
:103FB00082B0014601AA10801F48002303601F48F9
:103FC000036010881E4A10600120820713680343B3
:103FD00013600091FFE718480068C007002801D16E
:103FE000FFE7F8E7002002B07047C04606480168C6
:103FF00001221143016083204000044908609007BA
:1040000001681143016070473810024028000040E9
:1040100082B0014601AA10800748002303600748C8
:1040200003601088064A106001208207136803436A
:104030001360009102B0704710000040240000405F
:104040002C0000400E4800680007002806D5FFE756
:104050000B4801680822914301600FE0094800689D
:1040600009490A68094B98540868401CC217920E07
:1040700082183F239A43801A0860FFE77047C046C2
:104080001C38014024380140580000201000002056
:10409000094800683B490A683B4B98540868401C33
:1040A000C217920E82183F239A43801A0860334841
:1040B000012101607047C046244C0040DC48016883
:1040C0000822114301607047D948016808229143D2
:1040D0000160704780B588B028480068002845D046
:1040E000FFE7274800680690FFE70698254909681A
:1040F000884237D0FFE706982349085C3F2826D13D
:10410000FFE70698401CC117890E41183F229143D2
:10411000401A1B4908601046059200F037FB0599CC
:104120000490084600F032FB05990390084600F021
:104130002DFB05990290084600F028FB0599019097
:10414000084600F023FB00210791009012E0FFE7F2
:104150000698401CC117890E41183F229143401A0E
:104160000690C2E70120C043079003E00020C0434F
:104170000790FFE7079808B080BDC046A400002064
:10418000A8000020B000002064000020B0B5C4B03A
:104190000A460346439042913692359300F03AF92D
:1041A0003CA8002101813D913C9139AA11813A91AD
:1041B0003991439B1C795D792D022C1994801C78D0
:1041C0005D782D022C199D78DB781B025B191B048E
:1041D0001B193993439B9B1D429CA41F3490339120
:1041E000194632922246FBF7ADFF3FA9339A0A8166
:1041F00040923F92C24B03243190184630912146A1
:104200002F9400F0DFFA37A9309A2E9010462D91A6
:1042100000F07CF93799309A2C901046FCF756FE46
:10422000734904222B90084611462A9200F0CAFADC
:104230007049012229900846114600F0C3FA0D2169
:1042400028900846279100F0A1FA30992690084658
:104250002D9900F05BF93799309A25901046FCF7BC
:1042600035FE6549249008462A9900F0ABFA634967
:10427000239008462F9900F0A5FA27992290084626
:1042800000F084FA3099219008462D9900F03EF90B
:104290003799309A20901046FCF718FE9A491F90E3
:1042A00008462A9A1E91114600F08CFA34991D9006
:1042B0000846FBF778FF34991C9008461C9900F0DB
:1042C00081FA27991B90084600F060FA30991A90FD
:1042D00008462D9900F01AF93799309A199010462E
:1042E000FCF7F4FD8749189008462A9A1791114661
:1042F00000F068FA329916900846FBF754FF32999D
:1043000015900846159900F05DFA27991490084613
:1043100000F03CFA3099139008462D9900F0F6F819
:104320003799309A12901046FCF7D0FD344911901D
:1043300008462A9900F046FA27991090084600F09E
:1043400025FA30990F9008462D9900F0DFF837993B
:10435000309A0E901046FCF7B9FD2A490D90084698
:104360002A9900F02FFA27990C90084600F00EFACF
:1043700030990B9008462D9900F0C8F83799309A7B
:104380000A901046FCF7A2FD1799099008462A9951
:1043900000F018FA27990890084600F0F7F93099CC
:1043A000079008462D9900F0B1F83799309A069099
:1043B0001046FCF78BFD1E99059008462A9900F0DF
:1043C00001FA27990490084600F0E0F9309903902B
:1043D00008462D9900F09AF83799309A02901046C5
:1043E000FCF774FD019000F00FF8339844B0B0BDB5
:1043F000E8570008C8570008ED570008C4570008E0
:10440000CA570008E35700080948016820221143F1
:104410000160704780B582B0054801682022914351
:1044200001607D208000FFF7C3FD019002B080BDD8
:104430001404005080B584B001460290029801280F
:10444000019104D1FFE700F0DDF9039003E00020C3
:10445000C0430390FFE7039804B080BD80B59EB0D1
:1044600011A832210F90FBF786FEFFF7D3FF8F488C
:10447000032100F0A7F910A90F9A0E9010460D9194
:1044800000F044F810990F9A0C901046FCF71EFDAE
:104490001C4904220B90084611460A9200F092F93A
:1044A0000D2109900846089100F070F90F990790C6
:1044B00008460D9900F02AF810990F9A06901046B8
:1044C000FCF704FD1049059008460A9900F07AF9B6
:1044D00008990490084600F059F90F99039008468E
:1044E0000D9900F013F810990F9A02901046FCF7FE
:1044F000EDFC0190FFF788FF00201EB080BDC04694
:10450000C0570008CF570008D957000880B588B0B9
:104510000A460346069005917D200001039202930E
:10452000FFF776FDFFE79448006895490818401E9C
:10453000007800210D28019108D0FFE7304800687D
:1045400001210840414248410190FFE70198C0071E
:10455000002801D0FFE7E6E7874800688849081887
:10456000401E00780D2804D0FFE70020C0430790CC
:1045700043E081480068401E8249086000200490A2
:10458000FFE77E4800687F490968884215D0FFE749
:104590007A4800687A49085C0699049A531C049387
:1045A0008854FFE775480168491CCA17920E8A189B
:1045B0003F239A43891A0160E3E712480021016012
:1045C00006980091FBF7EFFD059908606A480168BD
:1045D000491CCA17920E8A183F23DB431A40891AD6
:1045E000016066480168891CCA17920E8A181A4031
:1045F000891A016000980790FFE7079808B080BD0E
:1046000010000040A400002080B59EB011A8322107
:104610000F90FBF7B0FDFFF7FDFE2448032100F0EB
:10462000D1F810A90F9A0E9010460D91FFF76EFF6A
:1046300010990F9A0C901046FCF748FC1C49042274
:104640000B90084611460A9200F0BCF80D21099023
:104650000846089100F09AF80F99079008460D99BE
:10466000FFF754FF10990F9A06901046FCF72EFCA6
:104670001049059008460A9900F0A4F8089904909A
:10468000084600F083F80F99039008460D99FFF74C
:104690003DFF10990F9A02901046FCF717FC01900D
:1046A000FFF7B2FE00201EB080BDC046C057000814
:1046B000D4570008DE57000880B590B02E48006837
:1046C0000D902E4800680E90FFE70E980D998842D5
:1046D00016D0FFE70E982A49085C3F2805D1FFE76E
:1046E0000E98401C274908600AE0FFE70E98401C1E
:1046F000C117890E41183F229143401A0E90E4E7FA
:104700000E980D99884203D1FFE700200F902FE00B
:1047100068463221FBF72FFD00200E90FFE7174877
:10472000006818490968884215D0FFE713480068F7
:104730001349085C0E994A1C0E926A465054FFE7D2
:104740000E480168491CCA17920E8A183F239A43E3
:10475000891A0160E3E70C496846FBF72BFD002846
:1047600003D1FFE701200F9002E000200F90FFE748
:104770000F9810B080BDC046B0000020A8000020F7
:1047800064000020AC0000207D57000880B584B094
:10479000014603AA10701078974A02901046029AB8
:1047A00001911146FEF71EFEFFE705480068402113
:1047B0000840402801D0FFE7F7E7002004B080BDA3
:1047C0001C4C004080B586B00A4603460590049113
:1047D0000020039002920193FFE703980499884216
:1047E0000DDAFFE705980078FFF7D0FF0599491C1F
:1047F00005910090FFE70398401C0390EDE700202F
:1048000006B080BD80B5A6B0FFE71DA8FCF750FE3E
:10481000002800D094E01DA802211C901B91FFF7F6
:10482000D1FF2C211A9008461991FFF7AFFF1C9970
:104830008A1C189010461B99FFF7C4FF199917900E
:104840000846FFF7A3FF1C990A1D169010461B99F6
:10485000FFF7B8FF199915900846FFF797FF1C99C5
:104860008A1D149010461B99FFF7ACFF19991390FD
:104870000846FFF78BFF1C990831129008461B99D8
:10488000FFF7A0FF199911900846FFF77FFF1C99C9
:104890000A31109008461B99FCF718FB19990F90E4
:1048A0000846FCF7F5FA1C990C3108220E900846D0
:1048B0001146FCF70BFB19990D900846FCF7E8FA36
:1048C0001C99143101220C90084611460B92FCF7FA
:1048D000FDFA19990A900846FCF7DAFA1C99153185
:1048E0000322099008461146FCF7F0FA199908903E
:1048F0000846FCF7CDFA1C991831072207900846A4
:104900001146FCF7E3FA199906900846FCF7C0FA3D
:104910001C991F31059008460B99FCF7D7FA199995
:1049200004900846FCF7B4FA0A2103900846FCF705
:10493000AFFA21211C9A02901046FBF71CFC64E799
:104940003F20FFF723FF2E4900220A600190104606
:1049500026B080BD80B584B0FFF75CFD8E4801684D
:104960000122114301602548FFF752FBFFE78D4804
:104970000068C007002831D1FFE7FFF7ABFB002834
:104980002BD1FFE71E48012101608648002202600A
:104990001C4802601C48194A0260880702680A43E2
:1049A0000260FFE71648006800210028039108D044
:1049B000FFE77C48006801210840414248410390DC
:1049C000FFE70398C007002806D0FFE7FFF774FE53
:1049D000FFF730FD0290E5E7FFE7C8E70848002150
:1049E00001606D48026801239A4302600191FFF75C
:1049F0000BFD019804B080BD004C0040204E00002B
:104A000060000020240000402C00004080B594B0DD
:104A1000002013900121109008460F91FDF79EFA97
:104A20000F980007FDF77AFAFFF72FFA72B6FEF734
:104A3000E3FDFEF783FEFFF7CBF9FEF7C3FEFEF7BB
:104A400049FFFEF77DFF53480E90FEF78DFB0E9851
:104A500001682022114301600D92FEF79CFBFEF7D6
:104A6000DFFF4D480C90FEF77FFB0C9801680D9A14
:104A700011430160FEF78FFB62B6FFF7B7FA0F989C
:104A8000FFF796FA0B90FCF795FEFCF781FEFFF717
:104A9000BBFCFFF713FBFEF7B3FC109912911191C9
:104AA0000A90FFE7FBF7BEFF002805D0FFE7FEF7FF
:104AB00047FFFEF7B5FFFFE7FFE7FBF7B3FF00286F
:104AC00025D0FFE737480068C007002808D0FFE777
:104AD0006420FFF79DFA022000F038F90990FFE703
:104AE000FBF74AFF002811D0FFE7012000F02EF964
:104AF0000890FFE7FBF796FF002806D0FFE7FCF7DA
:104B0000E5F8FCF7A3F80790F4E7FFE7D5E7002006
:104B100000F01CF92149096849060029069032D5A0
:104B2000FFE71F480068012808D1FFE712A811A974
:104B300000F03AF81A4800210160FFE712980028B7
:104B400006D0FFE7FDF742F8002112910590FFE73C
:104B50001198002810D0FFE7FEF762FF012000F057
:104B6000F5F80490FFF7F6FE0390FFF7ADFA00208A
:104B700000F0ECF8029002E0FFF7A0FAFFE7FEF782
:104B80009BFC019005E0FFF799FAFEF795FC009079
:104B9000FFE787E700380140004C00401004005058
:104BA000B400002010000040F0B5A7B00A4603464C
:104BB0002690259100201F901E901D901C901B9008
:104BC0001A9016A9087015AC20700120584D149049
:104BD0000846149E1391314612922A46119310945E
:104BE000FCF7CAFB534A10990F9008461499FCF73A
:104BF000C3FB5149097824AA11705049097823ABA5
:104C000019704F49097822AC21704E49097821ADBD
:104C100029704D49097820AE317018A917AF0E9050
:104C200008460D9139460C920B930A940995089603
:104C30000797FFF799F80D9801793C2213464B43EB
:104C4000417959181E9113990B7814465C43109BB7
:104C50001D7864191F94099C257816466E43089D9B
:104C60002F78F6191D961E9E1F9FF61B1C960B9EF5
:104C70003778104678431B900A9807787A431A923F
:104C80000C9A177807980078401E149981400F42BB
:104C900013D0FFE71E981B99884209DBFFE71E9897
:104CA0001A99884204DCFFE725980121016003E09E
:104CB000259800210160FFE703E0259800210160AD
:104CC000FFE71C981D9988420EDAFFE71C98002820
:104CD0000ADBFFE718A80079002826D1FFE718A80B
:104CE0004079002821D1FFE7269801210160199819
:104CF00016A9087018A8407915AA10700691059297
:104D0000FCF762FB06990A78094904901046FCF703
:104D1000E1FA05990A78074903901046FCF7DAFA98
:104D20000290FCF719FB0190FFE727B0F0BDC046E9
:104D300030000808310008080000080801000808D1
:104D400002000808030008080400080883B00146B0
:104D5000019001980128009108D1FFE70F480168F0
:104D60000822114301600020029013E001980228FC
:104D700008D1FFE70948016808225140016000207E
:104D8000029007E005480168082291430160002075
:104D90000290FFE7029803B07047C046140000502D
:104DA0000FB410B504A9074B02AA039800F0F2F85B
:104DB000044602A9002000F089FC204610BC08BC73
:104DC00004B01847CD5600082021020C01D0102154
:104DD0001046020A01D010460839020901D01046D7
:104DE000091F820801D01046891E420801D0881E82
:104DF0007047081A70470000004870470400002000
:104E000002E008C8121F08C1002AFAD17047704793
:104E1000002001E001C1121F002AFBD170470000F1
:104E2000F0B51FB486B00998089A030D002102431B
:104E300014D05148514A18185043051411980128AC
:104E400010981AD0281A401C00264D4F4D49009644
:104E500001910490002812DA444211E011980124D3
:104E600049A3012801D11098C1430698119A846082
:104E70000360C26041600BB0F0BD4042E4E704460D
:104E8000210500203F4A001C51410391029012E08D
:104E9000E00707D032463B4601990098FBF74CFBF0
:104EA0000191009032463B4610461946FBF744FB01
:104EB00006460F466410002CEAD10498039B002894
:104EC000029A0999089806DAFBF736FB019B009ACB
:104ED000FBF732FB05E0FBF797FB019B009AFBF722
:104EE00093FB04460E460022284BFBF725FC03D813
:104EF0000020C043014607E00022254B20463146F2
:104F0000FBF768FAFBF7F8FB102409E0002C0ADB3A
:104F10000A220023FBF7B4F9079B30321A55641EAE
:104F200002460A43F2D11122641C079B121B1C1972
:104F3000119B012B03D0012308430ED10AE0084343
:104F400004D0112010900020119077E71098151AC6
:104F50006D1E0BE01098824202DD00236D1C03E001
:104F6000824201DA00236D1E002BEED006981199C3
:104F70008260C16030C07EE701FCFFFF104D000081
:104F8000000014400000F03F300000000000F0433B
:104F90000000E03FFFB597B00646002518E225283F
:104FA00077D100242746FD49049400E00443761C91
:104FB00032780120203A90400842F7D130782A28F0
:104FC0000ED00222307801463039092916D80499CA
:104FD0000A235943303940181443761C0490F1E7F2
:104FE000189802C804911890002904DA012040039F
:104FF00004434842049002200443761C30782E2853
:1050000014D1042004437078761C2A2809D11898FA
:10501000761C80C8189009E00A214F43303FC71919
:10502000761C3078014630390929F5D930786C285A
:1050300010D006DC4C281AD068280ED06A2817D168
:1050400004E0742813D07A2812D110E00120400522
:1050500004430CE00121090501E0032109050C438B
:105060007178814203D1012000052418761C761C3A
:105070003078119066280BD013DC58287DD009DCDD
:1050800000287BD04528F6D04628F4D047281AD1EE
:10509000A5E118E0632835D0642870D0652812D1C6
:1050A0009DE170286CD008DC6728F1D069287BD09E
:1050B0006E280DD06F2806D1BAE073282ED075283F
:1050C00071D0782859D01A9A199990476D1C7EE1B1
:1050D0006002400F022809D003280DD00428189838
:1050E00001680DD00D60001D189070E11898EA1746
:1050F00001680D604A60F6E7189801680D80F2E7D4
:105100000D70F0E718986A4601781172001D18902A
:105110000020507202A80090012005E0189802C8F3
:10512000189000200091C04361070DD5002101E0D7
:105130000199491C0191B94212DA8142F8DB009AC7
:10514000515C0029F4D10BE0002101E00199491CD8
:1051500001918142FADB019A0099895C0029F5D11D
:10516000019904981A9B471A21463846199A00F06B
:1051700097FA0199401945180BE04FE02CE113E034
:105180004EE0009800990078491C00911A9A1999EC
:1051900090470198401E0190401CF2D121463846AC
:1051A0001A9B199A10E137E00A2000210090019122
:1051B0006002410F022907D0189A01CA1892C2173B
:1051C0009446032908D00AE01898C01DC108C900F8
:1051D00005C91891944607E000B2C2179446042905
:1051E00002D140B2C1178C4600226146944506DACE
:1051F0000A460021404291418C462D2102E02105C2
:1052000004D52B216A461173012103E0E10701D087
:105210002021F7E7029155E00A200AE0102008E07B
:10522000102000900021042004430191082703E08E
:1052300008200021019100906002410F022907D04F
:10524000189A01CA189200229446032908D008E04F
:105250001898C01DC108C90005C91891944603E0FB
:1052600080B2042900D1C0B200210291210729D5C2
:105270001199702906D0009A1021019B4A401A43C7
:1052800005D00EE040216A461173012108E0614615
:10529000014306D030216A461173119951730221DE
:1052A0000291009A0821019B4A401A430AD16146A3
:1052B000014301D1610705D530216A4611730121EF
:1052C0007F1E02911199582904D035A10E910DA984
:1052D0000D910DE037A1F9E76146019B009AFAF7BD
:1052E000CFFF0E9B8C469B5C0D9A521E0D92137045
:1052F00061460143F0D10D9805A9081A20300190AC
:10530000600703D501200004844300E001270198D1
:10531000874201DD381A00E0002001990090411811
:10532000029809180498401A0490E00306D4214614
:105330001A9B199A049800F0B3F94519002706E062
:1053400003A81A9AC05D199990476D1C7F1C02989A
:105350008742F5DBE0030CD521461A9B199A049885
:1053600000F09EF9451904E01A9A302019999047E7
:105370006D1C0099481E00900029F5DC08E00D988E
:105380000D990078491C0D911A9A199990476D1C36
:105390000199481E01900029F1DC63E10928010010
:1053A000303132333435363738396162636465669B
:1053B000000000003031323334353637383941425D
:1053C000434445460000000000F05AF94519761C98
:1053D0003078002800D0E2E528461BB0F0BD600719
:1053E00000D406271898C01DC108C90048680A687B
:1053F0000831C30FDB071891190001D09CA108E008
:10540000210501D59BA104E0E10701D09AA100E0AC
:105410009AA1430011985B08109165280CD006DC16
:10542000452809D046281DD0472841D141E06628AB
:1054300018D067283CD13CE00021112F01DB11205E
:1054400000E0781C0191009008A911A8FFF7E8FC82
:10545000139905910021119A15927F1C12980197BA
:10546000009150E00120C00703900120019008A99D
:10547000009711A8FFF7D4FC139A14990592002203
:10548000119B009212981593059A0192002901D060
:10549000104602E0791C40180190381A01D5019895
:1054A00004E04042401E0090781C0190C01B029016
:1054B00043E0012F00DA01270021112F01DD112027
:1054C00000E038460191009008A911A8FFF7A8FC58
:1054D00013990591119A0021129815920091019744
:1054E00021070CD40599B94201DB019900E0019133
:1054F000012904DD159A491E515C302906D0B842B5
:1055000001DA011D05DA0121029115E00199491E18
:10551000EDE7002805DC0099411800910199091A6E
:1055200003E0019A411C914200DD01910099401A6B
:10553000401C02900120C0070390200706D4029966
:105540000198814202DB0020C0430290002069469E
:10555000C87707AF012103980337C907884224D0D1
:10556000022011902B201290039800280CDA404260
:1055700003902D20129007E00A210398FAF7B8FD56
:1055800030317F1E039039701199481E1190002907
:10559000F2DC03980028EFD1791E12980870307859
:1055A000202108404530BF1E387006A8C01BC01D12
:1055B000039010980078002800D00120019941182C
:1055C0000298C0170918039809180498401A401E39
:1055D0000490E00306D421461A9B199A049800F01F
:1055E0005FF8451910980078002803D01A9A199985
:1055F00090476D1CE00324D521461A9B199A049804
:1056000000F04EF845191CE00098002807DB0099CF
:105610000598884203DD1598405C199901E01999B5
:1056200030201A9A904700986D1C401C00900298F8
:10563000401E0290002804D11A9A2E2019999047F2
:105640006D1C0199481E01900029DDDC05E03878C9
:105650001A9A7F1C199990476D1C0399481E039054
:105660000029F4DC21461A9B199A0498ACE6000044
:105670002D0000002B0000002000000000000000B2
:10568000F8B5044600251E461746880404D405E0F4
:1056900039462020B0476D1C641EF9D52846F8BD58
:1056A000FFB50446002581B01E46C80301D530274A
:1056B00000E02027880404D505E038460399B04768
:1056C0006D1C641EF9D5284605B0F0BD0A68531C50
:1056D0000B601070704700404040404040404040E8
:1056E00041414141414040404040404040404040B5
:1056F00040404040404040050202020202020202D5
:10570000020202020202022020202020202020206B
:1057100020020202020202029090909090901010DB
:105720001010101010101010101010101010101079
:1057300010100202020202028888888888880808FD
:1057400008080808080808080808080808080808D9
:105750000808020202024000D756000800000000BC
:105760000000000001020304060708090000000011
:1057700001020304030406080C10182030445441AD
:105780003F004346473F004746473F004750473F9B
:105790000041434B3F0050474D3F0047534E3F00B1
:1057A000544D503F004552533F005453543F002541
:1057B00078257825782578257825782578002C0097
:1057C0002B2B2B003146340035004154414300411E
:1057D0005444480041545348004154444C004154FF
:1057E000534C0041545752004154435400415447D4
:1057F00054000000185800080000002010000000AD
:10580000004E00082858000810000020A8040000DE
:10581000104E000800000000000000000000000022
:085820000059000800002000FF
:04000005080000C12E
:00000001FF
