:020000040800F2
:1000000098040020D5000008BD1B00086503000807
:1000100000000000000000000000000000000000E0
:100020000000000000000000000000006B1E00083F
:1000300000000000000000006D1C00086D1E00089C
:10004000E7000008E7000008C91D0008E7000008F5
:10005000E7000008E7000008E7000008E7000008E4
:1000600000000000E7000008E7000008E7000008C3
:10007000E7000008E70000084D200008911F000875
:10008000E7000008E7000008E700000800000000A3
:10009000E7000008E7000008E7000008E7000008A4
:1000A000E7000008691E0008E700000801200008BA
:1000B000E7000008E7000008000000000000000062
:1000C0000348854600F03CF800480047A12000089E
:1000D000980400200448804704480047FEE7FEE7F4
:1000E000FEE7FEE7FEE7FEE72D1F0008C10000085F
:1000F00030B50B46014600202022012409E00D46C0
:10010000D5409D4205D31D469540491B2546954047
:1001100040191546521E002DF1DC30BDD2B201E06F
:100120000270401C491EFBD270470022F6E710B552
:1001300013460A4604461946FFF7F0FF204610BD55
:10014000064C0125064E05E0E36807CC2B430C3C2A
:1001500098471034B442F7D3FFF7B6FFD021000818
:10016000F021000810B585B00A46034604AC2070A3
:10017000039103980290049802990870002001925C
:10018000009305B010BDB0B588B013460C460546C7
:10019000069005910492002003900293019400952B
:1001A000FFE703980599884217DAFFE70698007879
:1001B0000499FFF7D7FF002804D0FFE70020C043D1
:1001C00007900DE00698401C06900498401C04908F
:1001D000FFE70398401C0390E3E700200790FFE748
:1001E000079808B0B0BD7047FFE72D480068C0070A
:1001F000002801D0FFE7F8E74D48016801221143CC
:10020000016000207047C04681B049480068C007BF
:10021000002808D0FFE70748074901600749016047
:100220000020009003E00020C0430090FFE700980A
:1002300001B070470C200240EFCDAB8905040302EA
:1002400083B0014601903A4802684123DB001A431B
:1002500002600198002202600091FFE710480068E8
:10026000C007002801D0FFE7F8E70D4800688007C5
:10027000002804D5FFE70A480221016003E00020BE
:10028000C043029008E02A4801684122D20091430D
:10029000016000200290FFE7029803B07047C0465B
:1002A0001820024080B58AB0114809901148089082
:1002B00007A900220A7006900591FFF7A5FF099A89
:1002C00008A90423049008461946FFF75CFF039031
:1002D00000F012F8069902900846FFF7B1FF01906E
:1002E000FFF782FF05990A78009010460AB080BD9A
:1002F000140008080037010881B00D480068800725
:1003000000280DD5FFE70B480B4901600B49016040
:10031000074801680222914301600020009003E039
:100320000020C0430090FFE7009801B07047C0462E
:100330000420024010200240BFAE9D8C16151413FD
:100340000348016801221202114301607047C04650
:1003500014000050024801681022114301607047E8
:1003600014040050FFE7FEE784B0014603900398B1
:10037000064A1368034313601068039A1040029002
:1003800002980191009004B07047C04638100240B6
:1003900084B0014603900398064A13680343136030
:1003A0001068039A1040029002980191009004B0E6
:1003B0007047C046341002400948006801210840D7
:1003C0007047C04682B0014601900548026801238B
:1003D0009A43019B1A430260009102B07047C046E5
:1003E0000020024080B588B00A4603460790069177
:1003F00000200590049003920293FFE7069800689E
:100400000599C840002845D0FFE70698006805997F
:1004100001228A40104004900498002836D0FFE75B
:1004200007980499069A526800F092F80698406876
:10043000012805D0FFE706984068022807D1FFE7AA
:1004400007980499069A926800F0CAF8FFE707989F
:100450000499069A126900F0AAF8069840680228E2
:1004600013D1FFE70498FF2807D8FFE707980499FE
:10047000069A526900F031F806E007980499069A46
:10048000526900F047F8FFE7FFE7FFE70598401CD7
:100490000590B3E706984068012805D0FFE7069865
:1004A000406802280AD1FFE7079806990A68C968D8
:1004B00001911146019A00F064F8FFE7002008B0AE
:1004C00080BD84B00A4603460390029102980399C6
:1004D00088620192009304B0704770B586B01346ED
:1004E0000C4605460590049103920598006A04990C
:1004F0000A4652430E46564371430F224A439043E5
:10050000039A4A43104305990862029301940095A7
:1005100006B070BD70B586B013460C460546059012
:10052000049103920598406A0499090A0A465243C5
:100530000E46564371430F224A439043039A4A435F
:1005400010430599486202930194009506B070BD6E
:10055000B0B586B013460C4605460590049103924B
:10056000059800680499494303224A439043039A3B
:100570004A4310430599086002930194009506B020
:10058000B0BDB0B586B013460C4605460590049143
:1005900003920598406804998843039A4A4310439C
:1005A0000599486002930194009506B0B0BDB0B5BE
:1005B00086B013460C4605460590049103920598B3
:1005C000C0680499494303224A439043039A4A432B
:1005D00010430599C86002930194009506B0B0BD20
:1005E000B0B586B013460C460546059004910392BB
:1005F000059880680499494303224A439043039A2B
:100600004A4310430599886002930194009506B00F
:10061000B0BD000084B0014603900398064A1368F9
:10062000034313601068039A1040029002980191EE
:10063000009004B07047C0462C10024080B582B0D4
:100640000146019001987D22D2000091114600F0F0
:1006500003F802B080BD000080B584B00A460346AE
:10066000039002910398029901920093FFF740FDD5
:10067000401E054908600548002101600448052125
:10068000016004B080BDC04614E000E018E000E066
:1006900010E000E00A4801680122120211430160E3
:1006A0007047C04682B001460190054802680323A6
:1006B000DB029A43019B1A430260009102B070472B
:1006C00000700040D2480168012292041143016089
:1006D0007047C046CE4801680122D2041143016030
:1006E0007047C046D2480068F02108407047C046B5
:1006F000CF4800680721090208407047CC480068CD
:100700000721C90208407047C94800680C21084009
:100710007047C046C64800680C2108407047C04674
:1007200080B582B001460190009101F0DBFA019999
:1007300008600198006801F09BFA019948600198EF
:10074000406801F0A9FA019988600198406801F0B9
:10075000B5FA0199C86002B080BD000080B586B0CE
:10076000014605900020049005980328039139D193
:10077000FFE7059800F084F83D49401803280290EF
:1007800027D8029878440079400087442101051752
:1007900001F0A8FA049024E000F07EF800280CD0C4
:1007A000FFE700F07FF8002803D0FFE7324804900D
:1007B00002E030480490FFE7FFE712E000F088F81D
:1007C000002804D0FFE70120C0030490FFE708E001
:1007D000FFE701F087FA01F04BFA01F06FFA04909D
:1007E000FFE7FFE705980C283FD1FFE7059800F0E9
:1007F00047F8224940180C2801902DD80198C0468E
:100800007844007940008744262727270627272792
:100810000A2727271C0001F065FA049024E000F065
:100820003BF800280CD0FFE700F03CF8002803D08C
:10083000FFE71148049002E00E480490FFE7FFE74D
:1008400012E000F045F8002804D0FFE70120C003C3
:100850000490FFE708E0FFE701F044FA01F008FA2E
:1008600001F01AFA0490FFE7FFE7049806B080BD94
:100870000000FDFF0024F40000093D000000F4FF2B
:1008800082B00146019073480068019A104012043A
:100890001043009102B070472348006804210840CB
:1008A0008008704720480068102108400009704700
:1008B0005748016801221202114301607047C04687
:1008C00053480068012149020840400A7047C04669
:1008D0004F480068012149020840400A7047C0465D
:1008E00082B0014601904A4802680323DB029A4322
:1008F000019B1A430260009102B070470A480168E8
:1009000001221202114301607047C0461648006878
:100910000721490308407047034800680121490244
:100920000840400A7047C0460010024082B00146AD
:1009300001900D480268FF231B069A43019B1B068A
:10094000D2180260009102B07047C04682B00146E2
:1009500001900548026807235B039A43019B1A43F1
:100960000260009102B070470410024030480068F5
:1009700003218905084070472D48006801210904BA
:10098000084070472A4800680F21890408407047D2
:100990001F4801680122D204914301607047C0469C
:1009A00082B00146019022480268F0239A43019BDD
:1009B0001A430260009102B07047C04682B00146FF
:1009C00001901B48026807231B029A43019B1A43AC
:1009D0000260009102B0704782B001460190144855
:1009E00002680723DB029A43019B1A4302600091CD
:1009F00002B0704782B001460190054802680323A7
:100A00001B049A43019B1A430260009102B0704795
:100A10005010024082B0014601900548026803234D
:100A20009A43019B1A430260009102B07047C0468E
:100A30000C10024010B582B00146019005480268D2
:100A4000019B1C0CA2439BB21A430260009102B0AE
:100A500010BDC0464C10024082B001460190019882
:100A6000826801231B029A438260009102B07047A2
:100A700082B0014601900198826801231B021A434B
:100A80008260009102B0704784B00A46034603902A
:100A900002910398C06905490840029908430399E7
:100AA000C8610192009304B07047C0467F7F7F7F8A
:100AB00084B00A460346039002910398C0697F21DF
:100AC000884302A9097808430399C86101920093F9
:100AD00004B0704782B0014601900198C06880223E
:100AE0001040A022D2438018019AD060009102B039
:100AF00070470000F0B58BB0109C1D4616460F469F
:100B00000590049005980A90099108920793099915
:100B1000490310AA12781204114307AA127812028C
:100B2000114308AA1278891806910A994968064A59
:100B30001140069A11430A9A516003940295019656
:100B400000970BB0F0BDC046C00000FFB0B58EB03E
:100B500013460C4605460D900C910B920AA80121F4
:100B600001700C9800280993089407950DD1FFE7B0
:100B70000B984078C006002807D5FFE70B9841780E
:100B8000EF2211400A314170FFE70C98002801D193
:100B9000FFE700E0FFE70D9800F074F80D9800F013
:100BA00099F8012851D0FFE70C9800280ED0FFE7F4
:100BB0000D980B990A788B784C78C9786D46296026
:100BC00011461A462346FFF795FF2AE00D980B9928
:100BD0000A788B780A2406901846059121460492DB
:100BE0000394FFF785FA00010843C2B205984078E4
:100BF00003990292FFF77CFA00010843C3B20598FB
:100C0000C07803990193FFF773FA00010843C0B25B
:100C10006946086006980499029A019BFFF76AFFEB
:100C2000FFE7F44800F018F80D9800F0E9F8002804
:100C300006D1FFE70D9800F0DFF90AA9087003E07C
:100C40000AA800210170FFE7FFE70D9800F039F8CE
:100C50000AA800780EB0B0BD82B00146019001989C
:100C60008022D243C260009102B0704782B0014638
:100C700001900198CA224262019853224262009177
:100C800002B0704782B0014601900198CA224262C8
:100C9000019853224262009102B0704782B001462F
:100CA000019001980022D243C260009102B07047C7
:100CB00082B0014601900198FF224262009102B089
:100CC000704782B0014601900198FF224262009174
:100CD00002B0704780B586B0014605907D20C00007
:100CE000049003A8002202700598019100F072F8A8
:100CF000002830D1FFE70598FFF7D0FF059800F0F6
:100D000069F80290FFE7049800210028009106D0BE
:100D1000FFE70298401E411E88410090FFE70098BF
:100D2000C007002816D0FFE700F058FA012804D1C8
:100D3000FFE70498401E0490FFE7059800F04AF88A
:100D400002900498002804D1FFE703A80121017054
:100D5000FFE7D8E7FFE703A8007806B080BD82B0C0
:100D6000014601900198806840221040009102B035
:100D7000704780B586B00A4603460590049103A8E3
:100D800001210170059802920193FFF77BFF0598FE
:100D9000FFF7A0FF012816D0FFE70598049909681E
:100DA00000F04CF805980499896800F059F8059806
:100DB0000499496800F02FF80598FFF74DFF03A844
:100DC00000210170FFE70598FFF77BFF03A800787B
:100DD00006B080BD82B0014601900198C0684022F3
:100DE00010408009009102B0704782B00146019026
:100DF0000198C068202210404009009102B070475D
:100E000082B001460190019880682022104040097C
:100E1000009102B0704784B00A46034603900291E5
:100E2000039800697F210904884302990904084353
:100E3000039908610192009304B0704784B00A4698
:100E400003460390029103988068402188430299E9
:100E50000843039988600192009304B07047000032
:100E600084B00A460346039002910398006905493D
:100E7000084002990843039908610192009304B065
:100E80007047C0460080FFFFF0B58BB0109C1D4638
:100E900016460F460590049005980A90099108920D
:100EA0000793099908AA12781204114307AA127825
:100EB0001202114310AA1278114306910A99096887
:100EC000054A1140069A11430A9A1160039402954B
:100ED000019600970BB0F0BD808080FFB0B58EB05A
:100EE00013460C4605460D900C910B920AA8012161
:100EF00001700C9800280993089407950CD1FFE71E
:100F00000D98FFF72CFF002801D0FFE703E00B98B6
:100F100000210160FFE70BE00D98FFF720FF00289C
:100F200001D0FFE703E00B9800210160FFE7FFE736
:100F30000D98FFF7A7FE0D98FFF7CCFE012851D0C2
:100F4000FFE70C9800280ED0FFE70D980B990A6870
:100F50000B794C7989796D46296011461A462346EA
:100F6000FFF792FF2AE00D980B990A680B790A2483
:100F7000069018460591214604920394FFF7B8F8AD
:100F800000010843C2B20598407903990292FFF725
:100F9000AFF800010843C3B2059880790399019323
:100FA000FFF7A6F800010843C0B26946086006983A
:100FB0000499029A019BFFF767FFFFE70D48FFF7CF
:100FC0004BFE0D98FFF71CFF002806D1FFE70D9898
:100FD00000F012F80AA9087003E00AA800210170C5
:100FE000FFE7FFE70D98FFF76CFE0AA800780EB048
:100FF000B0BDC0460028004080B58AB001460990C7
:101000007D20C000089007A8002202700998059171
:10101000FFF760FD0998FFF7E8FE0690FFE70898E4
:101020000021002804910BD0FFE706980121002839
:101030000390029101D10398029002980490FFE777
:101040000498C007002816D0FFE700F0C7F8012871
:1010500004D1FFE70898401E0890FFE70998FFF7C2
:10106000C4FE06900898002804D1FFE707A80121D4
:101070000170FFE7D3E707A80078012830D0FFE729
:101080007D20C00008900998FFF7AFFE0690FFE7AB
:10109000089800210028019106D0FFE70698401E1D
:1010A000411E88410190FFE70198C007002816D033
:1010B000FFE700F093F8012804D1FFE70898401EED
:1010C0000890FFE70998FFF790FE0690089800281F
:1010D00004D1FFE707A801210170FFE7D8E7FFE788
:1010E00007A800780AB080BD80B586B00A460346DE
:1010F0000590049103A801210170059802920193C3
:1011000000F042F8002833D1FFE7059800681D4938
:10111000084004990A684B681A438B681A43CB68E5
:101120001A430B691A434B691A438B691A43CB69FB
:101130001A43096A0A4310430599086005984068F4
:10114000042188430499C98A084305994860049892
:10115000006A01214903884206D1FFE705980499F6
:10116000496A00F01CF8FFE703A800210170FFE7BF
:101170000598C1690122D2029143C16103A8007898
:1011800006B080BD4000FFFF82B00146019001988B
:101190000068402210408009009102B0704784B07E
:1011A0000A4603460390029102A800880399086149
:1011B0000192009304B0704784B00A46034603903E
:1011C00002910398406810218843029908430399CB
:1011D00048600192009304B0704700000E48006818
:1011E000012109040840000C7047C04682B0014646
:1011F000019001980428009106D1FFE70648016894
:1012000004221143016005E0034801680422914370
:101210000160FFE702B0704710E000E082B00146D5
:1012200001900198024A1060009102B07047C046D8
:101230000000002082B001460190019802688023DE
:101240009A430260009102B0704782B0014601905B
:101250000198826880239A438260009102B07047AF
:1012600082B0014601900198426901231A4342610C
:10127000009102B07047000080B586B00A46034670
:10128000059004910598006803900598012189074D
:101290008842029201930FD0FFE7059823498842C4
:1012A0000AD0FFE705982249884205D0FFE7059854
:1012B0002049884208D1FFE70398702188430499A8
:1012C000496808430390FFE7059801218907884290
:1012D0000FD0FFE70598154988420AD0FFE7059827
:1012E0001349884205D0FFE705981249884209D181
:1012F000FFE703980321090288430499C96808435A
:101300000390FFE703980599086005980499896898
:1013100000F012F805980499098800F02DF8059856
:10132000FFF79EFF002006B080BDC04600040040CD
:10133000000801400014014084B00A4603460390AF
:10134000029102980399C8620192009304B0704719
:1013500084B00A46034603900291039880680549C9
:10136000084002990843039988600192009304B0F1
:101370007047C046F8BFFFFF84B00A46034603909B
:1013800002910298039988620192009304B0704719
:1013900084B00A4603460390029103984068702186
:1013A000884302990843039948600192009304B06E
:1013B000704782B001460190019842680923DB0220
:1013C0009A434260019882682A239A43826000917E
:1013D00002B0704782B00146019001980268012373
:1013E0009A430260009102B0704782B001460190BA
:1013F0000198826801231B031A438260009102B0A6
:10140000704782B0014601900198026801231A4397
:101410000260009102B0704780B58CB00A46034666
:101420000B900A9109A801210170002008900B98E7
:101430000392029300F070F800285FD1FFE70B9849
:101440000068304908400A994A68CB681A430B691A
:101450001A4389690A4310430B9908600B980A994B
:10146000896800F0AFF80B980A99496900F098F87C
:101470000B982549884205D1FFE70320FFF76EF955
:10148000089023E00B982149884205D1FFE70C2002
:10149000FFF764F9089018E00B981D49884206D1BF
:1014A000FFE704A8FFF73CF9069808900CE00B98BA
:1014B0001849884206D1FFE704A8FFF731F90698DA
:1014C000089000E0FFE7FFE7FFE7FFE70898002844
:1014D00013D0FFE70A98006800280ED0FFE709A89C
:1014E000002101700B9808990A9A93691268019279
:1014F0001A46019B00F01AF8FFE7FFE709A80078F9
:101500000CB080BDF369FFEF00380140004400409B
:10151000004C00400050004082B00146019001980C
:10152000006801221040009102B07047F0B58BB006
:101530001C4615460E4607460A90099108920793E5
:1015400008980121C90388420494039502960197E3
:1015500018D1FFE70998400007994A088018FEF75C
:10156000C7FD80B2069006980C4908400590069881
:101570000E210840400805990143059105980A99F4
:10158000C86009E0099807994A088018FEF7B0FD7D
:1015900080B20A99C860FFE70BB0F0BDF0FF000011
:1015A00084B00A46034603900291039880680321A1
:1015B00009028843029908430399886001920093C5
:1015C00004B0704784B00A46034603900291039822
:1015D000406803210903884302990843039948603E
:1015E0000192009304B0704784B00A46034603900A
:1015F0000291039840680121C90388430299084376
:10160000039948600192009304B0704710B594B0FC
:10161000002013901290119010900F900E900121C5
:101620000F91109011900222129204230E93052321
:101630001B070EAC0D9018460C9121460B920A9395
:101640000994FEF7CFFE10210E910A9908900846E2
:101650000999FEF7C7FE0C99CA020E920A9A0790E2
:1016600010460999FEF7BEFE0C990A030E920A9ADB
:10167000069010460999FEF7B5FE0C99CA030E9222
:101680000A9A059010460999FEF7ACFE0C990E9146
:10169000584A0490104609990392FEF7A3FE0B994D
:1016A0000E91039A029010460999FEF79BFE054998
:1016B0000A68054B1A400A600D990190084614B05B
:1016C00010BDC04614000050EB67FFFF10B596B088
:1016D00000201590149013901290119010900421F6
:1016E0000F900846FEF796FF01200E90FEF792FF3E
:1016F0000220FEF78FFF0520000708210D900C91B6
:10170000FEF7DFFE0E9801020D980B91FEF7D9FE51
:1017100038480A900C99FEF7D4FE10200A990990D7
:1017200008460999FEF7CDFE20200A990890084640
:101730000899FEF7C6FE0C9810900E9911910F9A19
:1017400012921392149210AB0D9819460793FEF75C
:1017500049FE0B9910910E9A11920F9B12931393BD
:1017600014930D9C069020460799FEF73BFE0C99BA
:1017700010910E9A11920F9B1293139314930A9C3B
:10178000059020460799FEF72DFE099910910E9AB3
:1017900011920F9B1293139314930A9C049020466A
:1017A0000799FEF71FFE089910910E9A11920F9B50
:1017B0001293139314930A9C039020460799FEF703
:1017C00011FE402110910F99119114910A9A0290E3
:1017D00010460799FEF706FE802110910F9911918E
:1017E00014910A9A019010460799FEF7FBFD0090AC
:1017F00016B010BD0004005010B590B000200F903E
:101800000E900D900C900B900A900990FEF75AFFE5
:1018100002200890099900F0E3F9089800F0D0F947
:1018200009980D907F210E91FF210F9113490DAA68
:10183000084607911146FFF79CFA0BA9099A0A710D
:101840004A718A710123079C06902046059119462A
:10185000059A0493FFF742FB0AA9049A0A704A709A
:10186000099BCB70079C0390204602911146029A77
:10187000FFF76CF9019010B010BDC0460028004081
:1018800070B59EB014A828210D90FEF74EFC0020E4
:1018900013901290119010900F900E9001210A0356
:1018A0000C9010460B91FEF773FD0B98FEF7B2FEFD
:1018B00020200E9002200F90032110910C9A11927B
:1018C0001292139205231B070EAC0A901846099139
:1018D000214608930794FEF785FD40210E910A9A50
:1018E0000F92099B10930C9C119412941394089DD1
:1018F00006902846079E05913146FEF773FD80212C
:101900000E910A990F91099A10920C9B11931293C0
:101910001393089C049020460799FEF763FD042169
:10192000C943192203901046029200F059F9029817
:1019300000F046F90C9814904121890015911690F9
:10194000179018900B994A02199210221A921B9024
:101950001C9007221D920D4A10460D990192FFF727
:10196000C3FB0199009008460C99FFF725FC0198EC
:101970000168059A1140402906D0FFE70348016835
:10198000402211430160FFE71EB070BD00300140EE
:1019900080B58AB000200990089007900690012138
:1019A000059008460491FEF7DFFC0520C1430F2097
:1019B000039000F015F9039800F002F906A80599C4
:1019C0000180079108910991049A930702901846A3
:1019D00002990193FFF750FC019900900846FFF728
:1019E00029FC01980599FFF7B3FC01980599FFF7C9
:1019F000CFFC0198FFF729FC0AB080BD70B59AB002
:101A0000002019901890179016901590149013902C
:101A10001290119010900F900E900D9001218A035A
:101A20000C9010460B91FEF7B3FC0B98FEF7F2FDFD
:101A30000B9841020D9102210E9103220F920C9BF3
:101A4000109311930424129405252D070DAE2846FA
:101A50000A9131460992089407950696FEF7C2FC52
:101A60000B998A020D920A9A0E92099B0F930C9C75
:101A700010941194089D1295079E05903046069982
:101A8000FEF7B0FC0621C9431B22049010460392C6
:101A900000F0A6F8039800F093F84B20C0011390D3
:101AA0000C981490159016900C211791189019907D
:101AB000094913AA084602911146FFF7ADFC0299A5
:101AC00001900846FFF791FC0298FFF772FC02981C
:101AD000FFF797FC1AB070BD0038014070B59AB09E
:101AE000002019901890179016901590149013904C
:101AF0001290119010900F900E900D900121CA0439
:101B00000C9010460B91FEF72FFC0B98FEF782FD10
:101B10000B980D9002210E9103220F920C9B1093B3
:101B200011930624129405252D070DAE28460A911F
:101B300031460992089407950696FEF753FC0A99D8
:101B40000D910E91099A0F920C9B10931193089C82
:101B50001294079D059028460699FEF743FC0A99C2
:101B6000C9430E2204901046039200F039F80398FE
:101B700000F026F84B20C00113900C98149015909B
:101B800016900C211791189019900B4913AA08462A
:101B900002911146FFF740FC0B99C903029A01908C
:101BA0001046FFF721FD0298FFF703FC0298FFF7AC
:101BB00028FC1AB070BDC046004C004070470000C1
:101BC00082B0014601AA107010781F221040012235
:101BD000824002480260009102B0704700E100E0DC
:101BE00070B584B00A46034603AC20700291207899
:101BF00040B20028019200931BDAFFE703A80178A6
:101C00000F22114008390323DB431940164C0959B0
:101C1000007840B28507ED0EFF26AE40B143029E2C
:101C2000B601F6B2AE4031431040083818400151B9
:101C300016E003A8017849B20322D2431140094BB0
:101C4000C958007840B28407E40EFF25A540A94397
:101C5000029DAD01EDB2A54029431040C150FFE700
:101C600004B070BD00E400E01CED00E0704700002F
:101C700080B584B001460390039802910190FEF76D
:101C800031FDC0B200090349085C0199C140084612
:101C900004B080BDAE21000880B584B00146039039
:101CA000039802910190FEF723FD000A0C49085C9D
:101CB0000199C140084604B080BDC04680B584B0DB
:101CC00001460390039802910190FEF717FDC00AA8
:101CD0000349085C0199C140084604B080BDC04674
:101CE000BE21000880B582B0FEF714FD01460C2825
:101CF000009128D80098C046784400794000874475
:101D0000062222220F2222221B2222221E00FEF75E
:101D1000FDFD400B401C01218140C80301901BE0E8
:101D2000FEF7C0FD002803D0FFE72448019002E041
:101D300021480190FFE70FE0214801900CE000F0FE
:101D40000FF8019008E0FEF7E1FD400B401C012177
:101D50008140C8030190FFE7019802B080BDC046F2
:101D600080B584B0FEF708FE0290029800280CD1DE
:101D7000FFE7FEF797FD002803D0FFE70F48039029
:101D800002E00D480390FFE702E00D480390FFE7F3
:101D900003980190FEF7F6FD800C0A49085C019952
:101DA00048430090FEF7E2FD800D411C0098FEF7CD
:101DB0009FF904B080BDC0460024F40000093D0036
:101DC00000127A00C62100080A480068C0050028F1
:101DD0000ED5FFE7084801210160064802680B02A2
:101DE0009A4302600548026849040A430260FFE71B
:101DF0007047C0460C2800409400002014040140A5
:101E000080B582B013480190FEF730FF0198FEF7CD
:101E100023FE114801680522920211430160092145
:101E20000198FEF745FE0D490198FEF72DFE019839
:101E3000FEF71EFE0198FEF73BFF094801680122EC
:101E4000520411430160074801681143016002B068
:101E500080BDC046002800400828004000808080E7
:101E6000000401400804014070477047704780B586
:101E700084B00020FEF7A6FAFEF79EFA002803D0F1
:101E8000FFE7FEF7B0F9FFE70120C002FEF70AFC0A
:101E9000FEF734FDFFE7FEF73FFD012801D0FFE725
:101EA000F9E701208003FEF751FD00200390FEF7C3
:101EB0003DFDFEF7EFFBFEF70DFCFEF769FD039815
:101EC000FEF70EFDFEF7F4FCFFE7FEF7F9FC012834
:101ED00001D0FFE7F9E701200004FEF78BFDFEF7D4
:101EE000F1FB00200290FEF75BFD0298FEF766FD15
:101EF0000298FEF771FD0298FEF78CFDFFE7FEF7F2
:101F000003FC002801D0FFE7F9E7012080040190DD
:101F1000FEF794FB0420FFF769F90198FFF77EF9BB
:101F200003200004FEF786FD04B080BD10B5114803
:101F3000016801221302194301600F490B680F4C1D
:101F400023400B6003680E4C234003600D4B1C685C
:101F500094431C6003689404A34303600868FD2352
:101F60001B0498430860084800210160D006074917
:101F7000086010BD001002400C1002400C40FF88A9
:101F8000F6FFF6FE081002401010024008ED00E0D7
:101F90007047000082B0014601AA10800C4800235F
:101FA00003600C48036010880B4A10600120820710
:101FB0001368034313600091FFE705480068C007FA
:101FC000002801D1FFE7F8E7002002B07047C046C3
:101FD00010000040240000402C000040064801682A
:101FE00001221143016083204000044908609007EA
:101FF000016811430160704738100240280000401A
:102000000E4800680007002806D5FFE70B48016866
:102010000822914301600FE00948006809490A68F5
:10202000094B98540868401CC217920E82183F232F
:102030009A43801A0860FFE77047C0461C38014089
:1020400024380140480000200800002009480068AA
:1020500009490A68094B98540868401CC217920E37
:1020600082183F239A43801A0860054801210160C5
:102070007047C046244C0040900000204C000020D7
:102080008C00002005480168082211430160704758
:102090000248016820221143016070471404005077
:1020A00010B59CB000201B900121079008460691B6
:1020B000FEF76EF906980007FEF756F9FFF7D7FE10
:1020C00072B6FFF703FBFFF797FBFFF799FEFFF7E9
:1020D000D7FBFFF75DFCFFF791FCFFF7FFFC2648FD
:1020E0000590FFF777F925480490FFF773F90498F6
:1020F000016820221143016005990B6813430B60AE
:102100000846FFF77EF90498FFF77BF962B6FFF700
:1021100065FF0698FFF73EFF0390FFF7B9FFFEF754
:1021200019F9FEF70DF9FFF7ADFFFFF76FFA079901
:102130001A911991124A109210AA124B1381124B44
:102140001193124B53821382D3819381538113468F
:1021500015330A2134240290184601922246FDF7D5
:10216000DDFF4E20019908755720C877FEF79AF8D1
:102170000090FFE7FEE7C04600380140004C0040F9
:1021800031313131323200003232323233330000F9
:1021900002E008C8121F08C1002AFAD17047704730
:1021A000002001E001C1121F002AFBD1704700008E
:1021B00000000000000001020304060708090000F7
:1021C000000001020304030406080C10182030006C
:1021D000F021000800000020080000009021000805
:1021E000F82100080800002090040000A021000849
:0821F0000000200000000000C7
:04000005080000C12E
:00000001FF
