:020000040800F2
:10000000B8040020D50000085D3A0008511E000821
:1000100000000000000000000000000000000000E0
:10002000000000000000000000000000E33D0008A8
:100030000000000000000000293B0008E53D00082A
:10004000E7000008E7000008853C0008E70000081A
:10005000E7000008E7000008E7000008E7000008E4
:1000600000000000E7000008E7000008E7000008C3
:10007000E7000008E7000008ED3F0008093F00081E
:10008000E7000008E7000008E700000800000000A3
:10009000E7000008E7000008E7000008E7000008A4
:1000A000E7000008E13D0008E7000008A13F000864
:1000B000E7000008E7000008000000000000000062
:1000C0000348854600F04CFB0048004749490008BA
:1000D000B80400200448804704480047FEE7FEE7D4
:1000E000FEE7FEE7FEE7FEE7A53E0008C1000008C8
:1000F00030B50B46014600202022012409E00D46C0
:10010000D5409D4205D31D469540491B2546954047
:1001100040191546521E002DF1DC30BD70B500248B
:100120002546002801DA01244042002901DA012590
:100130004942FFF7DDFFAC4200D04042002C00D026
:10014000494270BD03460B439B0703D009E008C931
:10015000121F08C0042AFAD203E00B780370401C77
:10016000491C521EF9D27047D2B201E00270401C05
:10017000491EFBD270470022F6E710B513460A4627
:1001800004461946FFF7F0FF204610BD10B504469F
:1001900005E00B780370401C002B00D0491C521E58
:1001A000F7D2204610BD421C0178401C0029FBD12B
:1001B000801A704710B5002200E0521C835C8C5CF2
:1001C000A34201D1002BF8D1D8B2E1B2401A10BD40
:1001D00070B5104D002800D12868002414E00A46AC
:1001E00002E09E4203D0521C1378002BF9D1DAB200
:1001F000224307D0002B06D0002C04D00021017030
:10020000401C04E00446401C0678002EE7D128601C
:10021000204670BD0000002070B5064604F08EFD3B
:10022000046805460A220021304600F059F82C6087
:1002300070BD0122D207002800DB101A002900DB64
:10024000511A814201D801207047002070470122D5
:10025000D207002800DB101A002900DB511A814266
:1002600001D90120704700207047C217C10F5040CC
:1002700010B54018CA079623002100F071F810BD90
:10028000F0B51FB40646002082B005464024019117
:1002900000901BE0019922460F46304600F082FA9A
:1002A000049A059B801A994110D31046194622469C
:1002B00000F068FA361A8F4101972246012000218A
:1002C000009F00F05FFA38184D4100902046641EF0
:1002D0000028DFDC019B00982946324607B0F0BDBC
:1002E000F7B5009C0F4600262578641C002D05D02C
:1002F00000F07CFA0068405DC007F5D12B2D02D0DC
:100300002D2D18D0641E39462046029A00F072FA4C
:10031000002F04D03968A14201D1009939607105DC
:10032000022400290BDA4042002803DD04F006FD18
:100330000460A007FEBD012080020643E3E7002819
:10034000F8DA04F0FBFC04600048FEBDFFFFFF7F0D
:10035000002904DA401C490001D1400840007047E0
:1003600070B40024050C05D11024000402D100292A
:1003700021D01124050E01D100020834050F01D14E
:100380000001241D850F01D18000A41C002801DB81
:100390004000641C002908D020252E1B0D46F54086
:1003A000A14000D001212943084301061B1B000A7C
:1003B000DB1D02D5002070BC7047DB0518188018C3
:1003C0000029F8DA401C4900F5D170BC4008400013
:1003D00070470000F0B507460846584087B0C00F88
:1003E000049048000E46590040084908BC1A88414C
:1003F00005D2384631461E4617460B46024658007F
:10040000400810434CD0300D039040055900400D7A
:10041000490D0590401A0290402872DA1803012114
:10042000000B09050843019004980092002805D0AC
:100430000199524200208841009201900298402187
:100440000A1A0199009800F09DF905460C466B4682
:1004500007CB00F0B8F9C0197141039A0E0D0023C3
:10046000D71756401A467A40164344D0049A002AB9
:100470002DD0029A012A039A15DC1205C01A914167
:1004800001263605001C7141D20F059ED20700934C
:10049000019202962A46234600F00CFA07B0F0BDFE
:1004A00038463146FAE71605224A0F46B218C01AF6
:1004B000B74101210905001C4F4100187F41114639
:1004C00018187941E20F10436D19644113E0E207F7
:1004D0006D0815436408C2071443039A01261205E8
:1004E000C01A91413605001C7141CE0740083043C7
:1004F0004908C01851412A46234600F0CEF9CDE7FD
:10050000FFE7049801224000C117121A00238B4113
:1005100004983146C417381AA141EEE730B40124DB
:10052000E407634030BC55E730B40124E407614080
:1005300030BC4FE70000E0FFF0B51FB488B00B9966
:100540000998002448400999C00F490049080991B9
:10055000C0070B990090490049080B910999089828
:10056000A64608431CD00B990A98084318D009984E
:1005700001244000420D4800410D09982405000364
:10058000000B204309900B980003000B20430B90B5
:1005900050181C494018002201901446104605E0EE
:1005A000002001460DB0F0BD032801DA034600E04B
:1005B00003239C46C11A0AAE0AE05F0008ADED5B5A
:1005C0004F00F75B7D430027AA187C41491C5B1E46
:1005D0006145F2DD410004AB5A522104120C0A437A
:1005E000240C401C0828DFDB01980290009970461B
:1005F00001910090059B049A0799069800F05AF91A
:10060000D0E700000DFCFFFFF0B50C465C4085B064
:10061000E40FE40703944C00002664085900944654
:10062000490802460296224321D062460A431ED060
:100630006200570D4A000E032303550D01240246A4
:100640002C492405781B1B0B360B401823432643EB
:10065000614600901C46501AB44103D30098401CD8
:10066000009002E0921800985B41002803DA002015
:10067000014605B0F0BD0020012109050746864668
:1006800011E064461D46141BB54106D36546521B56
:10069000B341744607430C43A646CD0740084908BA
:1006A000284392185B4105460D43EAD11046184392
:1006B00013D06046194650407140084306D060464A
:1006C000101AB34106D20122002306E000220123C2
:1006D000DB0702E00122D243531000987446010563
:1006E000381C6141029C039D0019694100F0D5F856
:1006F000BFE70000FD0300004A0009030123090BC6
:100700001B0519430A4B10B5520D9A4202DA00201C
:10071000014610BD064B34339A4203DC9A1A00F0AE
:1007200041F810BD034BD21800F02CF810BD0000AA
:10073000FF030000CDFBFFFF10B5002904DB0124FF
:10074000E40740428C412146002B04DB1C46012378
:10075000DB075242A341994200D1904210BD0000F4
:10076000064C0125064E05E0E36807CC2B430C3C04
:1007700098471034B442F7D3FFF7A6FC3857000867
:100780005857000810B5202A04DB0146203A914052
:10079000002010BD914020239C1A0346E3401943DA
:1007A000904010BD10B5202A04DB0846203AD04006
:1007B000002110BD0B46D340D0402024A21A914006
:1007C0000843194610BD10B5202A06DBCB17084692
:1007D000203A1041C1170B4306E00B461341D040AD
:1007E0002024A21A91400843194610BD00487047C2
:1007F0009C560008F7B582B0029C00272078641C44
:1008000015460197302802D0002D15D015E020782C
:100810000127641C782804D0582802D0002D09D064
:100820000BE0002D01D0102D07D1002710252078D6
:10083000641C02E0082500E00A250026009610E06E
:100840000099012769430818020C294680B27143B8
:1008500000908E183804864201D301200190207840
:10086000641C294600F078F80028E9DA039800288B
:1008700005D0002F01D0641E00E0029C04600198A6
:10088000002806D004F05AFA02210160C81E05B003
:10089000F0BD009930040843F9E710B5002B08DAE1
:1008A0000024401C614192185B411A4301D1400869
:1008B000400010BDF0B51FB482B005460C0003D057
:1008C000084604F023FA02E004F020FA2030024641
:1008D000009021462846FFF755FF049B059A0446E1
:1008E0000F4618431143084314D0184610431BD039
:1008F000009840210A1A18460599FFF753FF05464C
:100900000E46009A05990498FFF73CFF084305D06E
:10091000012004E02046394607B0F0BD0020C11791
:1009200005430E432C43374300990E986305401A44
:100930007905E40A00220C43FD0A0A3002D50020A2
:100940000146E9E70105101969410C9C0D9D00194C
:100950006941FFF7A2FFDFE73A2800D230382023B1
:1009600002469A43412A01D310463738884201D3C0
:100970000020C0437047000080B586B001A8002168
:1009800001715E4800680490FFE7049859490968BE
:1009900088423FD0FFE700200390FFE7039802283A
:1009A0000ADCFFE7039801A90A1852780A54FFE706
:1009B0000398401C0390F1E704984F49085C039AA0
:1009C00001AB98540498085C3F2818D1FFE71449FC
:1009D00001A8FFF7EFFB00280CD1FFE71048042126
:1009E00000F05CFA0499491C444A11600121059108
:1009F000009012E00498401C40490860FFE7FFE7C0
:100A00000498401CC117890E41183F229143401A97
:100A10000490BAE700200590FFE7059806B080BD76
:100A2000D556000881B0074800680006002803D5A5
:100A3000FFE70120009002E000200090FFE700980F
:100A400001B070471004005080B588B07D20C00010
:100A500003F08CFAFFE7264800680021C007002851
:100A600002910BD1FFE7E5480068E6490818401EEF
:100A700000783F38411E88410290FFE70298C00786
:100A8000002801D0FFE7E6E7DC480068401EDE49A9
:100A9000086005A800210181069105910491FFE7F6
:100AA000D7480068D8490968884215D0FFE7D4487C
:100AB0000068D449085C04994A1C049205AA505461
:100AC000FFE7CF480168491CCA17920E8A183F23D6
:100AD0009A43891A0160E3E705A80190FFF763FBD9
:100AE000019900900846009903F0FEFA08B080BD15
:100AF000100000405800002010000020500000208E
:100B000080B5A2B0FFE719A800F0BAFC00287CD19C
:100B1000FFE719A802211890179100F0BFF92C21C6
:100B200016900846159100F09BF918998A1C1490AC
:100B30001046179900F0B2F915991390084600F085
:100B40008FF918990A1D12901046179900F0A6F90E
:100B500015991190084600F083F918998A1D109094
:100B60001046179900F09AF915990F90084600F071
:100B700077F9189908310E900846179900F08EF908
:100B800015990D90084600F06BF918990A310A2260
:100B90000C90084611460B9200F080F915990A90C6
:100BA000084600F05DF918991431012209900846B1
:100BB0001146089200F072F915990790084600F066
:100BC0004FF918991531069008460B9900F066F90F
:100BD00015990590084600F043F918991F310490C3
:100BE0000846089900F05AF915990390084600F054
:100BF00037F90B990290084600F032F92121189A32
:100C000001901046FFF7B7FA7DE73F2000F028F982
:100C100000210090084622B080BD000080B584B05D
:100C2000014602900298401E0828019100902ED89B
:100C30000098C0467844007940008744040C0810AE
:100C400014181C20240000F03BFA039023E000F06D
:100C500045F903901FE000F08DF903901BE000F0D0
:100C6000E7F8039017E0FFF7EFFE039013E003F0BF
:100C7000A3FB03900FE003F075FC03900BE000F082
:100C8000D9FB039007E0FFF73BFF039003E0002050
:100C9000C0430390FFE7039804B080BD80B590B0D7
:100CA000564800680D90564800680E90FFE70E9871
:100CB0000D99884216D0FFE70E985249085C3F28EC
:100CC00005D1FFE70E98401CF94908600AE0FFE7EC
:100CD0000E98401CC117890E41183F229143401ABB
:100CE0000E90E4E70E980D99884203D1FFE70020AB
:100CF0000F907FE068463221FFF73DFA00200E900A
:100D0000FFE7ED480068EA490968884215D0FFE727
:100D1000E9480068E549085C0E994A1C0E926A464B
:100D20005054FFE7E4480168491CCA17920E8A181C
:100D30003F239A43891A0160E3E734496846FFF785
:100D400039FA002803D1FFE701200F9052E0304923
:100D50006846FFF72FFA002803D1FFE702200F9023
:100D600048E02C496846FFF725FA002803D1FFE741
:100D700003200F903EE028496846FFF71BFA002841
:100D800003D1FFE704200F9034E024496846FFF7C1
:100D900011FA002803D1FFE705200F902AE020492F
:100DA0006846FFF707FA002803D1FFE706200F90F7
:100DB00020E01C496846FFF7FDF9002803D1FFE752
:100DC00007200F9016E018496846FFF7F3F900284E
:100DD00003D1FFE708200F900CE014496846FFF7A5
:100DE000E9F9002803D1FFE709200F9002E0002075
:100DF0000F90FFE70F9810B080BDC046580000204C
:100E0000500000201000002054000020EE56000882
:100E1000DA560008E4560008D0560008C656000806
:100E2000CB560008DF560008E9560008C1560008F6
:100E300080B588B004A80A219E4A039000F084FA85
:100E4000039902900846FFF7AEF90399019008460E
:100E5000019900F023F800210090084608B080BDF9
:100E600080B584B0014603AA10701078094A029038
:100E70001046029A0191114602F046FAFFE7064831
:100E8000006840210840402801D0FFE7F7E7002034
:100E900004B080BD003801401C38014080B586B0E8
:100EA0000A460346059004910020039002920193A4
:100EB000FFE70398049988420DDAFFE70598007868
:100EC000FFF7CEFF0599491C05910090FFE70398B5
:100ED000401C0390EDE7002006B080BDF0B595B052
:100EE000EE480C9001F03DFE0EA988710C980B9114
:100EF00001F019FE0B9948710C9801F0F6FD0B9961
:100F000008710C9801F0B4FB0DA988700C980A9137
:100F100001F0C8FB0A9948700C9801F0F5FB0A999A
:100F2000C8700C9801F0DCFB0A9908700B98827964
:100F3000437904798D784E78CF78087869460861CE
:100F4000CF608E604D600C60D54911A8099003F008
:100F5000C9FE099908900846FFF725F909990790F5
:100F600008460799FFF79AFF00210690084615B03A
:100F7000F0BDC046B0B592B00AA8002101810B9126
:100F80000A917D20C00002F0F1FFFFE7BD48006834
:100F90000021C007002809910BD1FFE7BA4800687B
:100FA000BA490818401E00783F38411E8841099010
:100FB000FFE70998C007002801D0FFE7E6E7B2483D
:100FC0000068401EB24908600FA8002101811091FD
:100FD0000F910890079100F0DFF90A21354A089B2C
:100FE0000690184600F06FF90D9000F09DF90799F2
:100FF0000E910590FFE7A7480068A5490968884257
:1010000015D0FFE7A3480068A049085C0E994A1C68
:101010000E920FAA5054FFE79E480168491CCA1758
:10102000920E8A183F239A43891A0160E3E7994890
:101030000168491C016096480168491C01601198CB
:101040000AA90870109800011C4A80180FAB5C793F
:10105000303C20434870987900018018DA79303AA2
:10106000104388700F980A22144644435878201879
:10107000894C0019C870987815464543D8782818C7
:10108000001908710491039200F086F9094A049945
:1010900002900846039900F016F90D9000F044F90B
:1010A0000D990190084612B0B0BDC0461000002056
:1010B00054000020000008085000002000FDFFFF41
:1010C000F0B59BB07D20C00002F050FFFFE76D48F7
:1010D00000680021C007002812910BD1FFE76A4881
:1010E00000686A490818401E00783F38411E884150
:1010F0001290FFE71298C007002801D0FFE7E6E74B
:1011000061480068401E6249086000201690FFE7B1
:10111000604800685E490968884215D0FFE75D486D
:1011200000685A49085C16994A1C169217AA50542E
:10113000FFE758480168491CCA17920E8A183F23D6
:101140009A43891A0160E3E717A80021817314917B
:10115000179A0A231C4654434278A2184E4C12197F
:1011600014ADAA7182781E465643C278B21812197D
:101170006A71189A1E4656434279B21812192A719A
:10118000464A1190104610910F930E940D950C92B3
:1011900001F06EFA13A98870119882790F9B53435E
:1011A000C2799A180E9BD2188A70199A0F9C5443D0
:1011B000427AA218D2184A70827A0F9C5443C27A9B
:1011C000A218D218CA70027B303A072410460B913D
:1011D0002146FEF7A3FF0B9A11700C990A9008465E
:1011E00010990D9A01F0D8FC0C99099008461099B5
:1011F0000B9A01F0A5FA0C990890084601F0B1FC91
:101200000D9988710C9801F08EFC0D9948710C981D
:1012100001F06BFC0D9908710C9801F029FA0B99FB
:1012200088700C9801F03EFA0B9948700C9801F008
:101230006BFA0B99C8700C9801F052FA0B99087070
:101240000D988279437904798D784E78CF78087833
:1012500069460861CF608E604D600C60104911983E
:1012600003F040FD119907900846FEF79CFF119985
:10127000069008460699FFF711FE1099059008465A
:101280001BB0F0BD100000405800002010000020EE
:101290005400002050000020F0FDFFFF0028004017
:1012A000F356000810B585B00A46034604AC20701A
:1012B000039103980290049802990870002001920B
:1012C000009305B010BDB0B588B013460C46054676
:1012D00006900591049200200390029301940095DA
:1012E000FFE703980599884217DAFFE70698007828
:1012F0000499FFF7D7FF002804D0FFE70020C04380
:1013000007900DE00698401C06900498401C04903D
:10131000FFE70398401C0390E3E700200790FFE7F6
:10132000079808B0B0BD7047FFE741480068C007A4
:10133000002801D0FFE7F8E7E748016801221143E0
:10134000016000207047C046B0B588B013460C4617
:101350000546079006910592059803900020049099
:10136000029301940095FFE70498069988420FDAEA
:10137000FFE703980078079908700798401C0790CA
:101380000398401C0390FFE70498401C0490EBE78F
:10139000002008B0B0BD000081B0CF480068C00791
:1013A000002808D0FFE707480749016007490160A6
:1013B0000020009003E00020C0430090FFE7009869
:1013C00001B070470C200240EFCDAB890504030249
:1013D00083B001460190C04802684123DB001A43F4
:1013E00002600198002202600091FFE7D648006881
:1013F000C007002801D0FFE7F8E7D348006880075E
:10140000002804D5FFE7D0480221016003E0002056
:10141000C043029008E0B04801684122D2009143E5
:10142000016000200290FFE7029803B07047C046B9
:101430001820024080B58AB097480990304808903B
:1014400007A900220A7006900591FFF7A5FF099AE7
:1014500008A90423049008461946FFF734FF0390B7
:1014600000F01EF9069902900846FFF7B1FF0190BF
:10147000FFF75AFF05990A78009010460AB080BD20
:1014800010B588B0014606900020059005A80422FA
:10149000814B049111461A46FFF756FF0699174AE9
:1014A0001368202403900846214602921A46FFF74B
:1014B0004BFF02990A6820320A600A68774B9A4209
:1014C000019007D3FFE70D480D4901600020C0439C
:1014D00007900FE0094800680599884207D9FFE79F
:1014E0000648074901600020C043079002E0002041
:1014F0000790FFE7079808B010BDC046080000201D
:1015000000590008F0B5A5B02E9C2D9D2C9E2B9F58
:1015100014902A981390184612901046119008467D
:10152000109014982394229521962097139C1F9431
:101530001E931D921C9114991B911D9A17AB1A7042
:101540001BAA557A5D70957A9D70D57ADD70209BC7
:1015500016AD2B70537D6B70937DAB70D37DEB70AC
:10156000229B15AD2B70537F6B70937FAB70D27F36
:10157000EA701AAA0421484B0F9010461A46FFF74A
:10158000E3FE1A99203119911A99444A91420E901A
:1015900004D3FFE70020C04324907AE0FFF7FCFE6D
:1015A00019A904223C4B0D90084611461A46FFF734
:1015B0008AFE0C9000F074F81AA9097849060029EF
:1015C0000B9005D1FFE71A98FFF702FF0A90FFE79B
:1015D0001BA81890189909681A9A0990084611468C
:1015E00000F082F809990A1D1892189A12681A9B3D
:1015F000191D0890104600F077F817A9189118994E
:1016000009681A9A083207900846114600F06CF8EB
:1016100009990C311891189909681A9A0C32069098
:101620000846114600F060F8099910311891189990
:1016300009681A9A103205900846114600F054F8CD
:1016400016A91891189909681A9A14320490084634
:10165000114600F049F8099918311891189909684C
:101660001A9A183203900846114600F03DF815A961
:101670001891189909681A9A1C3202900846114666
:1016800000F032F80190FFF74FFE00212491009006
:10169000FFE7249825B0F0BD14000808FF7F01087B
:1016A00081B00D480068800700280DD5FFE70B4882
:1016B0000B4901600B490160074801680222914310
:1016C00001600020009003E00020C0430090FFE78D
:1016D000009801B07047C04604200240102002402C
:1016E000BFAE9D8C1615141385B00A4603460390B1
:1016F000029172B601920093FFE713480068C00799
:10170000002801D0FFE7F8E7039802990860FFE797
:101710000D480068C007002801D0FFE7F8E762B66F
:10172000094800688007002806D5FFE7064802211F
:1017300001600020049003E00020C0430490FFE714
:10174000049805B07047C046182002400748016859
:1017500001221202114301607047C046034801682C
:1017600001221202914301607047C04614000050EC
:101770000548016810221143016070470248016862
:1017800010229143016070471404005080B586B068
:101790001248059012480490124803901248029093
:1017A00000200190FFE701980F2813DCFFE7FFE717
:1017B000F34800680006002801D5FFE7F8E7019824
:1017C00002A9095CED4801F06FFBFFE70198401C9E
:1017D0000190E8E7002006B080BDC0460100053F4B
:1017E000010101010800F100B5620601F0B5C7B0C2
:1017F000519C509D4F9E4E9F0F904D980E904C982F
:101800000D9018460C9010460B9008460A900F98C1
:1018100046944595449643970E9C42940D9D419560
:1018200040933F923E913DA900220A7001213C91D4
:101830003B921BA97D230990084619460892FEF7A2
:101840009AFC08981A901990189014A90870129090
:1018500011901090FFE714A80078002800D080E1D4
:101860003C98401E0428079000D979E10798400071
:1018700078448088400087440400730129008C006C
:10188000BF00BE48002101F00FFBFFE7BC48006825
:101890000006002801D5FFE7F8E7B84801F0DDFAB7
:1018A0003DA908700878242805D1FFE703203C9063
:1018B00000201A90FFE73DA80078B52805D1FFE782
:1018C00000201A9004203C90FFE749E1AB4800213A
:1018D00001F0EAFAFFE7AA4800680006002801D5EF
:1018E000FFE7F8E7A54801F0B8FA3DA908703D9870
:1018F0001A9A1BAB98540878FF2803D1FFE7012000
:101900003C9006E03DA80078FF2801D0FFE7FFE704
:10191000FFE71A981BA9085C2A282FD1FFE79748F0
:10192000002101F0C1FAFFE7954800680006002891
:1019300001D5FFE7F8E79148069001F08EFA15A966
:1019400008700021069801F0AFFAFFE78C480068A4
:101950000006002801D5FFE7F8E7884801F07DFA86
:1019600015A948701A981BA908180D2242701A98D8
:1019700008180A21817005203C90FFE71A987D28FD
:1019800003DBFFE701203C90FFE71A98401C1A9008
:10199000E6E07A48002101F087FAFFE7784800681E
:1019A0000006002801D5FFE7F8E7744801F055FA72
:1019B0003DA908703D981A9A1BAB98540878FF28E7
:1019C00003D1FFE701203C900BE03DA80078FF2801
:1019D00006D0FFE73DA801786A4801F0A2FCFFE7C6
:1019E000FFE71A987D2803DBFFE701203C90FFE723
:1019F0001A98401C1A90B3E01BA80078502852D1C6
:101A0000FFE71BA8407855284DD1FFE71BA8807839
:101A1000422848D1FFE758491BA8FEF7D9FB179089
:101A200000201890FFE7189815283BDCFFE7524983
:101A30000020FEF7CDFB17901898801E0628059011
:101A40002BD805987844007940008744030B101880
:101A500026261D003EA80A3017990A22FEF796FB9B
:101A600004901AE0179800783EA9087515E03EA882
:101A7000153017990A22FEF789FB03900DE017989D
:101A800000783EA9C87708E01798FEF7C5FBFEF777
:101A9000ECFB469017201890FFE7FFE71898401CD2
:101AA0001890C0E758E01BA80078472853D1FFE7FB
:101AB0001BA840784E284ED1FFE71BA880785228FB
:101AC00049D1FFE71BA8C0784D2844D1FFE700208B
:101AD0001390FFE713981BA902900846FEF763FBDB
:101AE0000299814236D2FFE713981BA9085C2C2883
:101AF00008D1FFE71298401C12901198109013988B
:101B00001190FFE71298022810D1FFE73B980028B8
:101B10000CD1FFE710981BA90818411C3EA804220D
:101B2000FEF734FB01213B910190FFE712980A2850
:101B30000BD1FFE73EA8001D10991BAA5118491CA4
:101B40000622FEF723FB009004E0FFE71398401CF9
:101B50001390BFE7FFE7FFE714A801210170FFE73B
:101B600079E63EA809991CC81CC11CC81CC11CC828
:101B70001CC147B0F0BDC04602570008003001400C
:101B80000830014000380140F0B5B7B02EA824213C
:101B9000FEF7F1FAA64836902AA8012101703220FA
:101BA0002990002028901D90FFF7E8FDA1480168CA
:101BB000402211430160FFF7C9FD962002F0A6F90B
:101BC0001C90FFF7CBFD7D20800002F09FF91B9059
:101BD000FFF7DCFD1D9927911A90FFE796480068F2
:101BE000002806D1FFE7289801210428199112DB6B
:101BF000FFE736989149FEF72AFB0121002818914A
:101C000006D1FFE72EA8007A414248411890FFE72D
:101C100018981990FFE71998C00700284CD0FFE7E3
:101C2000894802F0A3F9FFE7884800680021C0074F
:101C30000028179112D1FFE736988049FEF707FB7D
:101C400001210028169106D1FFE72EA8007A414213
:101C500048411690FFE716981790FFE71798C007BE
:101C6000002825D0FFE7309B2F9A2E993198329C7F
:101C7000339D349E359F1590369814906846139086
:101C800014981291139948610F61CE608D604C6079
:101C9000159808601EA811901299FFF7A7FD2EA8AD
:101CA00011991CC91CC01CC91CC01CC91CC0BBE7A5
:101CB0002898401C289091E75E4801684022914393
:101CC0000160FFF755FD36985C49FEF7B2FA00282F
:101CD00010D1FFE72AA8002101702EA8584941829F
:101CE0000182C1818181418115300A213022FEF7B4
:101CF0003BFAFFE72E980A210A4642432EA8437872
:101D0000D218504BD2182CAC227182780D46554314
:101D1000C278AA18D21862712F9A0C46544342799D
:101D2000A218D2182BACA27082790D465543C27905
:101D3000AA18D2186270309A5143407A0818C01815
:101D4000E0706078022806DCFFE72BA8C1784A1E05
:101D5000C270109104E02BA8C078801E1090FFE79D
:101D600010982BA98A781018887048781722424357
:101D700009200F9010460F9A0E911146FEF7B8F900
:101D80000E998A788018CA789308C018001D6421BB
:101D90000D901046FEF7ACF90D99081A0721FEF7D1
:101DA000BDF90E9A1170D1782C290C901DD0FFE747
:101DB0002BA8C078012818DBFFE72BA8C078632880
:101DC00013DCFFE72D992C982BAA13785478240262
:101DD000E3189478D278120212191204D21801F082
:101DE000D7FF154801210160FFE72AA800780128E4
:101DF0001BD1FFE7319B309A2F992E98329C339D4F
:101E0000349E359F0B9036980A90684609900A9840
:101E1000089109990861CF608E604D600C600B9845
:101E20000899FFF76FFB0790FFE7002037B0F0BD80
:101E3000804FC347003001405C0000200000484252
:101E400030300000F0FDFFFF307500001000004052
:101E500080B5FFE701F05AFEFCE7000082B00146C2
:101E6000019001980C4A136883431360009102B0FB
:101E70007047C04684B0014603900398064A136831
:101E8000034313601068039A104002900298019176
:101E9000009004B07047C0463810024082B001463E
:101EA000019001980C4A136883431360009102B0BB
:101EB0007047C04684B0014603900398064A1368F1
:101EC000034313601068039A104002900298019136
:101ED000009004B07047C0463410024009480068C2
:101EE000012108407047C04682B001460190054874
:101EF000026801239A43019B1A430260009102B0D9
:101F00007047C0460020024080B588B00A460346AC
:101F10000790069100200590049003920293FFE73A
:101F2000069800680599C840002845D0FFE7069844
:101F30000068059901228A40104004900498002806
:101F400036D0FFE707980499069A526800F092F895
:101F500006984068012805D0FFE7069840680228E7
:101F600007D1FFE707980499069A926800F0CAF82B
:101F7000FFE707980499069A126900F0AAF80698F4
:101F80004068022813D1FFE70498FF2807D8FFE72D
:101F900007980499069A526900F031F806E007980C
:101FA0000499069A526900F047F8FFE7FFE7FFE758
:101FB0000598401C0590B3E706984068012805D0B5
:101FC000FFE70698406802280AD1FFE707980699BC
:101FD0000A68C96801911146019A00F064F8FFE7A8
:101FE000002008B080BD84B00A46034603900291E9
:101FF0000298039988620192009304B0704770B50B
:1020000086B013460C460546059004910392059848
:10201000006A04990A4652430E46564371430F2202
:102020004A439043039A4A43104305990862029336
:102030000194009506B070BD70B586B013460C468D
:1020400005460590049103920598406A0499090A8F
:102050000A4652430E46564371430F224A43904369
:10206000039A4A43104305994862029301940095EC
:1020700006B070BDB0B586B013460C460546059057
:1020800004910392059800680499494303224A4346
:102090009043039A4A4310430599086002930194C0
:1020A000009506B0B0BDB0B586B013460C460546E7
:1020B0000590049103920598406804998843039A17
:1020C0004A4310430599486002930194009506B075
:1020D000B0BDB0B586B013460C46054605900491D8
:1020E00003920598C0680499494303224A439043E8
:1020F000039A4A4310430599C860029301940095DE
:1021000006B0B0BDB0B586B013460C460546059086
:1021100004910392059880680499494303224A4335
:102120009043039A4A4310430599886002930194AF
:10213000009506B0B0BD000084B00146039003983E
:10214000064A1368034313601068039A1040029014
:1021500002980191009004B07047C0462C100240D4
:1021600080B582B00146019001987D22D200009195
:10217000114600F003F802B080BD000080B584B0C5
:102180000A46034603900291039802990192009334
:10219000FDF7AEFF401E05490860054800210160BB
:1021A00004480521016004B080BDC04614E000E091
:1021B00018E000E010E000E00A4801680122120285
:1021C000114301607047C04682B001460190054846
:1021D00002680323DB029A43019B1A4302600091C9
:1021E00002B0704700700040D2480168012292049A
:1021F000114301607047C046CE4801680122D204F5
:10220000114301607047C046D2480068F021084081
:102210007047C046CF480068072109020840704750
:10222000CC4800680721C90208407047C9480068C7
:102230000C2108407047C046C64800680C21084081
:102240007047C04680B582B001460190009101F010
:10225000A7FC019908600198006801F067FC0199EA
:1022600048600198406801F075FC01998860019808
:10227000406801F081FC0199C86002B080BD000097
:1022800080B586B00146059000200490059803288B
:10229000039139D1FFE7059800F084F83D494018D3
:1022A0000328029027D80298784400794000874498
:1022B0002101051701F074FC049024E000F07EF881
:1022C00000280CD0FFE700F07FF8002803D0FFE7DC
:1022D0003248049002E030480490FFE7FFE712E044
:1022E00000F088F8002804D0FFE70120C003049024
:1022F000FFE708E0FFE701F053FC01F017FC01F0F5
:102300003BFC0490FFE7FFE705980C283FD1FFE76F
:10231000059800F047F8224940180C2801902DD864
:102320000198C04678440079400087442627272733
:10233000062727270A2727271C0001F031FC0490D5
:1023400024E000F03BF800280CD0FFE700F03CF858
:10235000002803D0FFE71148049002E00E480490E3
:10236000FFE7FFE712E000F045F8002804D0FFE7A0
:102370000120C0030490FFE708E0FFE701F010FC34
:1023800001F0D4FB01F0E6FB0490FFE7FFE70498BF
:1023900006B080BD0000FDFF0024F40000093D00F0
:1023A0000000F4FF82B00146019073480068019A72
:1023B000104012041043009102B070472348006897
:1023C0000421084080087047204800681021084018
:1023D0000009704757480168012212021143016049
:1023E0007047C04653480068012149020840400A2E
:1023F0007047C0464F480068012149020840400A22
:102400007047C04682B0014601904A4802680323E3
:10241000DB029A43019B1A430260009102B07047AD
:102420000A48016801221202114301607047C04648
:1024300016480068072149030840704703480068B0
:10244000012149020840400A7047C046001002407E
:1024500082B0014601900D480268FF231B069A4393
:10246000019B1B06D2180260009102B07047C04663
:1024700082B0014601900548026807235B039A4336
:10248000019B1A430260009102B0704704100240A1
:102490003048006803218905084070472D480068CE
:1024A00001210904084070472A4800680F21890467
:1024B000084070471F4801680122D204914301601F
:1024C0007047C04682B00146019022480268F0235E
:1024D0009A43019B1A430260009102B07047C046C4
:1024E00082B0014601901B48026807231B029A43F1
:1024F000019B1A430260009102B0704782B001460E
:102500000190144802680723DB029A43019B1A4397
:102510000260009102B0704782B001460190054808
:10252000026803231B049A43019B1A430260009133
:1025300002B070475010024082B001460190054839
:10254000026803239A43019B1A430260009102B080
:102550007047C0460C10024010B582B00146019091
:1025600005480268019B1C0CA2439BB21A430260FF
:10257000009102B010BDC0464C10024082B001462E
:1025800001900198826801231B029A4382600091A6
:1025900002B0704782B00146019001988268012321
:1025A0001B021A438260009102B0704784B00A4651
:1025B0000346039002910398C069054908400299B7
:1025C00008430399C8610192009304B07047C04664
:1025D0007F7F7F7F84B00A46034603900291039871
:1025E000C0697F21884302A9097808430399C8611B
:1025F0000192009304B0704782B0014601900198A7
:10260000C06880221040A022D2438018019AD06076
:10261000009102B070470000F0B58BB0109C1D46D1
:1026200016460F460590049005980A900991089265
:1026300007930999490310AA12781204114307AAB3
:1026400012781202114308AA1278891806910A9981
:102650004968064A1140069A11430A9A5160039448
:102660000295019600970BB0F0BDC046C00000FF78
:1026700083B001460290029840683F2210400190CA
:1026800001981040009103B0704783B0014602905A
:10269000029840683F22104001900198104000913C
:1026A00003B0704783B001460290029840681F2231
:1026B00012021040019001981040000A009103B0EE
:1026C000704783B001460290029840681F221202B0
:1026D0001040019001981040000A009103B070472B
:1026E00082B0014601900198406880B2400B009191
:1026F00002B0704782B0014601900198406880B2F4
:10270000400B009102B0704783B0014602900298DE
:102710004068FF2212041040019001A880780091C7
:1027200003B0704783B00146029002984068FF22D0
:1027300012041040019001A88078009103B0704706
:10274000B0B58EB013460C4605460D900C910B9219
:102750000AA8012101700C98002809930894079594
:102760000DD1FFE70B984078C006002807D5FFE79A
:102770000B984178EF2211400A314170FFE70C9825
:10278000002801D1FFE700E0FFE70D9800F076F8A0
:102790000D9800F09BF8012851D0FFE70C98002815
:1027A0000ED0FFE70D980B990A788B784C78C97892
:1027B0006D46296011461A462346FFF72DFF2AE091
:1027C0000D980B990A788B780A2406901846059183
:1027D000214604920394FDF78BFC00010843C2B22A
:1027E0000598407803990292FDF782FC00010843A6
:1027F000C3B20598C07803990193FDF779FC0001F5
:102800000843C0B26946086006980499029A019B81
:10281000FFF702FFFFE70D4800F01AF80D9800F0EF
:10282000EBF8002806D1FFE70D9800F043FA0AA95B
:10283000087003E00AA800210170FFE7FFE70D9888
:1028400000F03BF80AA800780EB0B0BD00280040A8
:1028500082B00146019001988022D243C26000916B
:1028600002B0704782B0014601900198CA224262CC
:10287000019853224262009102B0704782B0014633
:1028800001900198CA22426201985322426200914B
:1028900002B0704782B00146019001980022D243F5
:1028A000C260009102B0704782B001460190019869
:1028B000FF224262009102B0704782B0014601904F
:1028C0000198FF224262009102B0704780B586B045
:1028D000014605907D20C000049003A800220270EC
:1028E0000598019100F072F8002830D1FFE70598B3
:1028F000FFF7D0FF059800F069F80290FFE7049811
:1029000000210028009106D0FFE70298401E411EDA
:1029100088410090FFE70098C007002816D0FFE725
:1029200000F0D2FA012804D1FFE70498401E049079
:10293000FFE7059800F04AF802900498002804D1B7
:10294000FFE703A801210170FFE7D8E7FFE703A82D
:10295000007806B080BD82B0014601900198806881
:1029600040221040009102B0704780B586B00A4600
:1029700003460590049103A8012101700598029275
:102980000193FFF77BFF0598FFF7A0FF012816D002
:10299000FFE705980499096800F04CF80598049938
:1029A000896800F059F805980499496800F02FF8F3
:1029B0000598FFF74DFF03A800210170FFE7059878
:1029C000FFF77BFF03A8007806B080BD82B0014608
:1029D00001900198C068402210408009009102B027
:1029E000704782B0014601900198C06820221040D3
:1029F0004009009102B0704782B0014601900198F1
:102A00008068202210404009009102B0704784B0D5
:102A10000A46034603900291039800697F21090446
:102A200088430299090408430399086101920093BD
:102A300004B0704784B00A4603460390029103989D
:102A40008068402188430299084303998860019275
:102A5000009304B07047000084B00A460346039018
:102A600002910398006905490840029908430399B7
:102A700008610192009304B07047C0460080FFFFD8
:102A8000F0B58BB0109C1D4616460F46059004907D
:102A900005980A90099108920793099908AA127853
:102AA0001204114307AA12781202114310AA1278D5
:102AB000114306910A990968054A1140069A114383
:102AC0000A9A116003940295019600970BB0F0BD2D
:102AD000808080FF82B00146019001980068012249
:102AE00092051040009102B0704783B001460290F9
:102AF000029800683F221204104001900198104093
:102B0000000C009103B0704783B001460290029818
:102B100000683F2212041040019001981040000C00
:102B2000009103B0704783B001460290029800689C
:102B30007F2212021040019001981040000A00917B
:102B400003B0704783B001460290029800687F226C
:102B500012021040019001981040000A009103B049
:102B6000704783B001460290029800687F221040AF
:102B7000019001981040009103B0704783B0014666
:102B80000290029800687F22104001900198104046
:102B9000009103B070470000B0B58EB013460C46EC
:102BA00005460D900C910B920AA8012101700C981A
:102BB00000280993089407950CD1FFE70D98FFF7BB
:102BC000CAFE002801D0FFE703E00B980021016056
:102BD000FFE70BE00D98FFF7BEFE002801D0FFE7EE
:102BE00003E00B9800210160FFE7FFE70D98FFF776
:102BF00045FE0D98FFF76AFE012851D0FFE70C98BB
:102C000000280ED0FFE70D980B990A680B794C79D4
:102C100089796D46296011461A462346FFF730FF31
:102C20002AE00D980B990A680B790A240690184639
:102C30000591214604920394FDF75AFA00010843D6
:102C4000C2B20598407903990292FDF751FA00014A
:102C50000843C3B20598807903990193FDF748FAB8
:102C600000010843C0B26946086006980499029AB8
:102C7000019BFFF705FFFFE70D48FFF7E9FD0D9802
:102C8000FFF7BAFE002806D1FFE70D9800F012F812
:102C90000AA9087003E00AA800210170FFE7FFE716
:102CA0000D98FFF70AFE0AA800780EB0B0BDC04626
:102CB0000028004080B58AB0014609907D20C00000
:102CC000089007A80022027009980591FFF794FC6C
:102CD0000998FFF786FE0690FFE708980021002874
:102CE00004910BD0FFE70698012100280390029180
:102CF00001D10398029002980490FFE70498C0075E
:102D0000002816D0FFE700F0DFF8012804D1FFE724
:102D10000898401E0890FFE70998FFF762FE0690AA
:102D20000898002804D1FFE707A801210170FFE7F8
:102D3000D3E707A80078012830D0FFE77D20C00046
:102D400008900998FFF74DFE0690FFE708980021CC
:102D50000028019106D0FFE70698401E411E8841D9
:102D60000190FFE70198C007002816D0FFE700F0A8
:102D7000ABF8012804D1FFE70898401E0890FFE750
:102D80000998FFF72EFE06900898002804D1FFE767
:102D900007A801210170FFE7D8E7FFE707A800783F
:102DA0000AB080BD80B586B00A46034605900491FE
:102DB00003A80121017005980292019300F042F8E6
:102DC000002833D1FFE7059800681D4908400499A1
:102DD0000A684B681A438B681A43CB681A430B691D
:102DE0001A434B691A438B691A43CB691A43096A20
:102DF0000A431043059908600598406804218843F8
:102E00000499C98A0843059948600498006A012119
:102E10004903884206D1FFE705980499496A00F002
:102E200025F8FFE703A800210170FFE70598C169B5
:102E30000122D2029143C16103A8007806B080BD8F
:102E40004000FFFF82B001460190019800684022D7
:102E500010408009009102B0704782B00146019095
:102E60000198C068C0B2009102B0704784B00A46B1
:102E700003460390029102A8008803990861019219
:102E8000009304B0704784B00A4603460390029151
:102E900003984068102188430299084303994860C9
:102EA0000192009304B0704785B00A46034604902F
:102EB00003A8017004980C300290039802990870DE
:102EC0000192009305B070470E4800680121090483
:102ED0000840000C7047C04682B00146019001983E
:102EE0000428009106D1FFE7064801680422114337
:102EF000016005E003480168042291430160FFE797
:102F000002B0704710E000E082B0014601900198E5
:102F1000024A1060009102B07047C0460C000020C9
:102F200082B0014601900198026880239A430260B2
:102F3000009102B0704782B001460190019882680A
:102F400080239A438260009102B0704782B00146AC
:102F500001900198426901231A434261009102B035
:102F60007047000080B586B00A460346059004917C
:102F7000059800680390059801218907884202920C
:102F800001930FD0FFE70598234988420AD0FFE755
:102F900005982249884205D0FFE7059820498842D4
:102FA00008D1FFE7039870218843049949680843D2
:102FB0000390FFE705980121890788420FD0FFE7BA
:102FC0000598154988420AD0FFE7059813498842B9
:102FD00005D0FFE705981249884209D1FFE7039819
:102FE0000321090288430499C96808430390FFE755
:102FF00003980599086005980499896800F012F80B
:1030000005980499098800F02DF80598FFF79EFFB0
:10301000002006B080BDC04600040040000801400A
:103020000014014084B00A460346039002910298BE
:103030000399C8620192009304B0704784B00A46B5
:10304000034603900291039880680549084002995D
:103050000843039988600192009304B07047C0460A
:10306000F8BFFFFF84B00A4603460390029102981E
:10307000039988620192009304B0704784B00A46B5
:103080000346039002910398406870218843029997
:103090000843039948600192009304B0704782B0DE
:1030A00001460190019842680923DB029A4342607D
:1030B000019882682A239A438260009102B0704787
:1030C00082B0014601900198026801239A43026090
:1030D000009102B0704782B0014601900198826869
:1030E00001231B031A438260009102B0704782B033
:1030F000014601900198026801231A430260009181
:1031000002B0704782B00146019001980268012325
:103110001A430260009102B07047000080B58CB085
:103120000A4603460B900A9109A80121017000206C
:1031300008900B980392029300F06CF800285FD17E
:10314000FFE70B980068304908400A994A68CB6845
:103150001A430B691A4389690A4310430B990860A3
:103160000B980A99896800F0ABF80B980A9949699D
:1031700000F094F80B98ED49884205D1FFE7032051
:10318000FFF77EF8089023E00B982049884205D18C
:10319000FFE70C20FFF774F8089018E00B98E4495B
:1031A000884206D1FFE704A8FFF74CF8069808907C
:1031B0000CE00B981649884206D1FFE704A8FFF7F8
:1031C00041F80698089000E0FFE7FFE7FFE7FFE718
:1031D0000898002813D0FFE70A98006800280ED04E
:1031E000FFE709A8002101700B9808990A9A9369D2
:1031F000126801921A46019B00F016F8FFE7FFE7FC
:1032000009A800780CB080BDF369FFEF00440040CE
:103210000050004082B001460190019800680122F0
:103220001040009102B07047F0B58BB01C461546B7
:103230000E4607460A9009910892079308980121C3
:10324000C9038842049403950296019718D1FFE7B9
:103250000998400007994A088018FCF749FF80B296
:10326000069006980C490840059006980E210840E3
:10327000400805990143059105980A99C86009E03D
:10328000099807994A088018FCF732FF80B20A991A
:10329000C860FFE70BB0F0BDF0FF000084B00A4645
:1032A0000346039002910398806803210902884332
:1032B00002990843039988600192009304B0704713
:1032C00084B00A46034603900291039840680321A4
:1032D00009038843029908430399486001920093C7
:1032E00004B0704784B00A460346039002910398E5
:1032F00040680121C9038843029908430399486043
:103300000192009304B0704784B00A4603460390CC
:1033100002A801700078039988620192009304B0BA
:10332000704784B00A460346039002A801700078F3
:10333000039988620192009304B0704784B00A46F2
:103340000346039002A801700078039988620192F5
:10335000009304B07047000010B592B000201190A7
:1033600010900F900E900D900C9001210D910E90E9
:103370000F900222109204230C9305231B070CAC20
:103380000B9018460A912146099208930794FEF77C
:10339000BBFD10210C910899069008460799FEF78D
:1033A000B3FD0A99CA020C92089A05901046079933
:1033B000FEF7AAFD0A990A030C92089A0490104697
:1033C0000799FEF7A1FD0A990C91B24A03901046A5
:1033D00007990292FEF798FD09990C91029A0190C3
:1033E00010460799FEF790FD52490A68064B1A40AD
:1033F0000A6006490A6803239A430A600B99009001
:10340000084612B010BDC046EB67FFFF1404005021
:1034100010B592B0FEF7ACF900F0FEFD00F0A2FF8F
:1034200041480168402291430160404801680122FF
:10343000D343194001603E480168194001600020F3
:10344000119010900F900E900D900C90D1040A9056
:1034500008460992FEF702FD09988003FEF71EFD5B
:1034600009980D900A990E910F9102221092430231
:103470000C9305231B070CAC1846214608920793B2
:103480000694FEF741FD09998A020C92079B05906C
:10349000184606990492FEF737FD04990C91079A95
:1034A000039010460699FEF72FFD08990C91079A94
:1034B000029010460699FEF727FD1E490A681E4B2A
:1034C0001A400A600A99CA431C4B1A600B9101907A
:1034D000FFE70B9807280BDCFFE70B988000002123
:1034E000C9431B4A8150FFE70B98401C0B90F0E743
:1034F000134801682F2212029143016011480168AC
:1035000004221143016010480168022291430160C6
:103510000E48016801229143016030BF0348FFF764
:10352000F1FD002012B010BD003001400038014014
:10353000004C004014000050FCF9FFFF140401404F
:103540000C28004010ED00E00070004004700040C6
:1035500080E200E010B598B000201790169015900A
:10356000149013901290042111900846FEF7E4FD88
:1035700001201090FEF7E0FD0220FEF7DDFD0520A2
:10358000000708210F900E91FEF72DFD1098010203
:103590000F980D91FEF727FD3E480C900E99FEF70F
:1035A00022FD10200C990B9008460B99FEF71BFD8D
:1035B00020200C990A9008460A99FEF714FD0E98EF
:1035C000129010991391119A14921592169212ABAF
:1035D0000F9819460993FEF797FC0D991291109ACE
:1035E0001392119B1493159316930F9C08902046E9
:1035F0000999FEF789FC0E991291109A1392119B6A
:103600001493159316930C9C079020460999FEF786
:103610007BFC0B991291109A1392119B14931593A2
:1036200016930C9C069020460999FEF76DFC0A99AA
:103630001291109A1392119B1493159316930C9C4C
:10364000059020460999FEF75FFC402112911199DF
:10365000139116910C9A049010460999FEF754FCA8
:10366000802112911199139116910C9A0390104692
:103670000999FEF749FC1099CA031292119A139204
:1036800016920F9B029018460999FEF73DFC019097
:1036900018B010BD0004005010B590B000200F907D
:1036A0000E900D900C900B900A900990FEF79CFDE7
:1036B00002200890099900F0E3F9089800F0D0F989
:1036C00009980D907F210E91FF210F9113490DAAAA
:1036D000084607911146FFF748F90BA9099A0A71A4
:1036E0004A718A710123079C06902046059119466C
:1036F000059A0493FFF750FA0AA9049A0A704A70CF
:10370000099BCB70079C0390204602911146029AB8
:10371000FFF716F8019010B010BDC0460028004019
:1037200070B59EB014A828210D90FCF724FD002050
:1037300013901290119010900F900E9001210A0397
:103740000C9010460B91FEF7B5FB0B98FEF7F4FCBE
:1037500020200E9002200F90032110910C9A1192BC
:103760001292139205231B070EAC0A90184609917A
:10377000214608930794FEF7C7FB40210E910A9A51
:103780000F92099B10930C9C119412941394089D12
:1037900006902846079E05913146FEF7B5FB80212D
:1037A0000E910A990F91099A10920C9B1193129302
:1037B0001393089C049020460799FEF7A5FB04216B
:1037C000C943192203901046029200F059F9029859
:1037D00000F046F90C98149041218900159116903B
:1037E000179018900B994A02199210221A921B9066
:1037F0001C9007221D920D4A10460D990192FFF769
:10380000D1FA0199009008460C99FFF73CFB01980A
:103810000168059A1140402906D0FFE70348016876
:10382000402211430160FFE71EB070BD003001402F
:1038300080B58AB000200990089007900690012179
:10384000059008460491FEF715FB0520C1430F20A3
:10385000039000F015F9039800F002F906A8059905
:103860000180079108910991049A930702901846E4
:1038700002990193FFF776FB019900900846FFF744
:103880004FFB01980599FFF7D9FB01980599FFF7C0
:10389000F5FB0198FFF74FFB0AB080BD70B59AB0F9
:1038A000002019901890179016901590149013906E
:1038B0001290119010900F900E900D9001218A039C
:1038C0000C9010460B91FEF7F5FA0B98FEF734FCBE
:1038D0000B9841020D9102210E9103220F920C9B35
:1038E000109311930424129405252D070DAE28463C
:1038F0000A9131460992089407950696FEF704FB53
:103900000B998A020D920A9A0E92099B0F930C9CB6
:1039100010941194089D1295079E059030460699C3
:10392000FEF7F2FA0621C9431B22049010460392C7
:1039300000F0A6F8039800F093F84B20C001139014
:103940000C981490159016900C21179118901990BE
:10395000094913AA084602911146FFF7DFFB0299B5
:1039600001900846FFF7B7FB0298FFF798FB029813
:10397000FFF7BDFB1AB070BD0038014070B59AB0BA
:10398000002019901890179016901590149013908D
:103990001290119010900F900E900D900121CA047A
:1039A0000C9010460B91FEF765FA0B98FEF7C4FBDE
:1039B0000B980D9002210E9103220F920C9B1093F5
:1039C00011930624129405252D070DAE28460A9161
:1039D00031460992089407950696FEF795FA0A99DA
:1039E0000D910E91099A0F920C9B10931193089CC4
:1039F0001294079D059028460699FEF785FA0A99C4
:103A0000C9430E2204901046039200F039F803983F
:103A100000F026F84B20C00113900C9814901590DC
:103A200016900C211791189019900B4913AA08466B
:103A300002911146FFF772FB0B99C903029A01909C
:103A40001046FFF74FFC0298FFF729FB0298FFF79B
:103A50004EFB1AB070BDC046004C004070470000DD
:103A600082B0014601AA107010781F221040012276
:103A7000824002480260009102B0704700E100E01D
:103A800070B584B00A46034603AC207002912078DA
:103A900040B20028019200931BDAFFE703A80178E7
:103AA0000F22114008390323DB431940164C0959F2
:103AB000007840B28507ED0EFF26AE40B143029E6E
:103AC000B601F6B2AE4031431040083818400151FB
:103AD00016E003A8017849B20322D2431140094BF2
:103AE000C958007840B28407E40EFF25A540A943D9
:103AF000029DAD01EDB2A54029431040C150FFE742
:103B000004B070BD00E400E01CED00E0BFF34F8F97
:103B1000034804490160BFF34F8FFFE700BFFDE793
:103B20000CED00E00400FA057047000080B584B099
:103B300001460390039802910190FEF765FBC0B225
:103B400000090349085C0199C140084604B080BDE2
:103B5000A056000880B584B00146039003980291F6
:103B60000190FEF757FB000A0C49085C0199C1401F
:103B7000084604B080BDC04680B584B001460390BD
:103B8000039802910190FEF74BFBC00A0349085CC1
:103B90000199C140084604B080BDC046B056000837
:103BA00080B582B0FEF748FB01460C28009128D86A
:103BB0000098C046784400794000874406222222BB
:103BC0000F2222221B2222221E00FEF731FC400B74
:103BD000401C01218140C80301901BE0FEF7F4FB6B
:103BE000002803D0FFE72448019002E0214801901B
:103BF000FFE70FE0214801900CE000F00FF8019082
:103C000008E0FEF715FC400B401C01218140C80371
:103C10000190FFE7019802B080BDC04680B584B036
:103C2000FEF73CFC0290029800280CD1FFE7FEF75B
:103C3000CBFB002803D0FFE70F48039002E00D48BC
:103C40000390FFE702E00D480390FFE7039801901F
:103C5000FEF72AFC800C0A49085C01994843009051
:103C6000FEF716FC800D411C0098FCF741FA04B0E9
:103C700080BDC0460024F40000093D0000127A0017
:103C8000B85600080C480068C005002812D5FFE7A8
:103C90000A4801210160084802680B029A43026049
:103CA00002688B029A4302600548026849040A438D
:103CB0000260FFE77047C0460C280040B4000020B7
:103CC0001404014080B586B00A460346059004916D
:103CD0004248039002920193FEF716FF059908717E
:103CE0000398FEF72FFF059948710398FEF746FFEA
:103CF000059988710398FEF7EDFE05990860039811
:103D0000FEF7C3FC049988700398FEF7DAFC049967
:103D100048700398FEF706FD0499C8700398FEF7F3
:103D2000E9FC0499087006B080BDC04680B582B039
:103D30002A480190FEF796FD0198FEF71FFC1048F7
:103D40000168052292021143016009210198FEF7E2
:103D500041FC0C490198FEF729FC0198FEF71AFC7A
:103D60000198FEF7A1FD08480168012252041143A1
:103D70000160064801681143016002B080BDC04681
:103D800008280040008080800004014008040140B1
:103D900070B58CB00B46044615460B910A90100E78
:103DA00009A9C870100C8870100A48700A700B4876
:103DB00000220AAE089007911146069232460593FA
:103DC00004940395FEF7E8FE0899029008460699C8
:103DD000079AFEF7B5FC01900CB070BD00280040BA
:103DE00070477047704780B584B00020FEF77CF8BC
:103DF000FEF774F8002803D0FFE7FDF794FAFFE719
:103E00000120C002FEF7E0F9FEF70AFBFFE7FEF72C
:103E100015FB012801D0FFE7F9E701208003FEF739
:103E200027FB00200390FEF713FBFEF7C5F9FEF712
:103E3000E3F9FEF73FFB0398FEF7E4FAFEF7CAFA50
:103E4000FFE7FEF7CFFA012801D0FFE7F9E70120ED
:103E50000004FEF761FBFEF7C7F900200290FEF7B1
:103E600031FB0298FEF73CFB0298FEF747FB0298F5
:103E7000FEF762FBFFE7FEF7D9F9002801D0FFE764
:103E8000F9E7012080040190FEF76AF90420FFF7AA
:103E900023F80198FFF738F803200004FEF75CFBD5
:103EA00004B080BD10B51148016801221302194306
:103EB00001600F490B680F4C23400B6003680E4CE8
:103EC000234003600D4B1C6894431C6003689404FA
:103ED000A34303600868FD231B0498430860084857
:103EE00000210160D0060749086010BD00100240A3
:103EF0000C1002400C40FF88F6FFF6FE081002404E
:103F00001010024008ED00E07047000082B001464A
:103F100001AA10801F48002303601F480360108817
:103F20001E4A10600120820713680343136000914A
:103F3000FFE718480068C007002801D1FFE7F8E74D
:103F4000002002B07047C0460648016801221143B4
:103F50000160832040000449086090070168114314
:103F600001607047381002402800004082B00146CE
:103F700001AA1080074800230360074803601088E7
:103F8000064A106001208207136803431360009102
:103F900002B0704710000040240000402C00004098
:103FA0000E4800680007002806D5FFE70B480168A7
:103FB0000822914301600FE00948006809490A6836
:103FC000094B98540868401CC217920E82183F2370
:103FD0009A43801A0860FFE77047C0461C380140CA
:103FE00024380140580000201000002009480068D3
:103FF0003B490A683B4B98540868401CC217920E14
:1040000082183F239A43801A0860334801210160D7
:104010007047C046244C0040DC4801680822114328
:1040200001607047D94801680822914301607047D8
:1040300080B588B028480068002845D0FFE72748A9
:1040400000680690FFE7069825490968884237D03E
:10405000FFE706982349085C3F2826D1FFE706982A
:10406000401CC117890E41183F229143401A1B4939
:1040700008601046059200F037FB05990490084649
:1040800000F032FB05990390084600F02DFB0599DE
:104090000290084600F028FB05990190084600F0C0
:1040A00023FB00210791009012E0FFE70698401CD7
:1040B000C117890E41183F229143401A0690C2E76A
:1040C0000120C043079003E00020C0430790FFE7B2
:1040D000079808B080BDC046A4000020A8000020BA
:1040E000B000002064000020B0B5C4B00A4603460A
:1040F000439042913692359300F03AF93CA8002162
:1041000001813D913C9139AA11813A913991439BAA
:104110001C795D792D022C1994801C785D782D0214
:104120002C199D78DB781B025B191B041B19399332
:10413000439B9B1D429CA41F34903391194632929D
:104140002246FBF7FFFF3FA9339A0A8140923F9234
:10415000C24B032431901846309121462F9400F031
:10416000DFFA37A9309A2E9010462D9100F07CF995
:104170003799309A2C901046FCF790FE7349042230
:104180002B90084611462A9200F0CAFA7049012283
:1041900029900846114600F0C3FA0D2128900846E0
:1041A000279100F0A1FA3099269008462D9900F049
:1041B0005BF93799309A25901046FCF76FFE6549F8
:1041C000249008462A9900F0ABFA634923900846E8
:1041D0002F9900F0A5FA27992290084600F084FA5A
:1041E0003099219008462D9900F03EF93799309A80
:1041F00020901046FCF752FE9A491F9008462A9AD2
:104200001E91114600F08CFA34991D900846FBF778
:10421000CAFF34991C9008461C9900F081FA27992E
:104220001B90084600F060FA30991A9008462D99C4
:1042300000F01AF93799309A19901046FCF72EFEC3
:104240008749189008462A9A1791114600F068FA93
:10425000329916900846FBF7A6FF3299159008464A
:10426000159900F05DFA27991490084600F03CFA81
:104270003099139008462D9900F0F6F83799309A46
:1042800012901046FCF70AFE3449119008462A990C
:1042900000F046FA27991090084600F025FA309968
:1042A0000F9008462D9900F0DFF83799309A0E905C
:1042B0001046FCF7F3FD2A490D9008462A9900F0B4
:1042C0002FFA27990C90084600F00EFA30990B90BF
:1042D00008462D9900F0C8F83799309A0A90104690
:1042E000FCF7DCFD1799099008462A9900F018FAA6
:1042F00027990890084600F0F7F93099079008468A
:104300002D9900F0B1F83799309A06901046FCF7D5
:10431000C5FD1E99059008462A9900F001FA2799D3
:104320000490084600F0E0F93099039008462D9972
:1043300000F09AF83799309A02901046FCF7AEFDDB
:10434000019000F00FF8339844B0B0BD2C5700082E
:104350000C57000831570008085700080E5700088E
:10436000275700080948016820221143016070475F
:1043700080B582B0054801682022914301607D200C
:104380008000FFF7C3FD019002B080BD140400500F
:1043900080B584B00146029002980128019104D1B1
:1043A000FFE700F0DDF9039003E00020C043039035
:1043B000FFE7039804B080BD80B59EB011A83221FC
:1043C0000F90FBF7D8FEFFF7D3FF8F48032100F0D3
:1043D000A7F910A90F9A0E9010460D9100F044F81D
:1043E00010990F9A0C901046FCF758FD1C490422B6
:1043F0000B90084611460A9200F092F90D2109909F
:104400000846089100F070F90F99079008460D9939
:1044100000F02AF810990F9A06901046FCF73EFD1E
:104420001049059008460A9900F07AF90899049015
:10443000084600F059F90F99039008460D9900F0CD
:1044400013F810990F9A02901046FCF727FD01907F
:10445000FFF788FF00201EB080BDC046045700084B
:10446000135700081D57000880B588B00A46034658
:10447000069005917D20000103920293FFF776FDDF
:10448000FFE79448006895490818401E007800210D
:104490000D28019108D0FFE730480068012108404D
:1044A000414248410190FFE70198C007002801D030
:1044B000FFE7E6E78748006888490818401E00784B
:1044C0000D2804D0FFE70020C043079043E0814857
:1044D0000068401E8249086000200490FFE77E4883
:1044E00000687F490968884215D0FFE77A4800686C
:1044F0007A49085C0699049A531C04938854FFE790
:1045000075480168491CCA17920E8A183F239A43BE
:10451000891A0160E3E712480021016006980091C2
:10452000FBF741FE059908606A480168491CCA17F3
:10453000920E8A183F23DB431A40891A01606648AD
:104540000168891CCA17920E8A181A40891A0160DC
:1045500000980790FFE7079808B080BD1000004062
:10456000A400002080B59EB011A832210F90FBF767
:1045700002FEFFF7FDFE2448032100F0D1F810A948
:104580000F9A0E9010460D91FFF76EFF10990F9A3B
:104590000C901046FCF782FC1C4904220B90084644
:1045A00011460A9200F0BCF80D21099008460891C6
:1045B00000F09AF80F99079008460D99FFF754FFFD
:1045C00010990F9A06901046FCF768FC1049059068
:1045D00008460A9900F0A4F808990490084600F0EB
:1045E00083F80F99039008460D99FFF73DFF109946
:1045F0000F9A02901046FCF751FC0190FFF7B2FEB3
:1046000000201EB080BDC04604570008185700089F
:104610002257000880B590B02E4800680D902E48B3
:1046200000680E90FFE70E980D99884216D0FFE7BC
:104630000E982A49085C3F2805D1FFE70E98401CD8
:10464000274908600AE0FFE70E98401CC117890E51
:1046500041183F229143401A0E90E4E70E980D99BD
:10466000884203D1FFE700200F902FE068463221F7
:10467000FBF781FD00200E90FFE7174800681849FE
:104680000968884215D0FFE7134800681349085CA1
:104690000E994A1C0E926A465054FFE70E48016874
:1046A000491CCA17920E8A183F239A43891A01603F
:1046B000E3E70C496846FBF77DFD002803D1FFE7DF
:1046C00001200F9002E000200F90FFE70F9810B03C
:1046D00080BDC046B0000020A8000020640000207B
:1046E000AC000020C156000880B584B0014603AA82
:1046F00010701078F24A02901046029A0191114609
:10470000FEF71CFEFFE705480068402108404028EE
:1047100001D0FFE7F7E7002004B080BD1C4C00404B
:1047200080B586B00A4603460590049100200390A8
:1047300002920193FFE70398049988420DDAFFE79C
:1047400005980078FFF7D0FF0599491C0591009066
:10475000FFE70398401C0390EDE7002006B080BD02
:1047600080B5A2B0FFE719A8FCF78AFE00287CD12B
:10477000FFE719A8022118901791FFF7D1FF2C210C
:10478000169008461591FFF7AFFF18998A1C1490F0
:1047900010461799FFF7C4FF159913900846FFF7C5
:1047A000A3FF18990A1D129010461799FFF7B8FF3A
:1047B000159911900846FFF797FF18998A1D1090D8
:1047C00010461799FFF7ACFF15990F900846FFF7B1
:1047D0008BFF189908310E9008461799FFF7A0FF34
:1047E00015990D900846FFF77FFF18990A310A22A4
:1047F0000C90084611460B92FFF792FF15990A900C
:104800000846FFF771FF18991431012209900846F4
:1048100011460892FFF784FF159907900846FFF7A5
:1048200063FF18991531069008460B99FFF778FF3A
:10483000159905900846FFF757FF18991F31049006
:1048400008460899FFF76CFF159903900846FFF793
:104850004BFF0B9902900846FFF746FF2121189A5B
:1048600001901046FBF787FC7DE73F20FFF73CFFF8
:10487000344900220A600090104622B080BDC04634
:1048800080B584B0FFF774FD8D48016801221143A3
:1048900001608E48002101602748016027482849AF
:1048A00001609007016811430160FFE787480068D5
:1048B000C007002831D1FFE7FFF7BAFB00282BD152
:1048C000FFE72048012101608048002202601A4869
:1048D00002601A481A4A0260880702680A430260A6
:1048E000FFE71848006800210028039108D0FFE77F
:1048F0007648006801210840414248410390FFE7A3
:104900000398C007002806D0FFE7FFF783FEFFF7F4
:104910003FFD0290E5E7FFE7C8E70A480021016094
:104920006748026801239A4302600191FFF71AFD6C
:10493000019804B080BDC046240000402C00004017
:10494000204E00006000002080B592B00020119041
:1049500001210E9008460D91FDF7ACFA0D98000765
:10496000FDF788FAFFF73FFA72B6FEF7F3FDFEF7A0
:1049700093FEFFF7DBF9FEF7D3FEFEF759FFFEF7D4
:104980008DFF4E480C90FEF79BFB0C98016820228F
:10499000114301600B92FEF7AAFBFEF7EFFF4848B8
:1049A0000A90FEF78DFB0A9801680B9A114301608B
:1049B000FEF79DFB62B6FFF7C7FA0D98FFF7A6FA60
:1049C0000990FCF7D5FEFCF7C1FEFFF7CBFCFFF723
:1049D00023FBFEF7C1FC0E9910910F910890FFE7A1
:1049E000FCF720F8002805D0FFE7FEF757FFFEF799
:1049F000C5FFFFE7FFE7FCF715F8002825D0FFE724
:104A000032480068C007002808D0FFE76420FFF79D
:104A1000ADFA022000F03CF90790FFE7FBF7ACFF8E
:104A2000002811D0FFE7012000F032F90690FFE7DF
:104A3000FBF7F8FF002806D0FFE7FCF72FF9FCF79B
:104A4000EDF80590F4E7FFE7D5E7002000F020F946
:104A50001C4909684906002904902AD5FFE71A482D
:104A60000068012808D1FFE710A80FA900F030F86E
:104A7000154800210160FFE71098002806D0FFE7E5
:104A8000FDF782F8002110910390FFE70F980028AE
:104A900008D0FFE7FEF772FFFFF7F2FE0290FFF784
:104AA000C1FA02E0FFF7B8FAFFE7FEF7B1FC0190A8
:104AB00003E0FEF7ADFC0090FFE791E7003801400E
:104AC000004C004010040050B400002010000040D2
:104AD000F0B5A9B00A4603462890279100202190FE
:104AE00020901F901E901D901C9018A9087017AC64
:104AF000207001255F4E16900846159129461492A4
:104B00003246139312941195FCF71EFC5A4A1299DF
:104B1000109008461199FCF717FC5849097826AA05
:104B200011705749097825AB19705649097824AC9A
:104B300021705549097823AD29705449097822AE6E
:104B400031701AA919AF0F9008460E9139460D928F
:104B50000C930B940A950996FFF7B4F80E98017917
:104B60003C2213464B4341795918209115990B78F3
:104B700014465C43129B1D78641921940A9C257885
:104B800016466E43099D2F78F6191F96209E219F89
:104B9000F61B1E960C9E3778104678431D900B9896
:104BA00007787A431C920D9A1778002F169F089762
:104BB0000ED0FFE719A8007801210A468240002A9A
:104BC0000792069101D10798069006980890FFE792
:104BD0000898C007002813D0FFE720981D99884245
:104BE00009DBFFE720981C99884204DCFFE727983F
:104BF0000121016003E0279800210160FFE703E045
:104C0000279800210160FFE71E981F9988420EDA5D
:104C1000FFE71E9800280ADBFFE71AA800790028A2
:104C200026D1FFE71AA84079002821D1FFE728986C
:104C3000012101601B9818A908701AA8407917AAC9
:104C4000107005910492FCF7A7FB05990A780949B1
:104C500003901046FCF726FB04990A780649029057
:104C60001046FCF71FFB0190FCF75EFB0090FFE78E
:104C700029B0F0BD3000080831000808000008081D
:104C800001000808020008080300080804000808DA
:104C900083B00146019001980128009108D1FFE7F7
:104CA0000F4801680822114301600020029013E0C0
:104CB0000198022808D1FFE70948016808225140FD
:104CC00001600020029007E0054801680822914336
:104CD000016000200290FFE7029803B07047C046D1
:104CE000140000500FB410B504A9074B02AA039892
:104CF00000F0F2F8044602A9002000F089FC2046EA
:104D000010BC08BC04B01847115600082021020C42
:104D100001D010211046020A01D0104608390209BC
:104D200001D01046091F820801D01046891E420892
:104D300001D0881E7047081A70470000004870476D
:104D40000400002002E008C8121F08C1002AFAD19E
:104D500070477047002001E001C1121F002AFBD1FB
:104D600070470000F0B51FB486B00998089A030D8B
:104D70000021024314D05148514A181850430514D9
:104D80001198012810981AD0281A401C00264D4F5F
:104D90004D49009601910490002812DA444211E036
:104DA0001198012449A3012801D11098C143069804
:104DB000119A84600360C26041600BB0F0BD404254
:104DC000E4E70446210500203F4A001C51410391BD
:104DD000029012E0E00707D032463B460199009866
:104DE000FBF7AAFB0191009032463B46104619465C
:104DF000FBF7A2FB06460F466410002CEAD104988C
:104E0000039B0028029A0999089806DAFBF794FB9D
:104E1000019B009AFBF790FB05E0FBF7F5FB019B7C
:104E2000009AFBF7F1FB04460E460022284BFBF7E5
:104E300083FC03D80020C043014607E00022254B35
:104E400020463146FBF7C6FAFBF756FC102409E072
:104E5000002C0ADB0A220023FBF712FA079B3032F0
:104E60001A55641E02460A43F2D11122641C079BA4
:104E7000121B1C19119B012B03D0012308430ED1D7
:104E80000AE0084304D0112010900020119077E729
:104E90001098151A6D1E0BE01098824202DD002357
:104EA0006D1C03E0824201DA00236D1E002BEED060
:104EB000069811998260C16030C07EE701FCFFFF57
:104EC000104D0000000014400000F03F30000000D2
:104ED0000000F0430000E03FFFB597B00646002514
:104EE00018E2252877D100242746FD49049400E0E4
:104EF0000443761C32780120203A90400842F7D1D2
:104F000030782A280ED0022230780146303909291B
:104F100016D804990A235943303940181443761C93
:104F20000490F1E7189802C804911890002904DA57
:104F30000120400304434842049002200443761CAD
:104F400030782E2814D1042004437078761C2A2847
:104F500009D11898761C80C8189009E00A214F439F
:104F6000303FC719761C3078014630390929F5D908
:104F700030786C2810D006DC4C281AD068280ED067
:104F80006A2817D104E0742813D07A2812D110E0CF
:104F90000120400504430CE00121090501E0032143
:104FA00009050C437178814203D1012000052418C2
:104FB000761C761C3078119066280BD013DC5828AC
:104FC0007DD009DC00287BD04528F6D04628F4D0D7
:104FD00047281AD1A5E118E0632835D0642870D09D
:104FE000652812D19DE170286CD008DC6728F1D0CB
:104FF00069287BD06E280DD06F2806D1BAE07328BF
:105000002ED0752871D0782859D01A9A19999047BE
:105010006D1C7EE16002400F022809D003280DD0EC
:105020000428189801680DD00D60001D189070E1DB
:105030001898EA1701680D604A60F6E71898016849
:105040000D80F2E70D70F0E718986A46017811724A
:10505000001D18900020507202A80090012005E069
:10506000189802C8189000200091C04361070DD520
:10507000002101E00199491C0191B94212DA8142F3
:10508000F8DB009A515C0029F4D10BE0002101E02B
:105090000199491C01918142FADB019A0099895CCE
:1050A0000029F5D1019904981A9B471A21463846E0
:1050B000199A00F097FA0199401945180BE04FE052
:1050C0002CE113E04EE0009800990078491C009113
:1050D0001A9A199990470198401E0190401CF2D1EC
:1050E000214638461A9B199A10E137E00A20002120
:1050F000009001916002410F022907D0189A01CA5D
:105100001892C2179446032908D00AE01898C01DC7
:10511000C108C90005C91891944607E000B2C2173A
:105120009446042902D140B2C1178C460022614640
:10513000944506DA0A460021404291418C462D21D1
:1051400002E0210504D52B216A461173012103E0F9
:10515000E10701D02021F7E7029155E00A200AE09B
:10516000102008E010200090002104200443019149
:10517000082703E008200021019100906002410F00
:10518000022907D0189A01CA1892002294460329CE
:1051900008D008E01898C01DC108C90005C91891B9
:1051A000944603E080B2042900D1C0B200210291EC
:1051B000210729D51199702906D0009A1021019B49
:1051C0004A401A4305D00EE040216A46117301217E
:1051D00008E06146014306D030216A4611731199F7
:1051E000517302210291009A0821019B4A401A43FF
:1051F0000AD16146014301D1610705D530216A46D4
:10520000117301217F1E02911199582904D035A1F3
:105210000E910DA90D910DE037A1F9E76146019BB3
:10522000009AFBF72DF80E9B8C469B5C0D9A521E44
:105230000D92137061460143F0D10D9805A9081A2B
:1052400020300190600703D501200004844300E072
:1052500001270198874201DD381A00E000200199FA
:1052600000904118029809180498401A0490E0032D
:1052700006D421461A9B199A049800F0B3F94519EF
:10528000002706E003A81A9AC05D199990476D1C83
:105290007F1C02988742F5DBE0030CD521461A9B60
:1052A000199A049800F09EF9451904E01A9A3020E2
:1052B000199990476D1C0099481E00900029F5DC53
:1052C00008E00D980D990078491C0D911A9A1999CA
:1052D00090476D1C0199481E01900029F1DC63E1A3
:1052E00009280100303132333435363738396162BC
:1052F0006364656600000000303132333435363780
:1053000038394142434445460000000000F05AF954
:105310004519761C3078002800D0E2E528461BB0FD
:10532000F0BD600700D406271898C01DC108C90049
:1053300048680A680831C30FDB071891190001D0CB
:105340009CA108E0210501D59BA104E0E10701D063
:105350009AA100E09AA1430011985B08109165287A
:105360000CD006DC452809D046281DD0472841D15D
:1053700041E0662818D067283CD13CE00021112F7D
:1053800001DB112000E0781C0191009008A911A810
:10539000FFF7E8FC139905910021119A15927F1CE3
:1053A00012980197009150E00120C007039001205E
:1053B000019008A9009711A8FFF7D4FC139A14993B
:1053C00005920022119B009212981593059A019262
:1053D000002901D0104602E0791C40180190381ACB
:1053E00001D5019804E04042401E0090781C0190D5
:1053F000C01B029043E0012F00DA01270021112F8A
:1054000001DD112000E038460191009008A911A8A3
:10541000FFF7A8FC13990591119A00211298159293
:105420000091019721070CD40599B94201DB01993C
:1054300000E00191012904DD159A491E515C3029D3
:1054400006D0B84201DA011D05DA0121029115E00A
:105450000199491EEDE7002805DC009941180091EB
:105460000199091A03E0019A411C914200DD019162
:105470000099401A401C02900120C00703902007A9
:1054800006D402990198814202DB0020C0430290B9
:1054900000206946C87707AF012103980337C90781
:1054A000884224D0022011902B20129003980028CB
:1054B0000CDA404203902D20129007E00A21039855
:1054C000FAF716FE30317F1E039039701199481E8D
:1054D00011900029F2DC03980028EFD1791E129870
:1054E00008703078202108404530BF1E387006A86B
:1054F000C01BC01D039010980078002800D0012028
:10550000019941180298C0170918039809180498BE
:10551000401A401E0490E00306D421461A9B199AB3
:10552000049800F05FF8451910980078002803D01F
:105530001A9A199990476D1CE00324D521461A9BAD
:10554000199A049800F04EF845191CE000980028BC
:1055500007DB00990598884203DD1598405C19998E
:1055600001E0199930201A9A904700986D1C401C50
:1055700000900298401E0290002804D11A9A2E2012
:10558000199990476D1C0199481E01900029DDDC96
:1055900005E038781A9A7F1C199990476D1C039979
:1055A000481E03900029F4DC21461A9B199A04989E
:1055B000ACE600002D0000002B00000020000000E1
:1055C00000000000F8B5044600251E461746880472
:1055D00004D405E039462020B0476D1C641EF9D57F
:1055E0002846F8BDFFB50446002581B01E46C80315
:1055F00001D5302700E02027880404D505E038468F
:105600000399B0476D1C641EF9D5284605B0F0BD5E
:105610000A68531C0B6010707047004040404040C7
:105620004040404041414141414040404040404075
:10563000404040404040404040404005020202029D
:1056400002020202020202020202022020202020A4
:10565000202020202002020202020202909090905C
:10566000909010101010101010101010101010103A
:10567000101010101010020202020202888888889E
:10568000888808080808080808080808080808089A
:105690000808080808080202020240001B56000819
:1056A00000000000000000000102030406070809D2
:1056B0000000000001020304030406080C10182077
:1056C000304454413F004346473F004746473F0070
:1056D0004750473F0041434B3F0050474D3F004735
:1056E000534E3F00544D503F004552533F005453DA
:1056F000543F002578257825782578257825782544
:1057000078002C002B2B2B003146340035004154FF
:1057100041430041544448004154534800415444DB
:105720004C004154534C004154575200415443548F
:105730000041544754000000585700080000002062
:1057400010000000444D00086857000810000020B9
:10575000A8040000544D00080000000000000000F4
:085760000059000800002000C0
:04000005080000C12E
:00000001FF
