:020000040800F2
:10000000B8040020D5000008DD1A000851130008CC
:1000100000000000000000000000000000000000E0
:100020000000000000000000000000008B1C000821
:100030000000000000000000FD1A00088D1C0008F0
:10004000E7000008E7000008891B0008E700000837
:10005000E7000008E7000008E7000008E7000008E4
:1000600000000000E7000008E7000008E7000008C3
:10007000E7000008E7000008491E0008B91D000855
:10008000E7000008E7000008E700000800000000A3
:10009000E7000008E7000008E7000008E7000008A4
:1000A000E7000008891C0008E70000080D1E000892
:1000B000E7000008E7000008000000000000000062
:1000C0000348854600F078F900480047CD24000831
:1000D000B80400200448804704480047FEE7FEE7D4
:1000E000FEE7FEE7FEE7FEE7691D0008C100000825
:1000F00030B50B46014600202022012409E00D46C0
:10010000D5409D4205D31D469540491B2546954047
:1001100040191546521E002DF1DC30BD70B500248B
:100120002546002801DA01244042002901DA012590
:100130004942FFF7DDFFAC4200D04042002C00D026
:10014000494270BD03460B439B0703D009E008C931
:10015000121F08C0042AFAD203E00B780370401C77
:10016000491C521EF9D27047D2B201E00270401C05
:10017000491EFBD270470022F6E710B513460A4627
:1001800004461946FFF7F0FF204610BD10B504469F
:1001900005E00B780370401C002B00D0491C521E58
:1001A000F7D2204610BD421C0178401C0029FBD12B
:1001B000801A704730B504460020034600E05B1CFF
:1001C000934203D2E05CCD5C401BF8D030BD000010
:1001D00070B5104D002800D12868002414E00A46AC
:1001E00002E09E4203D0521C1378002BF9D1DAB200
:1001F000224307D0002B06D0002C04D00021017030
:10020000401C04E00446401C0678002EE7D128601C
:10021000204670BD0000002070B5064602F020FCAC
:10022000046805460A220021304600F04BF82C6095
:1002300070BD0122D207002800DB101A002900DB64
:10024000511A814201D80120704700207047C2171F
:10025000C10F504010B54018CA079623002100F086
:1002600071F810BDF0B51FB40646002082B00546F7
:100270004024019100901BE0019922460F46304630
:1002800000F0BCF8049A059B801A994110D31046DF
:100290001946224600F0A2F8361A8F4101972246ED
:1002A00001200021009F00F099F838184D4100907E
:1002B0002046641E0028DFDC019B00982946324658
:1002C00007B0F0BDF7B5009C0F4600262578641CEA
:1002D000002D05D000F0A4F80068405DC007F5D1FE
:1002E0002B2D02D02D2D18D0641E39462046029A9F
:1002F00000F09AF8002F04D03968A14201D100998A
:1003000039607105022400290BDA4042002803DD20
:1003100002F0A6FB0460A007FEBD01208002064398
:10032000E3E70028F8DA02F09BFB04600048FEBD1A
:10033000FFFFFF7F002904DA401C490001D140087B
:100340004000704770B40024050C05D1102400044F
:1003500002D1002921D01124050E01D10002083458
:10036000050F01D10001241D850F01D18000A41CBF
:10037000002801DB4000641C002908D020252E1B2A
:100380000D46F540A14000D0012129430843010654
:100390001B1B000ADB1D02D5002070BC7047DB056B
:1003A000181880180029F8DA401C4900F5D170BCF3
:1003B0004008400070470000064C0125064E05E04D
:1003C000E36807CC2B430C3C98471034B442F7D376
:1003D000FFF77AFE3C2E00085C2E000810B5202A9C
:1003E00004DB0146203A9140002010BD91402023BB
:1003F0009C1A0346E3401943904010BD10B5202AD3
:1004000004DB0846203AD040002110BD0B46D34003
:10041000D0402024A21A91400843194610BD000084
:1004200000487047F02D0008F7B582B0029C002705
:100430002078641C15460197302802D0002D15D075
:1004400015E020780127641C782804D0582802D0B1
:10045000002D09D00BE0002D01D0102D07D1002771
:1004600010252078641C02E0082500E00A250026FB
:10047000009610E00099012769430818020C2946EC
:1004800080B2714300908E183804864201D3012057
:1004900001902078641C294600F019F80028E9DA58
:1004A0000398002805D0002F01D0641E00E0029CB4
:1004B00004600198002806D002F0D2FA02210160FF
:1004C000C81E05B0F0BD009930040843F9E73A288A
:1004D00000D23038202302469A43412A01D31046E5
:1004E0003738884201D30020C0437047FEB501A8C9
:1004F000002100910171BF4E37687468174D1FE0ED
:10050000002004E001A90A1852780A54401C03286C
:10051000F8D13019007B01A9C8703F2809D101A882
:1005200005222946FFF746FE00280DD0601C7060AA
:1005300000E0601CC117890E41183F229143441A04
:10054000BC42DDD1009806E00448042100F094F993
:10055000601C7060012003B0F0BDC046152E00087D
:100560000120704770B58EB07D20C00001F044FCC2
:10057000A04D2868461E14480168C90703D1A9196F
:10058000097B3F29F8D1AE6001AC32212046FFF74C
:10059000F2FD68680BE02918097B2170401CC11727
:1005A000890E41183F229143401A6860641CB04292
:1005B000F1D101AC2046FFF7F6FD0146204601F0DF
:1005C00091FC0EB070BDC04610000040F0B593B075
:1005D0000AA801461F3108910146153107910146CD
:1005E0001431069101460A31059101460831049102
:1005F000811D0391011D0291801C01903EE00AA81B
:10060000099002273946234DA8472C462C26304610
:10061000214DA84701983946A0473046A84702987F
:100620003946A0473046A84703983946A047304688
:10063000A84704983946A0473046A8470A27059896
:100640003946A0473046A847012406982146114A5A
:1006500090473046A847079839460E4A904730469B
:100660000D4DA847089821460A4A90473046A847AA
:100670003846A84721210998FFF77DFD0AA800F018
:100680009BFA0028BBD03F2000F0ECF8002013B00C
:10069000F0BDC046790800086508000810B50024C0
:1006A000401E08280CD8C046784400794000874492
:1006B00004090C0F1215181B200000F07FF916E03A
:1006C000E44314E000F014F910E000F0E3F80EE069
:1006D00000F0B6F80BE0FFF745FF07E001F018FD6A
:1006E00004E001F0A1FD01E000F04CFA04462046D0
:1006F00010BDFFF76BFFFAE7F0B58DB03D4D41CD72
:100700003146083D0AE06A18127B4F1C3F2A09D087
:10071000F917890E79183F229143791A8142F2D153
:10072000002463E0AF606C4632212046FFF723FDD2
:100730000BE0A819007B2070701CC117890E4118AE
:100740003F229143461A6E60641CBE42F1D1684656
:1007500029A10522FFF72EFD00283AD0684628A1DE
:100760000522FFF727FD002835D0684626A105227F
:10077000FFF720FD002830D0684625A10524224639
:10078000FFF718FD00282AD0684623A12246FFF76C
:1007900011FD00282AD0684621A10522FFF70AFD95
:1007A00000281ED0684620A10522FFF703FD00287F
:1007B00019D068461EA10522FFF7FCFC002814D0C2
:1007C00068461DA10522FFF7F5FC0028A8D10924E1
:1007D0000CE001240AE0022408E0032406E00424DB
:1007E00004E0062402E0072400E0082420460DB0BF
:1007F000F0BDC046100000205453543F00000000DC
:1008000050474D3F00000000544D503F0000000095
:100810004750473F000000004346473F00000000AC
:100820004746473F0000000047534E3F000000008E
:100830004552533F000000004454413F0000000077
:1008400010B58EB001AC32215B4A204600F06CF945
:100850002046FFF7A8FC0146204600F00DF80020D6
:100860000EB010BD0349C86008684006FCD50020E2
:100870007047C0461C38014070B50C46054600263E
:1008800003E0A85DFFF7EEFF761CA642F9DB00202F
:1008900070BD0000F0B58BB0954A106806901168E5
:1008A000136854685568566852681204520F6F46B0
:1008B000360CF6B2ED04ED0E3F2020409B029B0E5D
:1008C0003B603B1D61C33A617F22069802404804A9
:1008D000430E07AC8749204602F0AEF82046FFF7EA
:1008E00062FC01462046FFF7C7FF00200BB0F0BDB9
:1008F00070B592B068463221FFF73DFC7D20C00004
:1009000001F07AFA784E3068401E78490A68D207BA
:1009100003D13218127B3F2AF8D1B0600DAD1421FB
:100920002846FFF728FC00F009F93221224C28461E
:10093000224600F0E4F800F0EDF87168B0680BE0D2
:100940007218127B2A70491CCA17920E8A183F230C
:100950009A43891A71606D1C8142F1D16D460F99DD
:100960002970401C7060B0600E9801010DA842799A
:10097000303A0A436A7081790901C279303A0A43F0
:10098000AA700A210D9A4A434378D218103AEA70A5
:1009900082784A43C07810181038287100F0CEF8D9
:1009A00032212846224600F0AAF8044600F0B2F8A8
:1009B000204612B070BDC04600000808F0B58FB0E8
:1009C0007D20C00001F018FA47480168491E474AD7
:1009D0001368DB0703D143181B7B3F2BF8D18160E1
:1009E00043680BAA0BE0C418247B14705B1CDC1753
:1009F000A40E1C193F25AC431B1B4360521C8B42A9
:100A0000F1D10BAD0020A873024607900A260B987F
:100A1000704369784018103809AFB8710C9870436A
:100A20006979401810383871A8787043E97840180F
:100A30001038787109922E484068287B3038072199
:100A4000FFF76CFB08AC2170A8797043E979401876
:100A50001038A0700D987043697A40181038607093
:100A6000A87A7043E97A40181038E0702048079E51
:100A700031463A4600F052FE1D483146224600F00B
:100A800089FD1B4908687F220240BA71086840044A
:100A9000400E0690787108688002830E3B714E68A4
:100AA00008463F213140A1704668F604F60E667094
:100AB00047683F0CE77040680004400F20706C46A8
:100AC000FFB22360231DC2C320610A492846069B4A
:100AD00001F0B2FF2846FFF766FB01462846FFF704
:100AE000CBFE07980FB0F0BD1000002010000040B2
:100AF000002800401A2E000808700020704710B52A
:100B0000002302E0C45C9C545B1C8B42FADB002097
:100B100010BD000074484169C907FCD10168012279
:100B20000A4302600020704710B5002302E0D45C45
:100B3000C4545B1C8B42FADB002010BD00206A49C4
:100B40000A68D20701D1C04370475C4A8A605C4A98
:100B50008A60704701464120C300634A1068184309
:100B60001060002008605169C907FCD151698907EC
:100B700001D4C0437047022151611168994311604B
:100B80007047C0461CB51F4C019457480168C907FF
:100B900003D04A4981604A49816001A80421454A3D
:100BA000FFF7ADFF00F090F82046FFF7D3FFFFF707
:100BB000B1FF002002B010BD7CB5044600260196AE
:100BC00001A804213B4AFFF7AFFF0D4D2A68202101
:100BD0002046FFF7A9FF286820300121019A9042A2
:100BE0000A4600D83246344B984200D83146114369
:100BF000002900D003482860484202B070BDC046BA
:100C00000800002000300008F0B589B004AC0EC424
:100C1000074608A80421274E3246FFF785FF089DA6
:100C200028462030079000242348854201D9E44318
:100C30003CE02D480168C90703D020498160204964
:100C4000816011980390109802900F9801900E986F
:100C5000009007A804213246FFF751FF00F034F856
:100C6000680602D12846FFF775FF164E384629461A
:100C7000B047291D0498B047294608310598B04768
:100C800029460C310698B047294610310098B047E4
:100C9000294614310198B047294618310298B047C7
:100CA0001C3503982946B047FFF734FF204609B0AA
:100CB000F0BDC046140008087E7F0108EFCDAB8967
:100CC00005040302F50C0008002007490A68920792
:100CD00001D4C0437047054ACA60054ACA600A6821
:100CE00002239A430A60704704200240BFAE9D8CE5
:100CF0001615141372B6094A1368DB07FCD1086095
:100D00001068C007FCD162B600201168890701D4C1
:100D1000C0437047022111607047C046182002404E
:100D20000120000202490A6802430A607047C04677
:100D3000140000500248016810220A430260704704
:100D4000140400500020064906A205E00B681B06AB
:100D5000FCD4135C0B71401C1028F7D100207047A5
:100D600008300140B56206010800F10001010101EF
:100D70000100053FF0B5B5B005463F9834903E9868
:100D800033903D9832903C9831903B9830903A980F
:100D90002F902CA80EC00CA87D21FFF7ECF92CA8F1
:100DA00001460A310591014615310491011D00915A
:100DB00020300690012300208F4C08901A461E46D2
:100DC0000A9009900B900395029309E1511E0429A2
:100DD00038461E4600D903E138461E464900C04643
:100DE0007944898849008F440400FB0015003700CE
:100DF0004B000020207121680906FCD46168C9B24B
:100E0000032224291E4600D1EAE0B52900D18FE053
:100E100001228EE00020207121680906FCD461685F
:100E20000CAAD155CAB20121FF2A0E4600D178E0A2
:100E30002A2A75D1207121680906FCD461682071C5
:100E400020680006FCD460680CA8C0190A218170D3
:100E50000D214170052164E000202071206800060A
:100E6000FCD460680CA9C855C1B20122FF29104604
:100E700002D06348016004207C2F56DC024654E017
:100E80000CA8007800260522472856D0502838465E
:100E900000D0A5E00CA948785528384600D09FE03E
:100EA00088784228384600D09AE001920CA853492D
:100EB000FFF78EF9002635462FE000204F49FFF757
:100EC00087F90146A81E062826D8C046784400792E
:100ED0004000874403090E14212119000A220598B5
:100EE000FFF754F9022517E008782CA908750325A7
:100EF00012E00A220498FFF749F904250CE008786B
:100F00002CA9C877052507E00846FFF785F9FFF704
:100F10009EF90699086017256D1C152DCDDD5CE046
:100F200003217C2F324600DC0A46781C1E4657E01F
:100F30000422B5294FD03846F8E70CA948784E2846
:100F400038464DD188785228384649D1C8784D283E
:100F5000384645D1019200263546079603E06D1CC0
:100F60000B9809900B930CA8FFF71DF9854234D21A
:100F70000CA8405D2C28099A134600D00B9B2C2806
:100F80000B950A9900D00B922C2800D1491C089887
:100F900000280A910ED102290CD10CA8C018411CBE
:100FA0002CA804221E46FFF7F1F83346079E0120C5
:100FB0000890D4E70A29D2D10CA8C018411C0622F7
:100FC00000981D46FFF7E2F80A200A9038460B9970
:100FD00009910B9502E00020A8E7384601AD2CCD21
:100FE0000746F00700D0F1E62CA924222846FFF797
:100FF000A9F835B0F0BDC04608300140292E0008E0
:1010000028380140F0B5A3B0C749086810220892FB
:1010100090430860C5490868402207921043086061
:1010200001200A900402C24D2868204328609620BF
:1010300000F0C3FE2868A04328607D20800000F0F7
:10104000BCFEFFF77FFEBB4800F0D6FEBA4A002682
:1010500037461496169635461596344610961796CA
:1010600018963146129611960F96334613965DE008
:101070001898000613D010460E91B1490D960C94A5
:101080002C4615463E461F46FFF7D3F80E993B46C1
:1010900037462A4625460C9C0D9E00284AD16846B4
:1010A00003600F9B436081601199C16012990161D7
:1010B0004261109800041799C9B2090208181899DA
:1010C000C9B24318F0B20004F9B209020818149921
:1010D000C9B2401813990906411816980006EAB2D9
:1010E00012041018159AD2B212028018E2B28218B5
:1010F00019A8FFF73FFE219A209812901F9811908F
:101100001E991D980F901C9B199F1A9C1B9D280CC3
:1011100010901895280A1790200E1690250C200A7A
:101120001590380E13903E0C14973F0A83480068C0
:10113000C0079DD00B970E9109937C48014600682B
:10114000079B98430860784801460068089B18434D
:1011500008607B490D921046FFF76BF8002814D108
:10116000784A104630380E99C9B201430E91FF20DB
:1011700000061299014074480918129100200A9043
:10118000724810900F9211920992179F0A231846E5
:10119000704313994018103819A948711846149AC9
:1011A00050430B9A1018103808711846604315996F
:1011B0000818103822AA0C909070194618984143CC
:1011C0001797C9190F461039D17007936B431698BA
:1011D000C318103B5370DAB2022A05D838461138CA
:1011E00022AB0890D87003E03B46123B08911946A9
:1011F0000C980F1822A80C908770172050430921D3
:10120000FEF776FFF9B240180899CFB2B908401836
:10121000001D089064213846FEF76AFF0899081AF5
:101220000721FEF77BFF0C980170002F09D02C2FAF
:1012300007D0632F05D8229A1A99199800F010FD4B
:101240003EE019AC22A920460D46179100F0B4FCEF
:1012500020791890079F3946FEF74AFF0646A8787E
:1012600015903946FEF744FF0446687816903946D3
:10127000FEF73EFF05461798C07817903946FEF7EF
:1012800037FF39464143179A511A302211431791BB
:1012900039466943169B591A1143169139466143E1
:1012A000159B591A1143159177431899C91B11437E
:1012B0003030189030353034303614960B9113910D
:1012C0000A9800280D992CD068460F9A02600E9A51
:1012D0004260119A8260129AC26001611098000403
:1012E0001799C9B2090208181899C9B24218F0B280
:1012F00000040B99C9B2090208181499C9B2401820
:1013000013990906401816990906EBB21B045918DF
:10131000159BDBB21B02C918E3B2C918099BFFF782
:1013200073FC002023B0F0BD1404005000300140D5
:101330001400005030750000804FC347100000407B
:101340000000964230303030303030003030000015
:1013500000F0C6FB81B005490A6802430A600968CB
:1013600001400091009801B07047C046381002401B
:1013700081B005490A6802430A600968014000918A
:10138000009801B07047C04634100240F8B50026FE
:101390003AE00124B4402340002B34D000961C4690
:1013A0005C434D6826466E43032767430268BA4391
:1013B00032430260FE436A1E012A05D88A686243EE
:1013C00087683740174387600A696243C7683740B8
:1013D0001743C760022D009E15D14D69FF2B08D819
:1013E000644365430F226243036A93432B430362C2
:1013F00009E01A0A5243524355430F235343426AAA
:101400009A432A434262761C0B681C46F440C0D1C2
:101410004A68521E012A05D8C968594342689A434E
:101420000A434260002001B0F0BD000081B00549D0
:101430000A6802430A60096801400091009801B0FF
:101440007047C0462C10024080B57D21C900FEF7D0
:101450004FFE401E914948600020886005200860CA
:1014600080BDC046B0B5044600F04AFB20600B4981
:101470000A681206120F394B9A5CD04060600A6805
:101480005205520F344B9A5C0546D540A560096859
:101490008904490F595CC840E060B0BD0C1002409F
:1014A00010B5014600200C2916D0032934D1264C52
:1014B000E16C0322114012048918294A914226D076
:1014C000284A91421BD02848814215D000F018FBD1
:1014D000E168E26892042BE01B4CE16C0C220A40AC
:1014E000032189045118194A89188908032914D03D
:1014F000022904D0012916D100F002FB10BD216899
:10150000490709D52068C0061CD5124810BD012026
:10151000C103206D8001084010BD0120C103206D72
:101520008001084010BD00F0EBFAE168E268520566
:10153000520F094B9A5C0906090F084B595CC840C9
:10154000D04010BD024810BD001002400000F4FF62
:101550000024F40000093D00042E0008F42D0008CA
:10156000030003000200030001000300B0B544685B
:10157000074D25404903D2B251181A0292B20A43CC
:1015800004990906090A114329434160B0BDC046C8
:10159000C00000FFF0B585B015460E460446002990
:1015A00006D16878C10603D5EF2108400A3068707B
:1015B000CA20606253206062204600F04DF8012886
:1015C00001D1012043E0AA782F78002E06D06B7855
:1015D000E87869460860204639462AE00492E878AF
:1015E00002900A2631460397FEF782FD31464143B9
:1015F000029A511A00010843C0B202900498314681
:10160000FEF776FD07466D7828463146FEF770FDF9
:101610006946029A0A6031467943049A511A3A019E
:101620000A43D2B24643A91B00010843C3B2204675
:101630000399FFF79BFF8020C04368490860A068BA
:10164000800603D4204600F0CBF800E00020FF2104
:10165000616205B0F0BDC04618B57D21C90000919A
:10166000C168490616D40021CA43C260C3687A4AD9
:101670000CE0002B0FD01368DB0302D5009B5B1E30
:101680000093C368009C002C00D101215B06009BE5
:10169000EFD500E00021C8B201B010BD10E000E0BD
:1016A000B0B50D460446CA206062532060622046F1
:1016B000FFF7D2FF012801D1012017E02868A168B7
:1016C000402291430143A160A8682169094A0A4068
:1016D0000243226168687F21090422698A43000469
:1016E000104320618020C043E0600020FF21616240
:1016F000B0BDC0460080FFFFB0B50468064D254070
:101700001206120A0A43190289B2114304AA127876
:101710000A432A430260B0BD808080FFF0B585B0E7
:1017200015460E460446816840200840002E0028D9
:1017300001D100202860CA206062532060622046E8
:10174000FFF78AFF012801D1012043E02A792F68A1
:10175000002E06D06B79A879694608602046394684
:101760002AE00492A87902900A2631460397FEF7F0
:10177000BFFC31464143029A511A00010843C0B2EE
:10178000029004983146FEF7B3FC07466D7928466F
:101790003146FEF7ADFC6946029A0A60314679434C
:1017A000049A511A3A010A43D2B24643A91B0001D6
:1017B0000843C3B220460399FFF79EFF8020C04331
:1017C00006490860A068800603D4204600F008F8A7
:1017D00000E00020FF21616205B0F0BD0C28004050
:1017E000F8B57D21CC000094C16880220A40A02178
:1017F000C9435118C16001252904C6680022164B4F
:101800000CE0002E0DD01E680E4202D0009E761E07
:101810000096C668009F002F00D10122B606009EE8
:10182000EFD4D6B2012E13D00094C4680CE0002C83
:101830000DD01C680C4202D0009C641E0094C46849
:10184000009D002D00D10122A406009CEFD5154675
:10185000E8B201B0F0BDC04610E000E0F0B585B0E0
:101860000268012352061A462CD40268194D15400D
:1018700044C90C6800944C6801948C680294CC684C
:101880000F6903974F6904972A433243009D2A4307
:10189000019D2A43029D2A432243039D2A43049D1E
:1018A0002A438D692A43026042680426B243240C0D
:1018B000144344600122540300220839A54201D197
:1018C000898C0161D902C3698B43C361104605B09D
:1018D000F0BDC0464000FFFF014908607047C046A8
:1018E0000C000020B0B5036801229407A04208D084
:1018F0000D4CA04205D00D4CA04202D00C4CA04291
:1019000007D10C4C234070344D6825401D43CB68F3
:101910002B4303608B68C36209888162416911436C
:1019200041610020B0BDC0460004004000140140E9
:10193000000801408FFCFFFF7FB5044600680125C9
:10194000C0074DD10E462068274901407068084302
:10195000F168014330690843B16901432160B0680F
:1019600003210A03636893430343636070690902B8
:10197000A2688A430243A2601C4884420FD05548A3
:10198000844207D01A48844204D05148844227D167
:10199000032005E06846FFF765FD029802E00C2091
:1019A000FFF77EFD00281BD03168002918D00122E6
:1019B000D203B3690F4D93420AD140004A08101870
:1019C000FEF796FB05400007400F2843E06006E065
:1019D0004A081018FEF78CFB0F350540E56000251E
:1019E000284604B070BDC046F369FFEF00440040D4
:1019F00000500040F0FF0000F0B589B002200290D6
:101A00000790002001900690059001270497089008
:101A1000042003900520050703AE144C28463146E8
:101A2000A0471020039028463146A047F8020390B3
:101A300028463146A0473803039028463146A04740
:101A400003970B4F38463146A0470298039038461B
:101A50003146A047686907490140696178690321F7
:101A600088437861019809B0F0BDC0468D13000825
:101A700000040050EB67FFFFB0B5FFF75BF900F023
:101A8000FDF900F02BFB11480168402291430160F1
:101A90000120C2430E490B6813400B600D4B1C68BC
:101AA00014401C600C4B1C68042525431D60AB4B87
:101AB0001C680225AC431C605C6814405C6030BF4D
:101AC0000A6802430A600020B0BDC04600300140F1
:101AD00000380140004C004010ED00E0704700006D
:101AE000BFF34F8F034804490160BFF34F8F00BF1E
:101AF000FDE7C0460CED00E00400FA057047000069
:101B000080B5A949C8680007800F012808D00228BD
:101B100004D0032809D100F011F880BD164880BD1B
:101B20000868C00608D5164880BD01200004496831
:101B30000904490F884080BD104880BD80B50D491B
:101B40000868C00306D408460C380068C00603D5F0
:101B50000B4A02E0084A00E0084A08688002000FC9
:101B6000084B185C504309680902890F491CFEF7AD
:101B7000BFFA80BD0C10024000127A000024F4006D
:101B800000093D000C2E000808480168C9050BD566
:101B9000074901220A60110203688B430360500465
:101BA00004490A6802430A607047C0460C28004096
:101BB000B00000201404014010B5324A13689B02A3
:101BC0009B0E037113685B045B0E437113687F24E3
:101BD0001C40847101239B0514681C4004605068FC
:101BE0003F2303408B705068C004C00E487050689B
:101BF000000CC87050680004400F087010BDC0464B
:101C000010B51448CA21C1615321C16101210A02E2
:101C100003689343036005239B0204681C4304602C
:101C2000436909241C4376239C43446143690A4C5D
:101C30001C4380239C434461036813430360FF22D9
:101C4000C261480405490A6802430A608A6802437F
:101C50008A6010BD08280040008080800004014098
:101C6000BFB5039102900192064C002502AA2046BE
:101C70002946FFF753FD01AA20462946FFF78AFCB3
:101C8000BFBDC04600280040704770477047000045
:101C9000F8B531490A68012082430A6009682F4E6D
:101CA00031682F4A1140C302C918316004023E4D09
:101CB000296821432960430229681942FCD0072181
:101CC0004F036A68BA438703D2196A60FF2212067B
:101CD0006F6897436F60326822433260C2042E6D92
:101CE00016432E652E6D96432E652A6D1C4E32408E
:101CF0002A652A6D22432A652A6D1A42FCD00326E2
:101D000032042B6D934302049A182A658404286DCB
:101D100020432865E868F0229043E8600802EA68FA
:101D20008243EA60C802E9688143E960E868B04339
:101D3000E860E8680007800FFBD12046FFF784FBCE
:101D40000848016804220A4302602046FFF7C4FDE8
:101D5000E86CB043E864F8BD002002400070004029
:101D6000FFE7FFFF10E000E0012002020E490B68D0
:101D700013430B60CA680D4B1340CB600A680C4BD1
:101D800013400B608A6882438A6082040B68934325
:101D90000B60FD221204CB689343CB6000220A61E2
:101DA000C006044908607047001002400C40FF88DC
:101DB000F6FFF6FE08ED00E07047012291070023D0
:101DC0000B614B62C8620868104308600869C0076D
:101DD000FCD0002070470000064801680122114332
:101DE000016090078321490081620168114301600D
:101DF0007047C0463810024001218A070023136152
:101E00005362D06210680843106070470B48016845
:101E100009070DD480680A490A680A4B9854501C77
:101E2000C217920E82183F239A43801A08607047A7
:101E300001680822914301607047C0461C38014088
:101E4000100000201C0000200848006808490A68AB
:101E5000084B9854084801230360501CC217920E87
:101E600082183F239A43801A08607047244C004030
:101E70005C0000206C00002068000020C54801685C
:101E800008220A4302607047C24801680822914351
:101E90000160704770B50120C043E249CA68002A5A
:101EA0001ED00A688B68934219D05C1CE517AD0EF2
:101EB00065193F26B543641BCB181B7C3F2B23467B
:101EC000F1D18C603F247B4D2046A8472046A8478F
:101ED0002046A8472046A8472046A847002070BDB6
:101EE000401C70BDF0B591B00D46044600F0FCF802
:101EF00008AA00271781D78020796179090208187C
:101F0000029290802078617809020818A178E2781E
:101F100012025118090408180890AE1F092E3946FC
:101F200001D81020411B0BAD0195A819FEF723F92C
:101F3000A11D28463246FEF705F90EAD2F810F97F9
:101F40000E97554803210091544CA04707A90691CC
:101F5000534A284690470799524A2846904752A02C
:101F60000397042105912746A04751A00121A047CE
:101F70000D2450492046049488472846069E314641
:101F8000474A904707992846464A90474AA00599EC
:101F9000B8474BA00099B84720464649884728468D
:101FA00031463F4A9047079928463E4A9047454860
:101FB000059F3946394EB047019C2046FEF7F3F89D
:101FC00001462046B047049C20463A4988472846A7
:101FD0000699334A904707992846324A90473A482B
:101FE00039463746B047029E3046FEF7DCF80146D8
:101FF0003046B84720462F4988472846069F39462D
:10200000274A904707992846264A90472FA0059EC1
:102010003146224A90472046264988472846394675
:102020001F4FB847079928461E4A904729A03146B6
:102030001A4A9047049C20461E4988472846069F16
:102040003946174A904707992846164A90471E482E
:102050003146124A90472046164988472846394655
:102060000F4EB047079928460E4EB04715480599C0
:102070000A4A904720460F49884728463946084A69
:10208000904707992846B0478E48016820220A43A6
:102090000260039811B0F0BD2B2E000855230008F4
:1020A00099210008790800084154435400000000B9
:1020B000350000004123000841544754000000004F
:1020C00031463400342E00082F2E0008415441437D
:1020D0000000000041545752000000007948016898
:1020E00020220A430260704780B5F7480168202229
:1020F00091430160FA20FFF760FE80BD10B5002417
:10210000012802D100F034F900E0E443204610BD7C
:10211000F0B58FB002AC32212046FEF72CF8FFF765
:10212000E3FF60480321C54DA8472F4601AD5F4A34
:1021300020462946904701995D4A2046904713481A
:1021400004263146B8470D27384600F0F9F82046F6
:102150002946564A904701992046554A90470C48CF
:102160003146B64A9047384600F0EAF820462946FC
:102170004E4A9047019920464D4A9047D2480168FF
:1021800020220A43026000200FB0F0BD2F2E00086D
:10219000342E000814040050F8B50D4601229107B2
:1021A00000240C614C627D231B01CB620B6813433E
:1021B0000B60604E3268521EB3181B7C0D2B04D08E
:1021C0000F69FF07FAD0E44329E07260B368014663
:1021D0000DE0F218127C0A70B268521CD3179B0EE5
:1021E000D3183F27BB43D31AB360491C726893428C
:1021F000EFD1F460FDF7D7FF28603068401CC117AD
:10220000890E41183F22D2431140401A3060B06815
:10221000801CC117890E41181140401AB060204639
:1022200001B0F0BD5C000020F0B58FB002AC3221EF
:102230002046FDF7A0FFFFF757FF1A4803211A4D6C
:10224000A8472F4601AD194A2046294690470199D3
:10225000174A2046904717A004263146B8470D2755
:10226000384600F06DF820462946104A90470199FB
:1022700020460F4A904711A031460B4A90473846F6
:1022800000F05EF820462946084A9047019920460A
:10229000074A90478C48016820220A4302600020C8
:1022A0000FB0F0BD2B2E000855230008992100081F
:1022B0007908000841545348000000004154534C31
:1022C0000000000014040050F0B58DB0194D2868CE
:1022D000AE6831460AE06A18127C4F1C3F2A09D0CA
:1022E000F917890E79183F229143791A8142F2D168
:1022F00000201CE06F606C4632212046FDF73BFF5A
:102300000BE0A819007C2070701CC117890E4118C1
:102310003F229143461AAE60641CBE42F1D168462A
:1023200005A10522FDF746FF0146404248410DB098
:10233000F0BDC0465C0000204454413F0000000056
:102340000349C86008684006FCD500207047C046B5
:102350001C4C004070B50C460546002603E0A85D05
:10236000FFF7EEFF761CA642F9DB002070BD0000EF
:10237000F0B593B00AA801461F3108910146153106
:10238000079101461431069101460A310591014633
:1023900008310491811D0391011D0291801C01905F
:1023A0003EE00AA8099002273946244DA8472C464A
:1023B0002C263046224DA84701983946A047304682
:1023C000A84702983946A0473046A847039839469F
:1023D000A0473046A84704983946A0473046A8474A
:1023E0000A2705983946A0473046A8470124069891
:1023F0002146124A90473046A847079839460F4A67
:10240000904730460E4DA847089821460B4A904702
:102410003046A8473846A84721210998FDF7ABFE6A
:102420000AA8FEF7C9FB0028BBD03F20FFF788FFB2
:1024300024490020086013B0F0BDC04655230008B1
:1024400041230008F8B5FFF74FFE1C490868012634
:1024500030430860B70700243C617C621848F8628A
:10246000386830433860174D16E0FFF713FD002839
:1024700012D12E603C617C621148F86238683043AA
:10248000386003E0FFF720FFFFF738FE28680028D8
:1024900002D03869C007F5D03869C007E5D02C6094
:1024A000064801460068B0430860074801682022DA
:1024B0000A430260204601B0F0BDC046004C004017
:1024C000204E0000AC000020140400509EB00124F7
:1024D0002046FEF74DFF2007FEF73CFFFFF7D8FB35
:1024E00072B60025139504200690F94EB047204699
:1024F000B04702200C90B047052007070823BB62B5
:1025000020460A9421020591B962F24CA362089315
:1025100010210491A16220210991A16212951195C7
:1025200010950F900E930EAE38460B973146F84A31
:1025300090471295119510950A980F9005980E9056
:1025400038463146F24FB8471295119510950A9FBB
:102550000F9708980E9020463146ED4A9047129505
:10256000119510950F9704980E9020463146E84A31
:1025700090471295119510950F9709980E90204647
:102580003146E34A904712950F95402002900E90F5
:1025900020463146DE4A904712950F9580200390E1
:1025A0000E9020463146DA4A9047D94A12950F9547
:1025B000F80307900E900B9831469047199518959F
:1025C0000D95B804D3490A6802430A60D2480C3812
:1025D0000168D24A11400160D149069808607F2005
:1025E0000F900E95FF2610960096CE480EA9FFF785
:1025F00057F818AA95719580CA483946FFF78EF8A2
:102600000DAAD57002361680C6483946FEF7C2FFBD
:10261000FFF7F6FA38030190FEF7AAFE3846BB49E9
:1026200088471D951C951B9503271A970C9E199694
:102630000998189018A908910B98B54A90471D95CC
:102640001C951B951A971996029818900B9E304668
:102650000899AF4A9047AE4A1D951C951B951A974D
:102660000C98199003981890304608999047009854
:102670000002A94AD16881430897B8030818D060BE
:102680000A994806A64A10600720179016951595D6
:10269000049F14974802009013901295119510957D
:1026A0000598001D0F900E959F4E0EA93046FFF71E
:1026B000D5F87068B84370603068400603D430685D
:1026C0000299084330600E950A9F3846FEF742FE95
:1026D00091480346006895490840F907401818607A
:1026E0008F480146079808600EA90D801195109536
:1026F0000F95BE073046FFF7F5F80398C0433168E1
:1027000001403160B1688A4A0A40B2607168702243
:1027100091437160B1680140B160B8030590FEF764
:1027200027FE3846FEF782FE069F1D971C951B95D7
:1027300008981A900C9819900098189018A904916C
:102740000B98734A90471D971C951B9508981A90F3
:102750000C9819900A9FB80218900B9804996C4A2B
:1027600090476D49C868714A10408019C860F806E2
:102770006B490860149513950C20069012901195E2
:1027800010950F954B20C00104900E90694E0EA934
:102790003046FFF7D1F8B06801990843B06070681F
:1027A0006549084070602A20C1430391B068084021
:1027B000B060306838433060FA43029230681040AD
:1027C00030603068099A10433060306838433060B8
:1027D000F804FEF7BFFD3846FEF728FE06200190FC
:1027E0001D901C951B9508981A900C981990189795
:1027F00018AE0B9F38463146454A904701981D90C8
:102800001C951B9508981A900C98199018903846AA
:1028100031463F4A9047404A1068404908400A9F65
:10282000B905014311603E4805990160149513955F
:1028300006981290119510950F9504980E903F4EA2
:102840000EA93046FFF778F8706807990843706062
:102850007068394908407060B06803990840B060FA
:102860003068384330603068029908403060306822
:1028700009990843306030683843306062B6FFF72A
:10288000ABFA3846FFF799FAFEF754FAFEF748FA22
:10289000FFF724FCFFF7F2FAFFF7AEF80E95189554
:1028A000274EFDF75DFE00280CD0FDF71FFE002827
:1028B00004D107E0FDF720FFFDF7F0FEFDF750FE25
:1028C0000028F7D12069400606D4FFF7D5F8E8E7DD
:1028D0002D140008000400503068012804D10EA80F
:1028E00018A900F02FF835600E98002802D0FEF7E6
:1028F00089FB0E951898002804D0FFF7A3FDFFF779
:10290000C3FACEE7FFF7BAFACBE7C0462D140008AA
:102910008D130008501002400CE400E0FFFF00FFA0
:1029200000E100E00028004000300140FFFFFF0010
:10293000F8BFFFFF00380140FFB7FFFF004C004029
:10294000B0000020F0B58DB00791069009A80027CF
:10295000077008AD2F70374C2246303201263146C1
:102960000292FEF7E1F822463132284605963146BA
:102970000192FEF7D9F825786678A0780490E0787F
:10298000039024790BA80AA9FFF716F9002D0AD0A5
:10299000079A0BA80079B0420AD30499884207D25B
:1029A0000599116005E0079807600BA8007900E021
:1029B0001760069E002817D10BA84079002813D174
:1029C00005983060079408AC277009AD2F70FEF7AA
:1029D000B5F828780299FEF78FF82078079C0199BE
:1029E000FEF78AF8FEF796F83068002820D10BA889
:1029F00000790399411A09AA1278914218DB0BA9B0
:102A000049790A1B08AB1B789A4211DB059A3260A0
:102A100008AC217009AD2870FEF790F8287802996B
:102A2000FEF76AF820780199FEF766F8FEF772F86B
:102A30000DB0F0BD000008080FB410B504A9074B95
:102A400002AA039800F020F8044602A9002000F032
:102A500089F9204610BC08BC04B01847652D000851
:102A6000004870470400002002E008C8121F08C197
:102A7000002AFAD170477047002001E001C1121FFF
:102A8000002AFBD170470000FFB58FB00F46044607
:102A9000002606E025280AD0129A11999047641C56
:102AA000761C20780028F5D1304613B0F0BD002503
:102AB0000121A14A009500E00543641C23780846E3
:102AC000203B98401042F7D120782E2815D10420C1
:102AD00005436078641C2A280AD101CF641C009049
:102AE0000BE000990A22514330394018641C0090D1
:102AF0002078014630390929F3D920786C280ED086
:102B000004DC4C2813D06A2812D104E074280ED0BB
:102B10007A280DD10BE001204005054307E0012193
:102B2000090562780D43824201D16D18641C641C52
:102B30002078864669284AD008DC0028B4D0582876
:102B40006DD0632810D0642808D140E070286BD085
:102B5000732812D0752860D0782860D0129A7046F9
:102B600011999047761CE5E0387869460872002094
:102B7000487202A80190012003E03868019000200B
:102B8000C0433F1D69070CD5002500E06D1C00996E
:102B90008D420FDA8542F9DB0199495D0029F5D1B3
:102BA00008E0002500E06D1C8542FCDB0199495DD1
:102BB0000029F8D1761907E0019801990078491C9D
:102BC0000191129A119990476D1EF5D2B2E00A2038
:102BD000029000216802400F039102280CD001CF1F
:102BE000C117844600290DDA624608465242002188
:102BF000814194462D2008E0FF1DFF08FF0003CF10
:102C00008446EFE7280504D52B206A46107401207E
:102C10003CE0E8073AD02020F7E70A2000E0102047
:102C200000210391029007E010200290002104206F
:102C300005430820039100906802400F022810D03D
:102C400001CF0021844600200D9028071FD5704633
:102C500070280CD0029A1020039B42401A430CD0DB
:102C600015E0FF1DFF08FF0003CF8446EBE740207F
:102C70006A46107401200D900CE06046084306D0AF
:102C800030206A4610747046507402200D907046D1
:102C9000582804D029A001900DA80E900DE02CA07A
:102CA000F9E76046039B029AFDF7DCFA019B844634
:102CB0009B5C0E9A521E0E92137060460843F0D130
:102CC0000E9805A9081A20300190680701D50098D0
:102CD00001E0012000900199884203DD014601983E
:102CE000081A00E000200025009006E004A8129ACF
:102CF000405D119990476D1C761C0D988542F5DB5F
:102D000004E0129A302011999047761C0099481ED1
:102D100000900029F5DC08E00E980E990078491C17
:102D20000E91129A11999047761C0199481E0190B4
:102D30000029F1DC641CB4E609280100303132338B
:102D400034353637383961626364656600000000E7
:102D500030313233343536373839414243444546D1
:102D6000000000000A68531C0B60107070470040A0
:102D7000404040404040404041414141414040404E
:102D8000404040404040404040404040404040057E
:102D900002020202020202020202020202020220F5
:102DA00020202020202020202002020202020202F5
:102DB0009090909090901010101010101010101013
:102DC0001010101010101010101002020202020257
:102DD0008888888888880808080808080808080873
:102DE000080808080808080808080202020240004B
:102DF0006F2D000800000000000000000102030425
:102E00000607080900000000010203040304060885
:102E10000C1018203041434B3F0025782578257849
:102E20002578257825782578002C002B2B2B004140
:102E3000544448004154444C00000000602E0008F7
:102E40000000002010000000682A0008702E000812
:102E500010000020A8040000782A000800000000EC
:102E6000000000000000000000300008000020000A
:04000005080000C12E
:00000001FF
